{
  "contractName": "Battleship",
  "abi": [
    {
      "inputs": [],
      "payable": false,
      "stateMutability": "nonpayable",
      "type": "constructor"
    },
    {
      "anonymous": false,
      "inputs": [
        {
          "indexed": false,
          "name": "",
          "type": "string"
        },
        {
          "indexed": false,
          "name": "",
          "type": "string"
        }
      ],
      "name": "LogShotResult",
      "type": "event"
    },
    {
      "anonymous": false,
      "inputs": [
        {
          "indexed": false,
          "name": "",
          "type": "string"
        },
        {
          "indexed": false,
          "name": "",
          "type": "string"
        }
      ],
      "name": "LogPlaceLegality",
      "type": "event"
    },
    {
      "anonymous": false,
      "inputs": [
        {
          "indexed": false,
          "name": "",
          "type": "uint256"
        },
        {
          "indexed": false,
          "name": "",
          "type": "uint256"
        }
      ],
      "name": "LogShipStartStop",
      "type": "event"
    },
    {
      "anonymous": false,
      "inputs": [
        {
          "indexed": false,
          "name": "",
          "type": "string"
        }
      ],
      "name": "LogAllShipsPlaced",
      "type": "event"
    },
    {
      "anonymous": false,
      "inputs": [
        {
          "indexed": false,
          "name": "",
          "type": "string"
        },
        {
          "indexed": false,
          "name": "",
          "type": "uint256"
        },
        {
          "indexed": false,
          "name": "",
          "type": "uint256"
        },
        {
          "indexed": false,
          "name": "",
          "type": "uint256"
        }
      ],
      "name": "LogShipPlaced",
      "type": "event"
    },
    {
      "anonymous": false,
      "inputs": [
        {
          "indexed": false,
          "name": "",
          "type": "string"
        },
        {
          "indexed": false,
          "name": "",
          "type": "string"
        },
        {
          "indexed": false,
          "name": "",
          "type": "uint256"
        }
      ],
      "name": "LogCurrentShip",
      "type": "event"
    },
    {
      "anonymous": false,
      "inputs": [
        {
          "indexed": false,
          "name": "",
          "type": "string"
        },
        {
          "indexed": false,
          "name": "",
          "type": "string"
        },
        {
          "indexed": false,
          "name": "",
          "type": "string"
        }
      ],
      "name": "LogShipSunk",
      "type": "event"
    },
    {
      "anonymous": false,
      "inputs": [
        {
          "indexed": false,
          "name": "",
          "type": "string"
        },
        {
          "indexed": false,
          "name": "",
          "type": "string"
        }
      ],
      "name": "LogGameWon",
      "type": "event"
    },
    {
      "anonymous": false,
      "inputs": [
        {
          "indexed": false,
          "name": "",
          "type": "string"
        },
        {
          "indexed": false,
          "name": "",
          "type": "string"
        }
      ],
      "name": "LogAllShipsSunk",
      "type": "event"
    },
    {
      "anonymous": false,
      "inputs": [
        {
          "indexed": false,
          "name": "",
          "type": "string"
        },
        {
          "indexed": false,
          "name": "",
          "type": "string"
        },
        {
          "indexed": false,
          "name": "",
          "type": "uint8"
        }
      ],
      "name": "LogCheckShipStatus",
      "type": "event"
    },
    {
      "constant": true,
      "inputs": [],
      "name": "returnPlayers",
      "outputs": [
        {
          "name": "",
          "type": "string"
        },
        {
          "name": "",
          "type": "string"
        }
      ],
      "payable": false,
      "stateMutability": "view",
      "type": "function"
    },
    {
      "constant": false,
      "inputs": [],
      "name": "toggleContractActive",
      "outputs": [],
      "payable": false,
      "stateMutability": "nonpayable",
      "type": "function"
    },
    {
      "constant": false,
      "inputs": [
        {
          "name": "playerName",
          "type": "string"
        }
      ],
      "name": "registerPlayer",
      "outputs": [],
      "payable": false,
      "stateMutability": "nonpayable",
      "type": "function"
    },
    {
      "constant": false,
      "inputs": [
        {
          "name": "x",
          "type": "uint8"
        },
        {
          "name": "y",
          "type": "uint8"
        },
        {
          "name": "shipType",
          "type": "string"
        },
        {
          "name": "playerName",
          "type": "string"
        },
        {
          "name": "direction",
          "type": "uint8"
        }
      ],
      "name": "placeShip",
      "outputs": [],
      "payable": false,
      "stateMutability": "nonpayable",
      "type": "function"
    },
    {
      "constant": false,
      "inputs": [
        {
          "name": "x",
          "type": "uint8"
        },
        {
          "name": "y",
          "type": "uint8"
        }
      ],
      "name": "fireShot",
      "outputs": [
        {
          "name": "",
          "type": "string"
        }
      ],
      "payable": false,
      "stateMutability": "nonpayable",
      "type": "function"
    },
    {
      "constant": true,
      "inputs": [
        {
          "name": "a",
          "type": "string"
        },
        {
          "name": "b",
          "type": "string"
        }
      ],
      "name": "compareStrings",
      "outputs": [
        {
          "name": "",
          "type": "bool"
        }
      ],
      "payable": false,
      "stateMutability": "view",
      "type": "function"
    }
  ],
  "bytecode": "0x608060405260008060006101000a81548160ff0219169083151502179055503480156200002b57600080fd5b50600260d760006101000a81548160ff021916908360028111156200004c57fe5b02179055506040805190810160405280600781526020017f465249474154450000000000000000000000000000000000000000000000000081525060d16000019080519060200190620000a19291906200091e565b50600160d160010160006101000a81548160ff021916908360ff16021790555060d160010160009054906101000a900460ff1660d160010160016101000a81548160ff021916908360ff160217905550600060d160010160026101000a81548160ff021916908360ff1602179055506040805190810160405280600981526020017f5355424d4152494e45000000000000000000000000000000000000000000000081525060d36000019080519060200190620001609291906200091e565b50600260d360010160006101000a81548160ff021916908360ff16021790555060d360010160009054906101000a900460ff1660d360010160016101000a81548160ff021916908360ff160217905550600060d360010160026101000a81548160ff021916908360ff1602179055506040805190810160405280600981526020017f44455354524f594552000000000000000000000000000000000000000000000081525060d560000190805190602001906200021f9291906200091e565b50600360d560010160006101000a81548160ff021916908360ff16021790555060d560010160009054906101000a900460ff1660d560010160016101000a81548160ff021916908360ff160217905550600060d560010160026101000a81548160ff021916908360ff160217905550600160670160d19080600181540180825580915050906001820390600052602060002090600202016000909192909190915060008201816000019080546001816001161561010002031660029004620002e9929190620009a5565b506001820160009054906101000a900460ff168160010160006101000a81548160ff021916908360ff1602179055506001820160019054906101000a900460ff168160010160016101000a81548160ff021916908360ff1602179055506001820160029054906101000a900460ff168160010160026101000a81548160ff021916908360ff1602179055506001820160039054906101000a900460ff168160010160036101000a81548160ff021916908360ff160217905550505050600160670160d3908060018154018082558091505090600182039060005260206000209060020201600090919290919091506000820181600001908054600181600116156101000203166002900462000400929190620009a5565b506001820160009054906101000a900460ff168160010160006101000a81548160ff021916908360ff1602179055506001820160019054906101000a900460ff168160010160016101000a81548160ff021916908360ff1602179055506001820160029054906101000a900460ff168160010160026101000a81548160ff021916908360ff1602179055506001820160039054906101000a900460ff168160010160036101000a81548160ff021916908360ff160217905550505050600160670160d5908060018154018082558091505090600182039060005260206000209060020201600090919290919091506000820181600001908054600181600116156101000203166002900462000517929190620009a5565b506001820160009054906101000a900460ff168160010160006101000a81548160ff021916908360ff1602179055506001820160019054906101000a900460ff168160010160016101000a81548160ff021916908360ff1602179055506001820160029054906101000a900460ff168160010160026101000a81548160ff021916908360ff1602179055506001820160039054906101000a900460ff168160010160036101000a81548160ff021916908360ff160217905550505050606960670160d190806001815401808255809150509060018203906000526020600020906002020160009091929091909150600082018160000190805460018160011615610100020316600290046200062e929190620009a5565b506001820160009054906101000a900460ff168160010160006101000a81548160ff021916908360ff1602179055506001820160019054906101000a900460ff168160010160016101000a81548160ff021916908360ff1602179055506001820160029054906101000a900460ff168160010160026101000a81548160ff021916908360ff1602179055506001820160039054906101000a900460ff168160010160036101000a81548160ff021916908360ff160217905550505050606960670160d3908060018154018082558091505090600182039060005260206000209060020201600090919290919091506000820181600001908054600181600116156101000203166002900462000745929190620009a5565b506001820160009054906101000a900460ff168160010160006101000a81548160ff021916908360ff1602179055506001820160019054906101000a900460ff168160010160016101000a81548160ff021916908360ff1602179055506001820160029054906101000a900460ff168160010160026101000a81548160ff021916908360ff1602179055506001820160039054906101000a900460ff168160010160036101000a81548160ff021916908360ff160217905550505050606960670160d590806001815401808255809150509060018203906000526020600020906002020160009091929091909150600082018160000190805460018160011615610100020316600290046200085c929190620009a5565b506001820160009054906101000a900460ff168160010160006101000a81548160ff021916908360ff1602179055506001820160019054906101000a900460ff168160010160016101000a81548160ff021916908360ff1602179055506001820160029054906101000a900460ff168160010160026101000a81548160ff021916908360ff1602179055506001820160039054906101000a900460ff168160010160036101000a81548160ff021916908360ff16021790555050505062000a5b565b828054600181600116156101000203166002900490600052602060002090601f016020900481019282601f106200096157805160ff191683800117855562000992565b8280016001018555821562000992579182015b828111156200099157825182559160200191906001019062000974565b5b509050620009a1919062000a33565b5090565b828054600181600116156101000203166002900490600052602060002090601f016020900481019282601f10620009e0578054855562000a20565b8280016001018555821562000a2057600052602060002091601f016020900482015b8281111562000a1f57825482559160010191906001019062000a02565b5b50905062000a2f919062000a33565b5090565b62000a5891905b8082111562000a5457600081600090555060010162000a3a565b5090565b90565b6134a18062000a6b6000396000f300608060405260043610610078576000357c0100000000000000000000000000000000000000000000000000000000900463ffffffff1680631385d24c1461007d578063b3446f8514610094578063bc2d105e146100fd578063bed34bba146101d3578063d472b87f1461029a578063df195d0414610396575b600080fd5b34801561008957600080fd5b5061009261044c565b005b3480156100a057600080fd5b506100fb600480360381019080803590602001908201803590602001908080601f01602080910402602001604051908101604052809392919081815260200183838082843782019150505050505091929192905050506104d2565b005b34801561010957600080fd5b506101d1600480360381019080803560ff169060200190929190803560ff169060200190929190803590602001908201803590602001908080601f0160208091040260200160405190810160405280939291908181526020018383808284378201915050505050509192919290803590602001908201803590602001908080601f0160208091040260200160405190810160405280939291908181526020018383808284378201915050505050509192919290803560ff169060200190929190505050610758565b005b3480156101df57600080fd5b50610280600480360381019080803590602001908201803590602001908080601f0160208091040260200160405190810160405280939291908181526020018383808284378201915050505050509192919290803590602001908201803590602001908080601f0160208091040260200160405190810160405280939291908181526020018383808284378201915050505050509192919290505050610fff565b604051808215151515815260200191505060405180910390f35b3480156102a657600080fd5b506102af6110d8565b604051808060200180602001838103835285818151815260200191508051906020019080838360005b838110156102f35780820151818401526020810190506102d8565b50505050905090810190601f1680156103205780820380516001836020036101000a031916815260200191505b50838103825284818151815260200191508051906020019080838360005b8381101561035957808201518184015260208101905061033e565b50505050905090810190601f1680156103865780820380516001836020036101000a031916815260200191505b5094505050505060405180910390f35b3480156103a257600080fd5b506103d1600480360381019080803560ff169060200190929190803560ff169060200190929190505050611225565b6040518080602001828103825283818151815260200191508051906020019080838360005b838110156104115780820151818401526020810190506103f6565b50505050905090810190601f16801561043e5780820380516001836020036101000a031916815260200191505b509250505060405180910390f35b600060019054906101000a900473ffffffffffffffffffffffffffffffffffffffff1673ffffffffffffffffffffffffffffffffffffffff163373ffffffffffffffffffffffffffffffffffffffff161415156104a857600080fd5b6000809054906101000a900460ff16156000806101000a81548160ff021916908315150217905550565b606060016000018054600181600116156101000203166002900480601f01602080910402602001604051908101604052809291908181526020018280546001816001161561010002031660029004801561056d5780601f106105425761010080835404028352916020019161056d565b820191906000526020600020905b81548152906001019060200180831161055057829003601f168201915b505050505090506000815114156106d157336001800160006101000a81548173ffffffffffffffffffffffffffffffffffffffff021916908373ffffffffffffffffffffffffffffffffffffffff16021790555081600160000190805190602001906105da92919061307f565b50600160d8600082018160000190805460018160011615610100020316600290046106069291906130ff565b506001820160009054906101000a900473ffffffffffffffffffffffffffffffffffffffff168160010160006101000a81548173ffffffffffffffffffffffffffffffffffffffff021916908373ffffffffffffffffffffffffffffffffffffffff160217905550600282018160020190600a610684929190613186565b506066820160009054906101000a900460ff168160660160006101000a81548160ff02191690831515021790555060678201816067019080546106c89291906131d5565b50905050610754565b33606960010160006101000a81548173ffffffffffffffffffffffffffffffffffffffff021916908373ffffffffffffffffffffffffffffffffffffffff160217905550816069600001908051906020019061072e92919061307f565b50600160d760006101000a81548160ff0219169083600281111561074e57fe5b02179055505b5050565b6000806000806000806000806001600281111561077157fe5b60d760009054906101000a900460ff16600281111561078c57fe5b14151561079857600080fd5b61083f8a60016000018054600181600116156101000203166002900480601f0160208091040260200160405190810160405280929190818152602001828054600181600116156101000203166002900480156108355780601f1061080a57610100808354040283529160200191610835565b820191906000526020600020905b81548152906001019060200180831161081857829003601f168201915b5050505050610fff565b1561084d5760019650610852565b606996505b6108f98b60d16000018054600181600116156101000203166002900480601f0160208091040260200160405190810160405280929190818152602001828054600181600116156101000203166002900480156108ef5780601f106108c4576101008083540402835291602001916108ef565b820191906000526020600020905b8154815290600101906020018083116108d257829003601f168201915b5050505050610fff565b156109255786606701600081548110151561091057fe5b90600052602060002090600202019750610ac9565b6109cc8b60d36000018054600181600116156101000203166002900480601f0160208091040260200160405190810160405280929190818152602001828054600181600116156101000203166002900480156109c25780601f10610997576101008083540402835291602001916109c2565b820191906000526020600020905b8154815290600101906020018083116109a557829003601f168201915b5050505050610fff565b156109f8578660670160018154811015156109e357fe5b90600052602060002090600202019750610ac8565b610a9f8b60d56000018054600181600116156101000203166002900480601f016020809104026020016040519081016040528092919081815260200182805460018160011615610100020316600290048015610a955780601f10610a6a57610100808354040283529160200191610a95565b820191906000526020600020905b815481529060010190602001808311610a7857829003601f168201915b5050505050610fff565b15610ac757866067016002815481101515610ab657fe5b906000526020600020906002020197505b5b5b7f85afe4fc04986b6cead49a25b21c3e8f8d92d902967e3fdb2491123dad04fc8c886000018960010160019054906101000a900460ff166040518080602001806020018460ff1681526020018381038352600f8152602001807f43757272656e7420736869702069730000000000000000000000000000000000815250602001838103825285818154600181600116156101000203166002900481526020019150805460018160011615610100020316600290048015610bca5780601f10610b9f57610100808354040283529160200191610bca565b820191906000526020600020905b815481529060010190602001808311610bad57829003601f168201915b505094505050505060405180910390a18c60ff1695508760010160009054906101000a900460ff168d0160ff1694508b60ff1693508760010160009054906101000a900460ff168c0160ff16925060008d60ff1610158015610c30575060008c60ff1610155b1515610c3b57600080fd5b600a60ff1685108015610c515750600a60ff1683105b1515610c5c57600080fd5b600060ff168860010160029054906101000a900460ff1660ff16141515610c8257600080fd5b600060ff168960ff161415610dd9578591505b84821015610dd457600060d860020183600a81101515610cb157fe5b600a02018d60ff16600a81101515610cc557fe5b0154141515610cd357600080fd5b8760010160019054906101000a900460ff1660ff168760020183600a81101515610cf957fe5b600a02018d60ff16600a81101515610d0d57fe5b018190555060018860010160026101000a81548160ff021916908360ff1602179055507f7640287f811ab1b4e37aaf4739f0b3d8f87a9e7efd4369dc5826ec5edaa8fc74828d8a60010160019054906101000a900460ff1660405180806020018581526020018460ff1681526020018360ff168152602001828103825260178152602001807f5368697020706c61636564206174206c6f636174696f6e00000000000000000081525060200194505050505060405180910390a18180600101925050610c95565b610e86565b8391505b82821015610e8557600060d86002018e60ff16600a81101515610dfc57fe5b600a020183600a81101515610e0d57fe5b0154141515610e1b57600080fd5b8760010160019054906101000a900460ff1660ff16876002018e60ff16600a81101515610e4457fe5b600a020183600a81101515610e5557fe5b018190555060018860010160026101000a81548160ff021916908360ff1602179055508180600101925050610ddd565b5b60019050600091505b600160670180549050821015610ef057600060ff16600160670183815481101515610eb657fe5b906000526020600020906002020160010160029054906101000a900460ff1660ff161415610ee357600090505b8180600101925050610e8f565b600091505b606960670180549050821015610f5657600060ff16606960670183815481101515610f1c57fe5b906000526020600020906002020160010160029054906101000a900460ff1660ff161415610f4957600090505b8180600101925050610ef5565b600115158115151415610ff0577f9af59cc428db7b85fee9d4f846623c39c1728a0cc1259e15df1bfd974540366f6040518080602001828103825260108152602001807f416c6c20536869707320506c616365640000000000000000000000000000000081525060200191505060405180910390a1600060d760006101000a81548160ff02191690836002811115610fea57fe5b02179055505b50505050505050505050505050565b6000816040518082805190602001908083835b6020831015156110375780518252602082019150602081019050602083039250611012565b6001836020036101000a038019825116818451168082178552505050505050905001915050604051809103902060001916836040518082805190602001908083835b60208310151561109e5780518252602082019150602081019050602083039250611079565b6001836020036101000a03801982511681845116808217855250505050505090500191505060405180910390206000191614905092915050565b60608060016000016069600001818054600181600116156101000203166002900480601f01602080910402602001604051908101604052809291908181526020018280546001816001161561010002031660029004801561117a5780601f1061114f5761010080835404028352916020019161117a565b820191906000526020600020905b81548152906001019060200180831161115d57829003601f168201915b50505050509150808054600181600116156101000203166002900480601f0160208091040260200160405190810160405280929190818152602001828054600181600116156101000203166002900480156112165780601f106111eb57610100808354040283529160200191611216565b820191906000526020600020905b8154815290600101906020018083116111f957829003601f168201915b50505050509050915091509091565b60606000806000600281111561123757fe5b60d760009054906101000a900460ff16600281111561125257fe5b14151561125e57600080fd5b6113a260d86000018054600181600116156101000203166002900480601f0160208091040260200160405190810160405280929190818152602001828054600181600116156101000203166002900480156112fa5780601f106112cf576101008083540402835291602001916112fa565b820191906000526020600020905b8154815290600101906020018083116112dd57829003601f168201915b505050505060016000018054600181600116156101000203166002900480601f0160208091040260200160405190810160405280929190818152602001828054600181600116156101000203166002900480156113985780601f1061136d57610100808354040283529160200191611398565b820191906000526020600020905b81548152906001019060200180831161137b57829003601f168201915b5050505050610fff565b15611d6757600160696002018660ff16600a811015156113be57fe5b600a02018560ff16600a811015156113d257fe5b01541015801561140d5750600560696002018660ff16600a811015156113f457fe5b600a02018560ff16600a8110151561140857fe5b015411155b15611af3576040805190810160405280600381526020017f4849540000000000000000000000000000000000000000000000000000000000815250610140908051906020019061145e92919061307f565b5060696002018560ff16600a8110151561147457fe5b600a02018460ff16600a8110151561148857fe5b01549150600960ff1660696002018660ff16600a811015156114a657fe5b600a02018560ff16600a811015156114ba57fe5b01819055506069606701600183038154811015156114d457fe5b9060005260206000209060020201600101600381819054906101000a900460ff168092919060010191906101000a81548160ff021916908360ff160217905550508160696067016001840381548110151561152b57fe5b906000526020600020906002020160010160039054906101000a900460ff1660ff16141561173957600260696067016001840381548110151561156a57fe5b906000526020600020906002020160010160026101000a81548160ff021916908360ff1602179055507fc7823d86aed598df035ea41d58540dc0caa7333d677c1a973b63b28109812e9760696000016069606701600185038154811015156115ce57fe5b9060005260206000209060020201600001604051808060200180602001806020018481038452868181546001816001161561010002031660029004815260200191508054600181600116156101000203166002900480156116705780601f1061164557610100808354040283529160200191611670565b820191906000526020600020905b81548152906001019060200180831161165357829003601f168201915b50508481038352858181546001816001161561010002031660029004815260200191508054600181600116156101000203166002900480156116f35780601f106116c8576101008083540402835291602001916116f3565b820191906000526020600020905b8154815290600101906020018083116116d657829003601f168201915b5050848103825260048152602001807f53554e4b000000000000000000000000000000000000000000000000000000008152506020019550505050505060405180910390a15b7fc853987460a693146896537e8c75eb17519cba9e2d443a1bbd33ccd6ae602c1861014060d86000016040518080602001806020018381038352858181546001816001161561010002031660029004815260200191508054600181600116156101000203166002900480156117ef5780601f106117c4576101008083540402835291602001916117ef565b820191906000526020600020905b8154815290600101906020018083116117d257829003601f168201915b50508381038252848181546001816001161561010002031660029004815260200191508054600181600116156101000203166002900480156118725780601f1061184757610100808354040283529160200191611872565b820191906000526020600020905b81548152906001019060200180831161185557829003601f168201915b505094505050505060405180910390a161192860d86000018054600181600116156101000203166002900480601f01602080910402602001604051908101604052809291908181526020018280546001816001161561010002031660029004801561191e5780601f106118f35761010080835404028352916020019161191e565b820191906000526020600020905b81548152906001019060200180831161190157829003601f168201915b505050505061272a565b15611a4857600260d760006101000a81548160ff0219169083600281111561194c57fe5b02179055507f9bf3a3ee7743d8ce8ae78fd7450036ece624f1858a4af1b2ef0a509e14ec349360d8600001604051808060200180602001838103835260098152602001807f47616d6520576f6e210000000000000000000000000000000000000000000000815250602001838103825284818154600181600116156101000203166002900481526020019150805460018160011615610100020316600290048015611a385780601f10611a0d57610100808354040283529160200191611a38565b820191906000526020600020905b815481529060010190602001808311611a1b57829003601f168201915b5050935050505060405180910390a15b611a50612d4c565b6101408054600181600116156101000203166002900480601f016020809104026020016040519081016040528092919081815260200182805460018160011615610100020316600290048015611ae75780601f10611abc57610100808354040283529160200191611ae7565b820191906000526020600020905b815481529060010190602001808311611aca57829003601f168201915b50505050509250612722565b6040805190810160405280600481526020017f4d495353000000000000000000000000000000000000000000000000000000008152506101409080519060200190611b3f92919061307f565b50600860ff1660696002018660ff16600a81101515611b5a57fe5b600a02018560ff16600a81101515611b6e57fe5b01819055507fc853987460a693146896537e8c75eb17519cba9e2d443a1bbd33ccd6ae602c1861014060d8600001604051808060200180602001838103835285818154600181600116156101000203166002900481526020019150805460018160011615610100020316600290048015611c295780601f10611bfe57610100808354040283529160200191611c29565b820191906000526020600020905b815481529060010190602001808311611c0c57829003601f168201915b5050838103825284818154600181600116156101000203166002900481526020019150805460018160011615610100020316600290048015611cac5780601f10611c8157610100808354040283529160200191611cac565b820191906000526020600020905b815481529060010190602001808311611c8f57829003601f168201915b505094505050505060405180910390a1611cc4612d4c565b6101408054600181600116156101000203166002900480601f016020809104026020016040519081016040528092919081815260200182805460018160011615610100020316600290048015611d5b5780601f10611d3057610100808354040283529160200191611d5b565b820191906000526020600020905b815481529060010190602001808311611d3e57829003601f168201915b50505050509250612722565b6001806002018660ff16600a81101515611d7d57fe5b600a02018560ff16600a81101515611d9157fe5b015410158015611dcc5750600560016002018660ff16600a81101515611db357fe5b600a02018560ff16600a81101515611dc757fe5b015411155b156124b2576040805190810160405280600381526020017f48495400000000000000000000000000000000000000000000000000000000008152506101409080519060200190611e1d92919061307f565b5060016002018560ff16600a81101515611e3357fe5b600a02018460ff16600a81101515611e4757fe5b01549050600960ff1660016002018660ff16600a81101515611e6557fe5b600a02018560ff16600a81101515611e7957fe5b0181905550600160670160018203815481101515611e9357fe5b9060005260206000209060020201600101600381819054906101000a900460ff168092919060010191906101000a81548160ff021916908360ff1602179055505080600160670160018303815481101515611eea57fe5b906000526020600020906002020160010160039054906101000a900460ff1660ff1614156120f8576002600160670160018303815481101515611f2957fe5b906000526020600020906002020160010160026101000a81548160ff021916908360ff1602179055507fc7823d86aed598df035ea41d58540dc0caa7333d677c1a973b63b28109812e976001600001600160670160018403815481101515611f8d57fe5b90600052602060002090600202016000016040518080602001806020018060200184810384528681815460018160011615610100020316600290048152602001915080546001816001161561010002031660029004801561202f5780601f106120045761010080835404028352916020019161202f565b820191906000526020600020905b81548152906001019060200180831161201257829003601f168201915b50508481038352858181546001816001161561010002031660029004815260200191508054600181600116156101000203166002900480156120b25780601f10612087576101008083540402835291602001916120b2565b820191906000526020600020905b81548152906001019060200180831161209557829003601f168201915b5050848103825260048152602001807f53554e4b000000000000000000000000000000000000000000000000000000008152506020019550505050505060405180910390a15b7fc853987460a693146896537e8c75eb17519cba9e2d443a1bbd33ccd6ae602c1861014060d86000016040518080602001806020018381038352858181546001816001161561010002031660029004815260200191508054600181600116156101000203166002900480156121ae5780601f10612183576101008083540402835291602001916121ae565b820191906000526020600020905b81548152906001019060200180831161219157829003601f168201915b50508381038252848181546001816001161561010002031660029004815260200191508054600181600116156101000203166002900480156122315780601f1061220657610100808354040283529160200191612231565b820191906000526020600020905b81548152906001019060200180831161221457829003601f168201915b505094505050505060405180910390a16122e760d86000018054600181600116156101000203166002900480601f0160208091040260200160405190810160405280929190818152602001828054600181600116156101000203166002900480156122dd5780601f106122b2576101008083540402835291602001916122dd565b820191906000526020600020905b8154815290600101906020018083116122c057829003601f168201915b505050505061272a565b1561240757600260d760006101000a81548160ff0219169083600281111561230b57fe5b02179055507f9bf3a3ee7743d8ce8ae78fd7450036ece624f1858a4af1b2ef0a509e14ec349360d8600001604051808060200180602001838103835260098152602001807f47616d6520576f6e2100000000000000000000000000000000000000000000008152506020018381038252848181546001816001161561010002031660029004815260200191508054600181600116156101000203166002900480156123f75780601f106123cc576101008083540402835291602001916123f7565b820191906000526020600020905b8154815290600101906020018083116123da57829003601f168201915b5050935050505060405180910390a15b61240f612d4c565b6101408054600181600116156101000203166002900480601f0160208091040260200160405190810160405280929190818152602001828054600181600116156101000203166002900480156124a65780601f1061247b576101008083540402835291602001916124a6565b820191906000526020600020905b81548152906001019060200180831161248957829003601f168201915b50505050509250612722565b6040805190810160405280600481526020017f4d4953530000000000000000000000000000000000000000000000000000000081525061014090805190602001906124fe92919061307f565b50600860ff1660016002018660ff16600a8110151561251957fe5b600a02018560ff16600a8110151561252d57fe5b01819055507fc853987460a693146896537e8c75eb17519cba9e2d443a1bbd33ccd6ae602c1861014060d86000016040518080602001806020018381038352858181546001816001161561010002031660029004815260200191508054600181600116156101000203166002900480156125e85780601f106125bd576101008083540402835291602001916125e8565b820191906000526020600020905b8154815290600101906020018083116125cb57829003601f168201915b505083810382528481815460018160011615610100020316600290048152602001915080546001816001161561010002031660029004801561266b5780601f106126405761010080835404028352916020019161266b565b820191906000526020600020905b81548152906001019060200180831161264e57829003601f168201915b505094505050505060405180910390a1612683612d4c565b6101408054600181600116156101000203166002900480601f01602080910402602001604051908101604052809291908181526020018280546001816001161561010002031660029004801561271a5780601f106126ef5761010080835404028352916020019161271a565b820191906000526020600020905b8154815290600101906020018083116126fd57829003601f168201915b505050505092505b505092915050565b6000806000600191506127da8460016000018054600181600116156101000203166002900480601f0160208091040260200160405190810160405280929190818152602001828054600181600116156101000203166002900480156127d05780601f106127a5576101008083540402835291602001916127d0565b820191906000526020600020905b8154815290600101906020018083116127b357829003601f168201915b5050505050610fff565b156129c957600090505b600360ff168110156129c8577f671efc4d453d098fce8b6582a19b67882ce6c84f47a69b1df623dcd5bd7fc2518460696067018381548110151561282457fe5b906000526020600020906002020160000160696067018481548110151561284757fe5b906000526020600020906002020160010160029054906101000a900460ff166040518080602001806020018460ff1660ff168152602001838103835286818151815260200191508051906020019080838360005b838110156128b657808201518184015260208101905061289b565b50505050905090810190601f1680156128e35780820380516001836020036101000a031916815260200191505b508381038252858181546001816001161561010002031660029004815260200191508054600181600116156101000203166002900480156129655780601f1061293a57610100808354040283529160200191612965565b820191906000526020600020905b81548152906001019060200180831161294857829003601f168201915b50509550505050505060405180910390a1600260ff1660696067018281548110151561298d57fe5b906000526020600020906002020160010160029054906101000a900460ff1660ff161415156129bb57600091505b80806001019150506127e4565b5b612a708460696000018054600181600116156101000203166002900480601f016020809104026020016040519081016040528092919081815260200182805460018160011615610100020316600290048015612a665780601f10612a3b57610100808354040283529160200191612a66565b820191906000526020600020905b815481529060010190602001808311612a4957829003601f168201915b5050505050610fff565b15612c5f57600090505b600360ff16811015612c5e577f671efc4d453d098fce8b6582a19b67882ce6c84f47a69b1df623dcd5bd7fc25184600160670183815481101515612aba57fe5b9060005260206000209060020201600001600160670184815481101515612add57fe5b906000526020600020906002020160010160029054906101000a900460ff166040518080602001806020018460ff1660ff168152602001838103835286818151815260200191508051906020019080838360005b83811015612b4c578082015181840152602081019050612b31565b50505050905090810190601f168015612b795780820380516001836020036101000a031916815260200191505b50838103825285818154600181600116156101000203166002900481526020019150805460018160011615610100020316600290048015612bfb5780601f10612bd057610100808354040283529160200191612bfb565b820191906000526020600020905b815481529060010190602001808311612bde57829003601f168201915b50509550505050505060405180910390a1600260ff16600160670182815481101515612c2357fe5b906000526020600020906002020160010160029054906101000a900460ff1660ff16141515612c5157600091505b8080600101915050612a7a565b5b600115158215151415612d42577f43e218a52ed7135da92840e41483c8c54d5d9ddbd14032901787304294237a7e84604051808060200180602001838103835260128152602001807f416c6c2073686970732073756e6b20666f720000000000000000000000000000815250602001838103825284818151815260200191508051906020019080838360005b83811015612d06578082015181840152602081019050612ceb565b50505050905090810190601f168015612d335780820380516001836020036101000a031916815260200191505b50935050505060405180910390a15b8192505050919050565b612e9060d86000018054600181600116156101000203166002900480601f016020809104026020016040519081016040528092919081815260200182805460018160011615610100020316600290048015612de85780601f10612dbd57610100808354040283529160200191612de8565b820191906000526020600020905b815481529060010190602001808311612dcb57829003601f168201915b505050505060016000018054600181600116156101000203166002900480601f016020809104026020016040519081016040528092919081815260200182805460018160011615610100020316600290048015612e865780601f10612e5b57610100808354040283529160200191612e86565b820191906000526020600020905b815481529060010190602001808311612e6957829003601f168201915b5050505050610fff565b15612f8b57606960d860008201816000019080546001816001161561010002031660029004612ec09291906130ff565b506001820160009054906101000a900473ffffffffffffffffffffffffffffffffffffffff168160010160006101000a81548173ffffffffffffffffffffffffffffffffffffffff021916908373ffffffffffffffffffffffffffffffffffffffff160217905550600282018160020190600a612f3e929190613186565b506066820160009054906101000a900460ff168160660160006101000a81548160ff0219169083151502179055506067820181606701908054612f829291906131d5565b5090505061307d565b600160d860008201816000019080546001816001161561010002031660029004612fb69291906130ff565b506001820160009054906101000a900473ffffffffffffffffffffffffffffffffffffffff168160010160006101000a81548173ffffffffffffffffffffffffffffffffffffffff021916908373ffffffffffffffffffffffffffffffffffffffff160217905550600282018160020190600a613034929190613186565b506066820160009054906101000a900460ff168160660160006101000a81548160ff02191690831515021790555060678201816067019080546130789291906131d5565b509050505b565b828054600181600116156101000203166002900490600052602060002090601f016020900481019282601f106130c057805160ff19168380011785556130ee565b828001600101855582156130ee579182015b828111156130ed5782518255916020019190600101906130d2565b5b5090506130fb919061330d565b5090565b828054600181600116156101000203166002900490600052602060002090601f016020900481019282601f106131385780548555613175565b8280016001018555821561317557600052602060002091601f016020900482015b82811115613174578254825591600101919060010190613159565b5b509050613182919061330d565b5090565b82600a800281019282156131c45791600a0282015b828111156131c357828290600a6131b3929190613332565b5091600a019190600a019061319b565b5b5090506131d1919061336f565b5090565b8280548282559060005260206000209060020281019282156132fc5760005260206000209160020282015b828111156132fb578282600082018160000190805460018160011615610100020316600290046132319291906130ff565b506001820160009054906101000a900460ff168160010160006101000a81548160ff021916908360ff1602179055506001820160019054906101000a900460ff168160010160016101000a81548160ff021916908360ff1602179055506001820160029054906101000a900460ff168160010160026101000a81548160ff021916908360ff1602179055506001820160039054906101000a900460ff168160010160036101000a81548160ff021916908360ff160217905550505091600201919060020190613200565b5b509050613309919061339b565b5090565b61332f91905b8082111561332b576000816000905550600101613313565b5090565b90565b82600a810192821561335e579182015b8281111561335d578254825591600101919060010190613342565b5b50905061336b919061330d565b5090565b61339891905b80821115613394576000818161338b919061341a565b50600a01613375565b5090565b90565b61341791905b8082111561341357600080820160006133ba919061342d565b6001820160006101000a81549060ff02191690556001820160016101000a81549060ff02191690556001820160026101000a81549060ff02191690556001820160036101000a81549060ff0219169055506002016133a1565b5090565b90565b5080600a019061342a919061330d565b50565b50805460018160011615610100020316600290046000825580601f106134535750613472565b601f016020900490600052602060002090810190613471919061330d565b5b505600a165627a7a7230582073950790de8097806260a35eca2423ac4c30c8ac5c346e7f3ec98c792db1f64d0029",
  "source": "pragma solidity ^0.4.23;\n\ncontract Battleship {\n\n  enum GameState {InPlay, PlacingShips, GameEnded}\n\n  uint8 constant BOARDSIZE = 10;\n\n  bool private stopped = false;\n  address private owner;\n\n struct ship {\n      string shipName;\n      uint8 shipLength;\n      uint8 shipCode;\n      uint8 shipStatus;\n      uint8 shipDamage;\n  }\n\n  struct playerState {\n      string playerName;\n      address playerAddr;\n      uint[BOARDSIZE][BOARDSIZE] boardMatrix;\n      bool isActive;\n      ship[] ships;\n  }\n\n  playerState player1;\n  playerState player2;\n\n  ship frigate;\n  ship submarine;\n  ship destroyer;\n\n  GameState gameState;\n\n  playerState currentPlayer;\n\n  string shotResult;\n\n  uint8 constant MISS = 8;\n  uint8 constant HIT = 9;\n\n  uint8 constant SHIP_FREE = 0;\n  uint8 constant SHIP_PLACED = 1;\n  uint8 constant SHIP_SUNK = 2;\n\n  uint8 constant HORIZONTAL = 0;\n  uint8 constant VERTICAL = 1;\n\n  uint8 constant NUM_OF_SHIPS = 3;\n\n   constructor() public {\n    gameState = GameState.GameEnded;\n\n    frigate.shipName = \"FRIGATE\";\n    frigate.shipLength = 1;\n    frigate.shipCode = frigate.shipLength;\n    frigate.shipStatus = SHIP_FREE;\n    submarine.shipName = \"SUBMARINE\";\n    submarine.shipLength = 2;\n    submarine.shipCode = submarine.shipLength;\n    submarine.shipStatus = SHIP_FREE;\n    destroyer.shipName = \"DESTROYER\";\n    destroyer.shipLength = 3;\n    destroyer.shipCode = destroyer.shipLength;\n    destroyer.shipStatus = SHIP_FREE;\n\n    player1.ships.push(frigate);\n    player1.ships.push(submarine);\n    player1.ships.push(destroyer);\n    player2.ships.push(frigate);\n    player2.ships.push(submarine);\n    player2.ships.push(destroyer);\n\n  }\n\n  event LogShotResult(string, string);\n  event LogPlaceLegality(string, string);\n  event LogShipStartStop(uint,uint);\n  event LogAllShipsPlaced(string);\n  event LogShipPlaced(string,uint,uint,uint);\n  event LogCurrentShip(string,string,uint);\n  event LogShipSunk(string,string,string);\n  event LogGameWon(string,string);\n  event LogAllShipsSunk(string,string);\n  event LogCheckShipStatus(string,string,uint8);\n\n  modifier isAdmin() {\n    if(msg.sender != owner) {\n        throw;\n    }\n    _;\n  }\n\n  modifier stopInEmergency { if (!stopped) _; }\n\n  modifier onlyInEmergency { if (stopped) _; }\n\n  modifier isGameInPlay {\n    require(gameState == GameState.InPlay);\n    _;\n  }\n\n modifier hasGameEnded {\n    require(gameState == GameState.GameEnded);\n    _;\n  }\n\n  modifier playersRegistered {\n      require(gameState == GameState.PlacingShips);\n      _;\n  }\n\n  function returnPlayers() constant public returns (string,string) {\n    return (player1.playerName, player2.playerName);\n  }\n\n  function toggleContractActive() isAdmin public\n  {\n    stopped = !stopped;\n  }\n\n  function registerPlayer(string playerName) public {\n\n    bytes memory tempEmptyStringTest = bytes(player1.playerName);\n\n    if (tempEmptyStringTest.length == 0) {\n      player1.playerAddr = msg.sender;\n      player1.playerName = playerName;\n      currentPlayer = player1;\n    } else {\n      player2.playerAddr = msg.sender;\n      player2.playerName = playerName;\n      gameState = GameState.PlacingShips;\n    }\n\n  }\n\n  function placeShip(uint8 x, uint8 y, string shipType, string playerName, uint8 direction) public playersRegistered {\n\n      ship currentShip;\n\n      //player1.playerName = \"Chris\";\n\n      playerState placingPlayer;\n\n      if (compareStrings(playerName, player1.playerName)) {\n          placingPlayer = player1;\n      } else {\n          placingPlayer = player2;\n      }\n\n      if (compareStrings(shipType, frigate.shipName)) {\n          currentShip = placingPlayer.ships[0];\n      } else if (compareStrings(shipType, submarine.shipName)) {\n          currentShip = placingPlayer.ships[1];\n        } else if (compareStrings(shipType, destroyer.shipName)) {\n              currentShip = placingPlayer.ships[2];\n          }\n      emit LogCurrentShip(\"Current ship is\",currentShip.shipName, currentShip.shipCode);\n\n      uint startSquareX = x;\n      uint endSquareX = x+currentShip.shipLength;\n      uint startSquareY = y;\n      uint endSquareY = y+currentShip.shipLength;\n\n      require(x >= 0 && y >= 0);\n      require(endSquareX < BOARDSIZE && endSquareY < BOARDSIZE);\n      require(currentShip.shipStatus == SHIP_FREE);\n\n\n\n            if (direction == HORIZONTAL) {\n              for (uint i=startSquareX; i<endSquareX; i++) {\n                require(currentPlayer.boardMatrix[i][y] == 0);\n                placingPlayer.boardMatrix[i][y] = currentShip.shipCode;\n                currentShip.shipStatus = SHIP_PLACED;\n                emit LogShipPlaced(\"Ship placed at location\",i,y,currentShip.shipCode);\n              }\n            } else {\n              for (i=startSquareY; i<endSquareY; i++) {\n                require(currentPlayer.boardMatrix[x][i] == 0);\n                placingPlayer.boardMatrix[x][i] = currentShip.shipCode;\n                currentShip.shipStatus = SHIP_PLACED;\n              }\n            }\n\n      bool allShipsPlaced = true;\n      for (i=0; i<player1.ships.length; i++) {\n          if (player1.ships[i].shipStatus == SHIP_FREE) {\n            allShipsPlaced = false;\n          }\n      }\n      for (i=0; i<player2.ships.length; i++) {\n        if (player2.ships[i].shipStatus == SHIP_FREE) {\n          allShipsPlaced = false;\n        }\n      }\n\n      if (allShipsPlaced == true) {\n          emit LogAllShipsPlaced(\"All Ships Placed\");\n          gameState = GameState.InPlay;\n      }\n  }\n\n  function switchCurrentPlayer() internal {\n      if (compareStrings(currentPlayer.playerName, player1.playerName)) {\n          currentPlayer = player2;\n      } else {\n          currentPlayer = player1;\n      }\n  }\n\n  function checkIfWon(string playerName_) private returns (bool) {\n\n      bool allShipsSunk = true;\n\n      if (compareStrings(playerName_, player1.playerName)) {\n          for (uint i=0; i<NUM_OF_SHIPS; i++) {\n            emit LogCheckShipStatus(playerName_,player2.ships[i].shipName,player2.ships[i].shipStatus);\n            if (player2.ships[i].shipStatus != SHIP_SUNK) {\n              allShipsSunk = false;\n            }\n           }\n      }\n\n      if (compareStrings(playerName_, player2.playerName)) {\n          for (i=0; i<NUM_OF_SHIPS; i++) {\n            emit LogCheckShipStatus(playerName_,player1.ships[i].shipName,player1.ships[i].shipStatus);\n            if (player1.ships[i].shipStatus != SHIP_SUNK) {\n              allShipsSunk = false;\n            }\n           }\n      }\n\n      if (allShipsSunk == true) {\n          emit LogAllShipsSunk(\"All ships sunk for\", playerName_);\n      }\n\n      return allShipsSunk;\n  }\n\n  function fireShot(uint8 x, uint8 y) isGameInPlay public returns (string) {\n\n      if (compareStrings(currentPlayer.playerName, player1.playerName)) {\n          if (player2.boardMatrix[x][y] >= 1 && player2.boardMatrix[x][y] <= 5) {\n              shotResult = \"HIT\";\n              uint player2ShipType = player2.boardMatrix[x][y];\n\n              player2.boardMatrix[x][y] = HIT;\n              player2.ships[player2ShipType-1].shipDamage++;\n              if (player2.ships[player2ShipType-1].shipDamage == player2ShipType) {\n                  player2.ships[player2ShipType-1].shipStatus = SHIP_SUNK;\n                  emit LogShipSunk(player2.playerName, player2.ships[player2ShipType-1].shipName, \"SUNK\");\n              }\n\n              emit LogShotResult(shotResult,currentPlayer.playerName);\n              if (checkIfWon(currentPlayer.playerName)) {\n                  gameState = GameState.GameEnded;\n                  emit LogGameWon(\"Game Won!\",currentPlayer.playerName);\n              }\n              switchCurrentPlayer();\n              return (shotResult);\n          } else {\n              shotResult = \"MISS\";\n              player2.boardMatrix[x][y] = MISS;\n              emit LogShotResult(shotResult,currentPlayer.playerName);\n\n              switchCurrentPlayer();\n              return (shotResult);\n          }\n      } else {\n          if (player1.boardMatrix[x][y] >= 1 && player1.boardMatrix[x][y] <= 5) {\n              shotResult = \"HIT\";\n              uint player1ShipType = player1.boardMatrix[x][y];\n\n              player1.boardMatrix[x][y] = HIT;\n              player1.ships[player1ShipType-1].shipDamage++;\n              if (player1.ships[player1ShipType-1].shipDamage == player1ShipType) {\n                  player1.ships[player1ShipType-1].shipStatus = SHIP_SUNK;\n                  emit LogShipSunk(player1.playerName, player1.ships[player1ShipType-1].shipName, \"SUNK\");\n              }\n              emit LogShotResult(shotResult,currentPlayer.playerName);\n              if (checkIfWon(currentPlayer.playerName)) {\n                  gameState = GameState.GameEnded;\n                  emit LogGameWon(\"Game Won!\", currentPlayer.playerName);\n              }\n              switchCurrentPlayer();\n              return shotResult;\n          } else {\n              shotResult = 'MISS';\n              player1.boardMatrix[x][y] = MISS;\n              emit LogShotResult(shotResult,currentPlayer.playerName);\n              switchCurrentPlayer();\n              return shotResult;\n          }\n      }\n  }\n\n  function compareStrings (string a, string b) view returns (bool) {\n       return keccak256(a) == keccak256(b);\n  }\n\n\n}\n",
  "sourcePath": "/Users/chrismilner/Documents/Bluemoon Consulting/projects/Battleship-Final/contracts/Battleship.sol",
  "compiler": {
    "name": "solc",
    "version": "0.4.24+commit.e67f0147.Emscripten.clang"
  },
  "schemaVersion": "2.0.0",
  "updatedAt": "2018-08-28T07:45:08.781Z"
}