{
  "contractName": "Battleship",
  "abi": [
    {
      "inputs": [],
      "payable": false,
      "stateMutability": "nonpayable",
      "type": "constructor"
    },
    {
      "anonymous": false,
      "inputs": [
        {
          "indexed": false,
          "name": "",
          "type": "string"
        },
        {
          "indexed": false,
          "name": "",
          "type": "string"
        }
      ],
      "name": "LogShotResult",
      "type": "event"
    },
    {
      "anonymous": false,
      "inputs": [
        {
          "indexed": false,
          "name": "",
          "type": "string"
        },
        {
          "indexed": false,
          "name": "",
          "type": "string"
        }
      ],
      "name": "LogPlaceLegality",
      "type": "event"
    },
    {
      "anonymous": false,
      "inputs": [
        {
          "indexed": false,
          "name": "",
          "type": "uint256"
        },
        {
          "indexed": false,
          "name": "",
          "type": "uint256"
        }
      ],
      "name": "LogShipStartStop",
      "type": "event"
    },
    {
      "anonymous": false,
      "inputs": [
        {
          "indexed": false,
          "name": "",
          "type": "string"
        }
      ],
      "name": "LogAllShipsPlaced",
      "type": "event"
    },
    {
      "anonymous": false,
      "inputs": [
        {
          "indexed": false,
          "name": "",
          "type": "string"
        },
        {
          "indexed": false,
          "name": "",
          "type": "uint256"
        },
        {
          "indexed": false,
          "name": "",
          "type": "uint256"
        },
        {
          "indexed": false,
          "name": "",
          "type": "uint256"
        }
      ],
      "name": "LogShipPlaced",
      "type": "event"
    },
    {
      "anonymous": false,
      "inputs": [
        {
          "indexed": false,
          "name": "",
          "type": "string"
        },
        {
          "indexed": false,
          "name": "",
          "type": "string"
        },
        {
          "indexed": false,
          "name": "",
          "type": "uint256"
        }
      ],
      "name": "LogCurrentShip",
      "type": "event"
    },
    {
      "anonymous": false,
      "inputs": [
        {
          "indexed": false,
          "name": "",
          "type": "string"
        },
        {
          "indexed": false,
          "name": "",
          "type": "string"
        },
        {
          "indexed": false,
          "name": "",
          "type": "string"
        }
      ],
      "name": "LogShipSunk",
      "type": "event"
    },
    {
      "anonymous": false,
      "inputs": [
        {
          "indexed": false,
          "name": "",
          "type": "string"
        },
        {
          "indexed": false,
          "name": "",
          "type": "string"
        }
      ],
      "name": "LogGameWon",
      "type": "event"
    },
    {
      "anonymous": false,
      "inputs": [
        {
          "indexed": false,
          "name": "",
          "type": "string"
        },
        {
          "indexed": false,
          "name": "",
          "type": "string"
        }
      ],
      "name": "LogAllShipsSunk",
      "type": "event"
    },
    {
      "anonymous": false,
      "inputs": [
        {
          "indexed": false,
          "name": "",
          "type": "string"
        },
        {
          "indexed": false,
          "name": "",
          "type": "string"
        },
        {
          "indexed": false,
          "name": "",
          "type": "uint8"
        }
      ],
      "name": "LogCheckShipStatus",
      "type": "event"
    },
    {
      "constant": true,
      "inputs": [],
      "name": "returnPlayers",
      "outputs": [
        {
          "name": "",
          "type": "string"
        },
        {
          "name": "",
          "type": "string"
        }
      ],
      "payable": false,
      "stateMutability": "view",
      "type": "function"
    },
    {
      "constant": false,
      "inputs": [
        {
          "name": "playerName",
          "type": "string"
        }
      ],
      "name": "registerPlayer",
      "outputs": [],
      "payable": false,
      "stateMutability": "nonpayable",
      "type": "function"
    },
    {
      "constant": false,
      "inputs": [
        {
          "name": "x",
          "type": "uint8"
        },
        {
          "name": "y",
          "type": "uint8"
        },
        {
          "name": "shipType",
          "type": "string"
        },
        {
          "name": "playerName",
          "type": "string"
        },
        {
          "name": "direction",
          "type": "uint8"
        }
      ],
      "name": "placeShip",
      "outputs": [],
      "payable": false,
      "stateMutability": "nonpayable",
      "type": "function"
    },
    {
      "constant": false,
      "inputs": [
        {
          "name": "playerName_",
          "type": "string"
        }
      ],
      "name": "checkIfWon",
      "outputs": [
        {
          "name": "",
          "type": "bool"
        }
      ],
      "payable": false,
      "stateMutability": "nonpayable",
      "type": "function"
    },
    {
      "constant": false,
      "inputs": [
        {
          "name": "x",
          "type": "uint8"
        },
        {
          "name": "y",
          "type": "uint8"
        }
      ],
      "name": "fireShot",
      "outputs": [
        {
          "name": "",
          "type": "string"
        }
      ],
      "payable": false,
      "stateMutability": "nonpayable",
      "type": "function"
    },
    {
      "constant": true,
      "inputs": [
        {
          "name": "playerName_",
          "type": "string"
        }
      ],
      "name": "returnBoard",
      "outputs": [
        {
          "name": "",
          "type": "uint256"
        }
      ],
      "payable": false,
      "stateMutability": "view",
      "type": "function"
    },
    {
      "constant": true,
      "inputs": [
        {
          "name": "a",
          "type": "string"
        },
        {
          "name": "b",
          "type": "string"
        }
      ],
      "name": "compareStrings",
      "outputs": [
        {
          "name": "",
          "type": "bool"
        }
      ],
      "payable": false,
      "stateMutability": "view",
      "type": "function"
    }
  ],
  "bytecode": "0x60806040523480156200001157600080fd5b50600160d660006101000a81548160ff021916908360028111156200003257fe5b02179055506040805190810160405280600781526020017f465249474154450000000000000000000000000000000000000000000000000081525060d060000190805190602001906200008792919062000904565b50600160d060010160006101000a81548160ff021916908360ff16021790555060d060010160009054906101000a900460ff1660d060010160016101000a81548160ff021916908360ff160217905550600060d060010160026101000a81548160ff021916908360ff1602179055506040805190810160405280600981526020017f5355424d4152494e45000000000000000000000000000000000000000000000081525060d260000190805190602001906200014692919062000904565b50600260d260010160006101000a81548160ff021916908360ff16021790555060d260010160009054906101000a900460ff1660d260010160016101000a81548160ff021916908360ff160217905550600060d260010160026101000a81548160ff021916908360ff1602179055506040805190810160405280600981526020017f44455354524f594552000000000000000000000000000000000000000000000081525060d460000190805190602001906200020592919062000904565b50600360d460010160006101000a81548160ff021916908360ff16021790555060d460010160009054906101000a900460ff1660d460010160016101000a81548160ff021916908360ff160217905550600060d460010160026101000a81548160ff021916908360ff160217905550600060670160d09080600181540180825580915050906001820390600052602060002090600202016000909192909190915060008201816000019080546001816001161561010002031660029004620002cf9291906200098b565b506001820160009054906101000a900460ff168160010160006101000a81548160ff021916908360ff1602179055506001820160019054906101000a900460ff168160010160016101000a81548160ff021916908360ff1602179055506001820160029054906101000a900460ff168160010160026101000a81548160ff021916908360ff1602179055506001820160039054906101000a900460ff168160010160036101000a81548160ff021916908360ff160217905550505050600060670160d29080600181540180825580915050906001820390600052602060002090600202016000909192909190915060008201816000019080546001816001161561010002031660029004620003e69291906200098b565b506001820160009054906101000a900460ff168160010160006101000a81548160ff021916908360ff1602179055506001820160019054906101000a900460ff168160010160016101000a81548160ff021916908360ff1602179055506001820160029054906101000a900460ff168160010160026101000a81548160ff021916908360ff1602179055506001820160039054906101000a900460ff168160010160036101000a81548160ff021916908360ff160217905550505050600060670160d49080600181540180825580915050906001820390600052602060002090600202016000909192909190915060008201816000019080546001816001161561010002031660029004620004fd9291906200098b565b506001820160009054906101000a900460ff168160010160006101000a81548160ff021916908360ff1602179055506001820160019054906101000a900460ff168160010160016101000a81548160ff021916908360ff1602179055506001820160029054906101000a900460ff168160010160026101000a81548160ff021916908360ff1602179055506001820160039054906101000a900460ff168160010160036101000a81548160ff021916908360ff160217905550505050606860670160d09080600181540180825580915050906001820390600052602060002090600202016000909192909190915060008201816000019080546001816001161561010002031660029004620006149291906200098b565b506001820160009054906101000a900460ff168160010160006101000a81548160ff021916908360ff1602179055506001820160019054906101000a900460ff168160010160016101000a81548160ff021916908360ff1602179055506001820160029054906101000a900460ff168160010160026101000a81548160ff021916908360ff1602179055506001820160039054906101000a900460ff168160010160036101000a81548160ff021916908360ff160217905550505050606860670160d290806001815401808255809150509060018203906000526020600020906002020160009091929091909150600082018160000190805460018160011615610100020316600290046200072b9291906200098b565b506001820160009054906101000a900460ff168160010160006101000a81548160ff021916908360ff1602179055506001820160019054906101000a900460ff168160010160016101000a81548160ff021916908360ff1602179055506001820160029054906101000a900460ff168160010160026101000a81548160ff021916908360ff1602179055506001820160039054906101000a900460ff168160010160036101000a81548160ff021916908360ff160217905550505050606860670160d49080600181540180825580915050906001820390600052602060002090600202016000909192909190915060008201816000019080546001816001161561010002031660029004620008429291906200098b565b506001820160009054906101000a900460ff168160010160006101000a81548160ff021916908360ff1602179055506001820160019054906101000a900460ff168160010160016101000a81548160ff021916908360ff1602179055506001820160029054906101000a900460ff168160010160026101000a81548160ff021916908360ff1602179055506001820160039054906101000a900460ff168160010160036101000a81548160ff021916908360ff16021790555050505062000a41565b828054600181600116156101000203166002900490600052602060002090601f016020900481019282601f106200094757805160ff191683800117855562000978565b8280016001018555821562000978579182015b82811115620009775782518255916020019190600101906200095a565b5b50905062000987919062000a19565b5090565b828054600181600116156101000203166002900490600052602060002090601f016020900481019282601f10620009c6578054855562000a06565b8280016001018555821562000a0657600052602060002091601f016020900482015b8281111562000a05578254825591600101919060010190620009e8565b5b50905062000a15919062000a19565b5090565b62000a3e91905b8082111562000a3a57600081600090555060010162000a20565b5090565b90565b61363f8062000a516000396000f300608060405260043610610083576000357c0100000000000000000000000000000000000000000000000000000000900463ffffffff1680632f1661e014610088578063b3446f8514610109578063bc2d105e14610172578063bed34bba14610248578063d472b87f1461030f578063df195d041461040b578063f6a02cec146104c1575b600080fd5b34801561009457600080fd5b506100ef600480360381019080803590602001908201803590602001908080601f016020809104026020016040519081016040528093929190818152602001838380828437820191505050505050919291929050505061053e565b604051808215151515815260200191505060405180910390f35b34801561011557600080fd5b50610170600480360381019080803590602001908201803590602001908080601f0160208091040260200160405190810160405280939291908181526020018383808284378201915050505050509192919290505050610b5f565b005b34801561017e57600080fd5b50610246600480360381019080803560ff169060200190929190803560ff169060200190929190803590602001908201803590602001908080601f0160208091040260200160405190810160405280939291908181526020018383808284378201915050505050509192919290803590602001908201803590602001908080601f0160208091040260200160405190810160405280939291908181526020018383808284378201915050505050509192919290803560ff169060200190929190505050610de4565b005b34801561025457600080fd5b506102f5600480360381019080803590602001908201803590602001908080601f0160208091040260200160405190810160405280939291908181526020018383808284378201915050505050509192919290803590602001908201803590602001908080601f016020809104026020016040519081016040528093929190818152602001838380828437820191505050505050919291929050505061168a565b604051808215151515815260200191505060405180910390f35b34801561031b57600080fd5b50610324611763565b604051808060200180602001838103835285818151815260200191508051906020019080838360005b8381101561036857808201518184015260208101905061034d565b50505050905090810190601f1680156103955780820380516001836020036101000a031916815260200191505b50838103825284818151815260200191508051906020019080838360005b838110156103ce5780820151818401526020810190506103b3565b50505050905090810190601f1680156103fb5780820380516001836020036101000a031916815260200191505b5094505050505060405180910390f35b34801561041757600080fd5b50610446600480360381019080803560ff169060200190929190803560ff1690602001909291905050506118e3565b6040518080602001828103825283818151815260200191508051906020019080838360005b8381101561048657808201518184015260208101905061046b565b50505050905090810190601f1680156104b35780820380516001836020036101000a031916815260200191505b509250505060405180910390f35b3480156104cd57600080fd5b50610528600480360381019080803590602001908201803590602001908080601f0160208091040260200160405190810160405280939291908181526020018383808284378201915050505050509192919290505050612de7565b6040518082815260200191505060405180910390f35b6000806000600191506105ed84600080018054600181600116156101000203166002900480601f0160208091040260200160405190810160405280929190818152602001828054600181600116156101000203166002900480156105e35780601f106105b8576101008083540402835291602001916105e3565b820191906000526020600020905b8154815290600101906020018083116105c657829003601f168201915b505050505061168a565b156107dc57600090505b600360ff168110156107db577f671efc4d453d098fce8b6582a19b67882ce6c84f47a69b1df623dcd5bd7fc2518460686067018381548110151561063757fe5b906000526020600020906002020160000160686067018481548110151561065a57fe5b906000526020600020906002020160010160029054906101000a900460ff166040518080602001806020018460ff1660ff168152602001838103835286818151815260200191508051906020019080838360005b838110156106c95780820151818401526020810190506106ae565b50505050905090810190601f1680156106f65780820380516001836020036101000a031916815260200191505b508381038252858181546001816001161561010002031660029004815260200191508054600181600116156101000203166002900480156107785780601f1061074d57610100808354040283529160200191610778565b820191906000526020600020905b81548152906001019060200180831161075b57829003601f168201915b50509550505050505060405180910390a1600260ff166068606701828154811015156107a057fe5b906000526020600020906002020160010160029054906101000a900460ff1660ff161415156107ce57600091505b80806001019150506105f7565b5b6108838460686000018054600181600116156101000203166002900480601f0160208091040260200160405190810160405280929190818152602001828054600181600116156101000203166002900480156108795780601f1061084e57610100808354040283529160200191610879565b820191906000526020600020905b81548152906001019060200180831161085c57829003601f168201915b505050505061168a565b15610a7257600090505b600360ff16811015610a71577f671efc4d453d098fce8b6582a19b67882ce6c84f47a69b1df623dcd5bd7fc251846000606701838154811015156108cd57fe5b90600052602060002090600202016000016000606701848154811015156108f057fe5b906000526020600020906002020160010160029054906101000a900460ff166040518080602001806020018460ff1660ff168152602001838103835286818151815260200191508051906020019080838360005b8381101561095f578082015181840152602081019050610944565b50505050905090810190601f16801561098c5780820380516001836020036101000a031916815260200191505b50838103825285818154600181600116156101000203166002900481526020019150805460018160011615610100020316600290048015610a0e5780601f106109e357610100808354040283529160200191610a0e565b820191906000526020600020905b8154815290600101906020018083116109f157829003601f168201915b50509550505050505060405180910390a1600260ff16600060670182815481101515610a3657fe5b906000526020600020906002020160010160029054906101000a900460ff1660ff16141515610a6457600091505b808060010191505061088d565b5b600115158215151415610b55577f43e218a52ed7135da92840e41483c8c54d5d9ddbd14032901787304294237a7e84604051808060200180602001838103835260128152602001807f416c6c2073686970732073756e6b20666f720000000000000000000000000000815250602001838103825284818151815260200191508051906020019080838360005b83811015610b19578082015181840152602081019050610afe565b50505050905090810190601f168015610b465780820380516001836020036101000a031916815260200191505b50935050505060405180910390a15b8192505050919050565b6060600080018054600181600116156101000203166002900480601f016020809104026020016040519081016040528092919081815260200182805460018160011615610100020316600290048015610bf95780601f10610bce57610100808354040283529160200191610bf9565b820191906000526020600020905b815481529060010190602001808311610bdc57829003601f168201915b50505050509050600081511415610d5d5733600060010160006101000a81548173ffffffffffffffffffffffffffffffffffffffff021916908373ffffffffffffffffffffffffffffffffffffffff16021790555081600080019080519060200190610c6692919061321d565b50600060d760008201816000019080546001816001161561010002031660029004610c9292919061329d565b506001820160009054906101000a900473ffffffffffffffffffffffffffffffffffffffff168160010160006101000a81548173ffffffffffffffffffffffffffffffffffffffff021916908373ffffffffffffffffffffffffffffffffffffffff160217905550600282018160020190600a610d10929190613324565b506066820160009054906101000a900460ff168160660160006101000a81548160ff0219169083151502179055506067820181606701908054610d54929190613373565b50905050610de0565b33606860010160006101000a81548173ffffffffffffffffffffffffffffffffffffffff021916908373ffffffffffffffffffffffffffffffffffffffff1602179055508160686000019080519060200190610dba92919061321d565b50600160d660006101000a81548160ff02191690836002811115610dda57fe5b02179055505b5050565b60008060008060008060008060016002811115610dfd57fe5b60d660009054906101000a900460ff166002811115610e1857fe5b141515610e2457600080fd5b610eca8a600080018054600181600116156101000203166002900480601f016020809104026020016040519081016040528092919081815260200182805460018160011615610100020316600290048015610ec05780601f10610e9557610100808354040283529160200191610ec0565b820191906000526020600020905b815481529060010190602001808311610ea357829003601f168201915b505050505061168a565b15610ed85760009650610edd565b606896505b610f848b60d06000018054600181600116156101000203166002900480601f016020809104026020016040519081016040528092919081815260200182805460018160011615610100020316600290048015610f7a5780601f10610f4f57610100808354040283529160200191610f7a565b820191906000526020600020905b815481529060010190602001808311610f5d57829003601f168201915b505050505061168a565b15610fb057866067016000815481101515610f9b57fe5b90600052602060002090600202019750611154565b6110578b60d26000018054600181600116156101000203166002900480601f01602080910402602001604051908101604052809291908181526020018280546001816001161561010002031660029004801561104d5780601f106110225761010080835404028352916020019161104d565b820191906000526020600020905b81548152906001019060200180831161103057829003601f168201915b505050505061168a565b156110835786606701600181548110151561106e57fe5b90600052602060002090600202019750611153565b61112a8b60d46000018054600181600116156101000203166002900480601f0160208091040260200160405190810160405280929190818152602001828054600181600116156101000203166002900480156111205780601f106110f557610100808354040283529160200191611120565b820191906000526020600020905b81548152906001019060200180831161110357829003601f168201915b505050505061168a565b156111525786606701600281548110151561114157fe5b906000526020600020906002020197505b5b5b7f85afe4fc04986b6cead49a25b21c3e8f8d92d902967e3fdb2491123dad04fc8c886000018960010160019054906101000a900460ff166040518080602001806020018460ff1681526020018381038352600f8152602001807f43757272656e74207368697020697300000000000000000000000000000000008152506020018381038252858181546001816001161561010002031660029004815260200191508054600181600116156101000203166002900480156112555780601f1061122a57610100808354040283529160200191611255565b820191906000526020600020905b81548152906001019060200180831161123857829003601f168201915b505094505050505060405180910390a18c60ff1695508760010160009054906101000a900460ff168d0160ff1694508b60ff1693508760010160009054906101000a900460ff168c0160ff16925060008d60ff16101580156112bb575060008c60ff1610155b15156112c657600080fd5b600a60ff16851080156112dc5750600a60ff1683105b15156112e757600080fd5b600060ff168860010160029054906101000a900460ff1660ff1614151561130d57600080fd5b600060ff168960ff161415611464578591505b8482101561145f57600060d760020183600a8110151561133c57fe5b600a02018d60ff16600a8110151561135057fe5b015414151561135e57600080fd5b8760010160019054906101000a900460ff1660ff168760020183600a8110151561138457fe5b600a02018d60ff16600a8110151561139857fe5b018190555060018860010160026101000a81548160ff021916908360ff1602179055507f7640287f811ab1b4e37aaf4739f0b3d8f87a9e7efd4369dc5826ec5edaa8fc74828d8a60010160019054906101000a900460ff1660405180806020018581526020018460ff1681526020018360ff168152602001828103825260178152602001807f5368697020706c61636564206174206c6f636174696f6e00000000000000000081525060200194505050505060405180910390a18180600101925050611320565b611511565b8391505b8282101561151057600060d76002018e60ff16600a8110151561148757fe5b600a020183600a8110151561149857fe5b01541415156114a657600080fd5b8760010160019054906101000a900460ff1660ff16876002018e60ff16600a811015156114cf57fe5b600a020183600a811015156114e057fe5b018190555060018860010160026101000a81548160ff021916908360ff1602179055508180600101925050611468565b5b60019050600091505b60006067018054905082101561157b57600060ff1660006067018381548110151561154157fe5b906000526020600020906002020160010160029054906101000a900460ff1660ff16141561156e57600090505b818060010192505061151a565b600091505b6068606701805490508210156115e157600060ff166068606701838154811015156115a757fe5b906000526020600020906002020160010160029054906101000a900460ff1660ff1614156115d457600090505b8180600101925050611580565b60011515811515141561167b577f9af59cc428db7b85fee9d4f846623c39c1728a0cc1259e15df1bfd974540366f6040518080602001828103825260108152602001807f416c6c20536869707320506c616365640000000000000000000000000000000081525060200191505060405180910390a1600060d660006101000a81548160ff0219169083600281111561167557fe5b02179055505b50505050505050505050505050565b6000816040518082805190602001908083835b6020831015156116c2578051825260208201915060208101905060208303925061169d565b6001836020036101000a038019825116818451168082178552505050505050905001915050604051809103902060001916836040518082805190602001908083835b6020831015156117295780518252602082019150602081019050602083039250611704565b6001836020036101000a03801982511681845116808217855250505050505090500191505060405180910390206000191614905092915050565b6060806001600281111561177357fe5b60d660009054906101000a900460ff16600281111561178e57fe5b14151561179a57600080fd5b600080016068600001818054600181600116156101000203166002900480601f0160208091040260200160405190810160405280929190818152602001828054600181600116156101000203166002900480156118385780601f1061180d57610100808354040283529160200191611838565b820191906000526020600020905b81548152906001019060200180831161181b57829003601f168201915b50505050509150808054600181600116156101000203166002900480601f0160208091040260200160405190810160405280929190818152602001828054600181600116156101000203166002900480156118d45780601f106118a9576101008083540402835291602001916118d4565b820191906000526020600020905b8154815290600101906020018083116118b757829003601f168201915b50505050509050915091509091565b6060600080600060028111156118f557fe5b60d660009054906101000a900460ff16600281111561191057fe5b14151561191c57600080fd5b611a5f60d76000018054600181600116156101000203166002900480601f0160208091040260200160405190810160405280929190818152602001828054600181600116156101000203166002900480156119b85780601f1061198d576101008083540402835291602001916119b8565b820191906000526020600020905b81548152906001019060200180831161199b57829003601f168201915b5050505050600080018054600181600116156101000203166002900480601f016020809104026020016040519081016040528092919081815260200182805460018160011615610100020316600290048015611a555780601f10611a2a57610100808354040283529160200191611a55565b820191906000526020600020905b815481529060010190602001808311611a3857829003601f168201915b505050505061168a565b1561242457600160686002018660ff16600a81101515611a7b57fe5b600a02018560ff16600a81101515611a8f57fe5b015410158015611aca5750600560686002018660ff16600a81101515611ab157fe5b600a02018560ff16600a81101515611ac557fe5b015411155b156121b0576040805190810160405280600381526020017f484954000000000000000000000000000000000000000000000000000000000081525061013f9080519060200190611b1b92919061321d565b5060686002018560ff16600a81101515611b3157fe5b600a02018460ff16600a81101515611b4557fe5b01549150600960ff1660686002018660ff16600a81101515611b6357fe5b600a02018560ff16600a81101515611b7757fe5b0181905550606860670160018303815481101515611b9157fe5b9060005260206000209060020201600101600381819054906101000a900460ff168092919060010191906101000a81548160ff021916908360ff1602179055505081606860670160018403815481101515611be857fe5b906000526020600020906002020160010160039054906101000a900460ff1660ff161415611df6576002606860670160018403815481101515611c2757fe5b906000526020600020906002020160010160026101000a81548160ff021916908360ff1602179055507fc7823d86aed598df035ea41d58540dc0caa7333d677c1a973b63b28109812e976068600001606860670160018503815481101515611c8b57fe5b906000526020600020906002020160000160405180806020018060200180602001848103845286818154600181600116156101000203166002900481526020019150805460018160011615610100020316600290048015611d2d5780601f10611d0257610100808354040283529160200191611d2d565b820191906000526020600020905b815481529060010190602001808311611d1057829003601f168201915b5050848103835285818154600181600116156101000203166002900481526020019150805460018160011615610100020316600290048015611db05780601f10611d8557610100808354040283529160200191611db0565b820191906000526020600020905b815481529060010190602001808311611d9357829003601f168201915b5050848103825260048152602001807f53554e4b000000000000000000000000000000000000000000000000000000008152506020019550505050505060405180910390a15b7fc853987460a693146896537e8c75eb17519cba9e2d443a1bbd33ccd6ae602c1861013f60d7600001604051808060200180602001838103835285818154600181600116156101000203166002900481526020019150805460018160011615610100020316600290048015611eac5780601f10611e8157610100808354040283529160200191611eac565b820191906000526020600020905b815481529060010190602001808311611e8f57829003601f168201915b5050838103825284818154600181600116156101000203166002900481526020019150805460018160011615610100020316600290048015611f2f5780601f10611f0457610100808354040283529160200191611f2f565b820191906000526020600020905b815481529060010190602001808311611f1257829003601f168201915b505094505050505060405180910390a1611fe560d76000018054600181600116156101000203166002900480601f016020809104026020016040519081016040528092919081815260200182805460018160011615610100020316600290048015611fdb5780601f10611fb057610100808354040283529160200191611fdb565b820191906000526020600020905b815481529060010190602001808311611fbe57829003601f168201915b505050505061053e565b1561210557600260d660006101000a81548160ff0219169083600281111561200957fe5b02179055507f9bf3a3ee7743d8ce8ae78fd7450036ece624f1858a4af1b2ef0a509e14ec349360d7600001604051808060200180602001838103835260098152602001807f47616d6520576f6e2100000000000000000000000000000000000000000000008152506020018381038252848181546001816001161561010002031660029004815260200191508054600181600116156101000203166002900480156120f55780601f106120ca576101008083540402835291602001916120f5565b820191906000526020600020905b8154815290600101906020018083116120d857829003601f168201915b5050935050505060405180910390a15b61210d612eeb565b61013f8054600181600116156101000203166002900480601f0160208091040260200160405190810160405280929190818152602001828054600181600116156101000203166002900480156121a45780601f10612179576101008083540402835291602001916121a4565b820191906000526020600020905b81548152906001019060200180831161218757829003601f168201915b50505050509250612ddf565b6040805190810160405280600481526020017f4d4953530000000000000000000000000000000000000000000000000000000081525061013f90805190602001906121fc92919061321d565b50600860ff1660686002018660ff16600a8110151561221757fe5b600a02018560ff16600a8110151561222b57fe5b01819055507fc853987460a693146896537e8c75eb17519cba9e2d443a1bbd33ccd6ae602c1861013f60d76000016040518080602001806020018381038352858181546001816001161561010002031660029004815260200191508054600181600116156101000203166002900480156122e65780601f106122bb576101008083540402835291602001916122e6565b820191906000526020600020905b8154815290600101906020018083116122c957829003601f168201915b50508381038252848181546001816001161561010002031660029004815260200191508054600181600116156101000203166002900480156123695780601f1061233e57610100808354040283529160200191612369565b820191906000526020600020905b81548152906001019060200180831161234c57829003601f168201915b505094505050505060405180910390a1612381612eeb565b61013f8054600181600116156101000203166002900480601f0160208091040260200160405190810160405280929190818152602001828054600181600116156101000203166002900480156124185780601f106123ed57610100808354040283529160200191612418565b820191906000526020600020905b8154815290600101906020018083116123fb57829003601f168201915b50505050509250612ddf565b600160006002018660ff16600a8110151561243b57fe5b600a02018560ff16600a8110151561244f57fe5b01541015801561248a5750600560006002018660ff16600a8110151561247157fe5b600a02018560ff16600a8110151561248557fe5b015411155b15612b6f576040805190810160405280600381526020017f484954000000000000000000000000000000000000000000000000000000000081525061013f90805190602001906124db92919061321d565b5060006002018560ff16600a811015156124f157fe5b600a02018460ff16600a8110151561250557fe5b01549050600960ff1660006002018660ff16600a8110151561252357fe5b600a02018560ff16600a8110151561253757fe5b018190555060006067016001820381548110151561255157fe5b9060005260206000209060020201600101600381819054906101000a900460ff168092919060010191906101000a81548160ff021916908360ff16021790555050806000606701600183038154811015156125a857fe5b906000526020600020906002020160010160039054906101000a900460ff1660ff1614156127b55760026000606701600183038154811015156125e757fe5b906000526020600020906002020160010160026101000a81548160ff021916908360ff1602179055507fc7823d86aed598df035ea41d58540dc0caa7333d677c1a973b63b28109812e976000800160006067016001840381548110151561264a57fe5b9060005260206000209060020201600001604051808060200180602001806020018481038452868181546001816001161561010002031660029004815260200191508054600181600116156101000203166002900480156126ec5780601f106126c1576101008083540402835291602001916126ec565b820191906000526020600020905b8154815290600101906020018083116126cf57829003601f168201915b505084810383528581815460018160011615610100020316600290048152602001915080546001816001161561010002031660029004801561276f5780601f106127445761010080835404028352916020019161276f565b820191906000526020600020905b81548152906001019060200180831161275257829003601f168201915b5050848103825260048152602001807f53554e4b000000000000000000000000000000000000000000000000000000008152506020019550505050505060405180910390a15b7fc853987460a693146896537e8c75eb17519cba9e2d443a1bbd33ccd6ae602c1861013f60d760000160405180806020018060200183810383528581815460018160011615610100020316600290048152602001915080546001816001161561010002031660029004801561286b5780601f106128405761010080835404028352916020019161286b565b820191906000526020600020905b81548152906001019060200180831161284e57829003601f168201915b50508381038252848181546001816001161561010002031660029004815260200191508054600181600116156101000203166002900480156128ee5780601f106128c3576101008083540402835291602001916128ee565b820191906000526020600020905b8154815290600101906020018083116128d157829003601f168201915b505094505050505060405180910390a16129a460d76000018054600181600116156101000203166002900480601f01602080910402602001604051908101604052809291908181526020018280546001816001161561010002031660029004801561299a5780601f1061296f5761010080835404028352916020019161299a565b820191906000526020600020905b81548152906001019060200180831161297d57829003601f168201915b505050505061053e565b15612ac457600260d660006101000a81548160ff021916908360028111156129c857fe5b02179055507f9bf3a3ee7743d8ce8ae78fd7450036ece624f1858a4af1b2ef0a509e14ec349360d7600001604051808060200180602001838103835260098152602001807f47616d6520576f6e210000000000000000000000000000000000000000000000815250602001838103825284818154600181600116156101000203166002900481526020019150805460018160011615610100020316600290048015612ab45780601f10612a8957610100808354040283529160200191612ab4565b820191906000526020600020905b815481529060010190602001808311612a9757829003601f168201915b5050935050505060405180910390a15b612acc612eeb565b61013f8054600181600116156101000203166002900480601f016020809104026020016040519081016040528092919081815260200182805460018160011615610100020316600290048015612b635780601f10612b3857610100808354040283529160200191612b63565b820191906000526020600020905b815481529060010190602001808311612b4657829003601f168201915b50505050509250612ddf565b6040805190810160405280600481526020017f4d4953530000000000000000000000000000000000000000000000000000000081525061013f9080519060200190612bbb92919061321d565b50600860ff1660006002018660ff16600a81101515612bd657fe5b600a02018560ff16600a81101515612bea57fe5b01819055507fc853987460a693146896537e8c75eb17519cba9e2d443a1bbd33ccd6ae602c1861013f60d7600001604051808060200180602001838103835285818154600181600116156101000203166002900481526020019150805460018160011615610100020316600290048015612ca55780601f10612c7a57610100808354040283529160200191612ca5565b820191906000526020600020905b815481529060010190602001808311612c8857829003601f168201915b5050838103825284818154600181600116156101000203166002900481526020019150805460018160011615610100020316600290048015612d285780601f10612cfd57610100808354040283529160200191612d28565b820191906000526020600020905b815481529060010190602001808311612d0b57829003601f168201915b505094505050505060405180910390a1612d40612eeb565b61013f8054600181600116156101000203166002900480601f016020809104026020016040519081016040528092919081815260200182805460018160011615610100020316600290048015612dd75780601f10612dac57610100808354040283529160200191612dd7565b820191906000526020600020905b815481529060010190602001808311612dba57829003601f168201915b505050505092505b505092915050565b600080600090505b600a60ff168160ff161015612ee457612ea483600080018054600181600116156101000203166002900480601f016020809104026020016040519081016040528092919081815260200182805460018160011615610100020316600290048015612e9a5780601f10612e6f57610100808354040283529160200191612e9a565b820191906000526020600020905b815481529060010190602001808311612e7d57829003601f168201915b505050505061168a565b15612ed75760006002016009600a81101515612ebc57fe5b600a02016009600a81101515612ece57fe5b01549150612ee5565b8080600101915050612def565b5b50919050565b61302e60d76000018054600181600116156101000203166002900480601f016020809104026020016040519081016040528092919081815260200182805460018160011615610100020316600290048015612f875780601f10612f5c57610100808354040283529160200191612f87565b820191906000526020600020905b815481529060010190602001808311612f6a57829003601f168201915b5050505050600080018054600181600116156101000203166002900480601f0160208091040260200160405190810160405280929190818152602001828054600181600116156101000203166002900480156130245780601f10612ff957610100808354040283529160200191613024565b820191906000526020600020905b81548152906001019060200180831161300757829003601f168201915b505050505061168a565b1561312957606860d76000820181600001908054600181600116156101000203166002900461305e92919061329d565b506001820160009054906101000a900473ffffffffffffffffffffffffffffffffffffffff168160010160006101000a81548173ffffffffffffffffffffffffffffffffffffffff021916908373ffffffffffffffffffffffffffffffffffffffff160217905550600282018160020190600a6130dc929190613324565b506066820160009054906101000a900460ff168160660160006101000a81548160ff0219169083151502179055506067820181606701908054613120929190613373565b5090505061321b565b600060d76000820181600001908054600181600116156101000203166002900461315492919061329d565b506001820160009054906101000a900473ffffffffffffffffffffffffffffffffffffffff168160010160006101000a81548173ffffffffffffffffffffffffffffffffffffffff021916908373ffffffffffffffffffffffffffffffffffffffff160217905550600282018160020190600a6131d2929190613324565b506066820160009054906101000a900460ff168160660160006101000a81548160ff0219169083151502179055506067820181606701908054613216929190613373565b509050505b565b828054600181600116156101000203166002900490600052602060002090601f016020900481019282601f1061325e57805160ff191683800117855561328c565b8280016001018555821561328c579182015b8281111561328b578251825591602001919060010190613270565b5b50905061329991906134ab565b5090565b828054600181600116156101000203166002900490600052602060002090601f016020900481019282601f106132d65780548555613313565b8280016001018555821561331357600052602060002091601f016020900482015b828111156133125782548255916001019190600101906132f7565b5b50905061332091906134ab565b5090565b82600a800281019282156133625791600a0282015b8281111561336157828290600a6133519291906134d0565b5091600a019190600a0190613339565b5b50905061336f919061350d565b5090565b82805482825590600052602060002090600202810192821561349a5760005260206000209160020282015b82811115613499578282600082018160000190805460018160011615610100020316600290046133cf92919061329d565b506001820160009054906101000a900460ff168160010160006101000a81548160ff021916908360ff1602179055506001820160019054906101000a900460ff168160010160016101000a81548160ff021916908360ff1602179055506001820160029054906101000a900460ff168160010160026101000a81548160ff021916908360ff1602179055506001820160039054906101000a900460ff168160010160036101000a81548160ff021916908360ff16021790555050509160020191906002019061339e565b5b5090506134a79190613539565b5090565b6134cd91905b808211156134c95760008160009055506001016134b1565b5090565b90565b82600a81019282156134fc579182015b828111156134fb5782548255916001019190600101906134e0565b5b50905061350991906134ab565b5090565b61353691905b80821115613532576000818161352991906135b8565b50600a01613513565b5090565b90565b6135b591905b808211156135b1576000808201600061355891906135cb565b6001820160006101000a81549060ff02191690556001820160016101000a81549060ff02191690556001820160026101000a81549060ff02191690556001820160036101000a81549060ff02191690555060020161353f565b5090565b90565b5080600a01906135c891906134ab565b50565b50805460018160011615610100020316600290046000825580601f106135f15750613610565b601f01602090049060005260206000209081019061360f91906134ab565b5b505600a165627a7a723058205083b18cfc33925491c148f72d77ef801eb9db743965faf28d44deae19241dba0029",
  "source": "pragma solidity ^0.4.23;\n\ncontract Battleship {\n\n  enum GameState {InPlay, PlacingShips, GameEnded}\n\n  uint8 constant BOARDSIZE = 10;\n struct ship {\n      string shipName;\n      uint8 shipLength;\n      uint8 shipCode;\n      uint8 shipStatus;\n      uint8 shipDamage;\n  }\n\n  struct playerState {\n      string playerName;\n      address playerAddr;\n      uint[BOARDSIZE][BOARDSIZE] boardMatrix;\n      bool isActive;\n      ship[] ships;\n  }\n\n  playerState player1;\n  playerState player2;\n\n  ship frigate;\n  ship submarine;\n  ship destroyer;\n\n  GameState gameState;\n\n  playerState currentPlayer;\n\n  string shotResult;\n\n  uint8 constant MISS = 8;\n  uint8 constant HIT = 9;\n\n  uint8 constant SHIP_FREE = 0;\n  uint8 constant SHIP_PLACED = 1;\n  uint8 constant SHIP_SUNK = 2;\n\n  uint8 constant HORIZONTAL = 0;\n  uint8 constant VERTICAL = 1;\n\n  uint8 constant NUM_OF_SHIPS = 3;\n\n   constructor() public {\n    gameState = GameState.PlacingShips;\n\n    frigate.shipName = \"FRIGATE\";\n    frigate.shipLength = 1;\n    frigate.shipCode = frigate.shipLength;\n    frigate.shipStatus = SHIP_FREE;\n    submarine.shipName = \"SUBMARINE\";\n    submarine.shipLength = 2;\n    submarine.shipCode = submarine.shipLength;\n    submarine.shipStatus = SHIP_FREE;\n    destroyer.shipName = \"DESTROYER\";\n    destroyer.shipLength = 3;\n    destroyer.shipCode = destroyer.shipLength;\n    destroyer.shipStatus = SHIP_FREE;\n\n    player1.ships.push(frigate);\n    player1.ships.push(submarine);\n    player1.ships.push(destroyer);\n    player2.ships.push(frigate);\n    player2.ships.push(submarine);\n    player2.ships.push(destroyer);\n\n  }\n\n  event LogShotResult(string, string);\n  event LogPlaceLegality(string, string);\n  event LogShipStartStop(uint,uint);\n  event LogAllShipsPlaced(string);\n  event LogShipPlaced(string,uint,uint,uint);\n  event LogCurrentShip(string,string,uint);\n  event LogShipSunk(string,string,string);\n  event LogGameWon(string,string);\n  event LogAllShipsSunk(string,string);\n  event LogCheckShipStatus(string,string,uint8);\n\n\n  modifier isGameInPlay {\n    require(gameState == GameState.InPlay);\n    _;\n  }\n\n modifier hasGameEnded {\n    require(gameState == GameState.GameEnded);\n    _;\n  }\n\n  modifier playersRegistered {\n      require(gameState == GameState.PlacingShips);\n      _;\n  }\n\n  function returnPlayers() playersRegistered constant public returns (string, string) {\n    return (player1.playerName, player2.playerName);\n  }\n\n  function registerPlayer(string playerName) public {\n\n    bytes memory tempEmptyStringTest = bytes(player1.playerName);\n\n    if (tempEmptyStringTest.length == 0) {\n      player1.playerAddr = msg.sender;\n      player1.playerName = playerName;\n      currentPlayer = player1;\n    } else {\n      player2.playerAddr = msg.sender;\n      player2.playerName = playerName;\n      gameState = GameState.PlacingShips;\n    }\n\n  }\n\n  function placeShip(uint8 x, uint8 y, string shipType, string playerName, uint8 direction) public playersRegistered {\n\n      ship currentShip;\n\n      //player1.playerName = \"Chris\";\n\n      playerState placingPlayer;\n\n      if (compareStrings(playerName, player1.playerName)) {\n          placingPlayer = player1;\n      } else {\n          placingPlayer = player2;\n      }\n\n      if (compareStrings(shipType, frigate.shipName)) {\n          currentShip = placingPlayer.ships[0];\n      } else if (compareStrings(shipType, submarine.shipName)) {\n          currentShip = placingPlayer.ships[1];\n        } else if (compareStrings(shipType, destroyer.shipName)) {\n              currentShip = placingPlayer.ships[2];\n          }\n      emit LogCurrentShip(\"Current ship is\",currentShip.shipName, currentShip.shipCode);\n\n      uint startSquareX = x;\n      uint endSquareX = x+currentShip.shipLength;\n      uint startSquareY = y;\n      uint endSquareY = y+currentShip.shipLength;\n\n      require(x >= 0 && y >= 0);\n      require(endSquareX < BOARDSIZE && endSquareY < BOARDSIZE);\n      require(currentShip.shipStatus == SHIP_FREE);\n\n\n\n            if (direction == HORIZONTAL) {\n              for (uint i=startSquareX; i<endSquareX; i++) {\n                require(currentPlayer.boardMatrix[i][y] == 0);\n                placingPlayer.boardMatrix[i][y] = currentShip.shipCode;\n                currentShip.shipStatus = SHIP_PLACED;\n                emit LogShipPlaced(\"Ship placed at location\",i,y,currentShip.shipCode);\n              }\n            } else {\n              for (i=startSquareY; i<endSquareY; i++) {\n                require(currentPlayer.boardMatrix[x][i] == 0);\n                placingPlayer.boardMatrix[x][i] = currentShip.shipCode;\n                currentShip.shipStatus = SHIP_PLACED;\n              }\n            }\n\n\n      bool allShipsPlaced = true;\n      for (i=0; i<player1.ships.length; i++) {\n          if (player1.ships[i].shipStatus == SHIP_FREE) {\n            allShipsPlaced = false;\n          }\n      }\n      for (i=0; i<player2.ships.length; i++) {\n        if (player2.ships[i].shipStatus == SHIP_FREE) {\n          allShipsPlaced = false;\n        }\n      }\n\n      if (allShipsPlaced == true) {\n          emit LogAllShipsPlaced(\"All Ships Placed\");\n          gameState = GameState.InPlay;\n      }\n  }\n\n  function switchCurrentPlayer() internal {\n      if (compareStrings(currentPlayer.playerName, player1.playerName)) {\n          currentPlayer = player2;\n      } else {\n          currentPlayer = player1;\n      }\n  }\n\n  function checkIfWon(string playerName_) returns (bool) {\n\n      bool allShipsSunk = true;\n\n      if (compareStrings(playerName_, player1.playerName)) {\n          for (uint i=0; i<NUM_OF_SHIPS; i++) {\n            emit LogCheckShipStatus(playerName_,player2.ships[i].shipName,player2.ships[i].shipStatus);\n            if (player2.ships[i].shipStatus != SHIP_SUNK) {\n              allShipsSunk = false;\n            }\n           }\n      }\n\n      if (compareStrings(playerName_, player2.playerName)) {\n          for (i=0; i<NUM_OF_SHIPS; i++) {\n            emit LogCheckShipStatus(playerName_,player1.ships[i].shipName,player1.ships[i].shipStatus);\n            if (player1.ships[i].shipStatus != SHIP_SUNK) {\n              allShipsSunk = false;\n            }\n           }\n      }\n\n      if (allShipsSunk == true) {\n          emit LogAllShipsSunk(\"All ships sunk for\", playerName_);\n      }\n\n      return allShipsSunk;\n  }\n\n  function fireShot(uint8 x, uint8 y) isGameInPlay public returns (string) {\n\n      if (compareStrings(currentPlayer.playerName, player1.playerName)) {\n          if (player2.boardMatrix[x][y] >= 1 && player2.boardMatrix[x][y] <= 5) {\n              shotResult = \"HIT\";\n              uint player2ShipType = player2.boardMatrix[x][y];\n\n              player2.boardMatrix[x][y] = HIT;\n              player2.ships[player2ShipType-1].shipDamage++;\n              if (player2.ships[player2ShipType-1].shipDamage == player2ShipType) {\n                  player2.ships[player2ShipType-1].shipStatus = SHIP_SUNK;\n                  emit LogShipSunk(player2.playerName, player2.ships[player2ShipType-1].shipName, \"SUNK\");\n              }\n\n              emit LogShotResult(shotResult,currentPlayer.playerName);\n              if (checkIfWon(currentPlayer.playerName)) {\n                  gameState = GameState.GameEnded;\n                  emit LogGameWon(\"Game Won!\",currentPlayer.playerName);\n              }\n              switchCurrentPlayer();\n              return (shotResult);\n          } else {\n              shotResult = \"MISS\";\n              player2.boardMatrix[x][y] = MISS;\n              emit LogShotResult(shotResult,currentPlayer.playerName);\n\n              switchCurrentPlayer();\n              return (shotResult);\n          }\n      } else {\n          if (player1.boardMatrix[x][y] >= 1 && player1.boardMatrix[x][y] <= 5) {\n              shotResult = \"HIT\";\n              uint player1ShipType = player1.boardMatrix[x][y];\n\n              player1.boardMatrix[x][y] = HIT;\n              player1.ships[player1ShipType-1].shipDamage++;\n              if (player1.ships[player1ShipType-1].shipDamage == player1ShipType) {\n                  player1.ships[player1ShipType-1].shipStatus = SHIP_SUNK;\n                  emit LogShipSunk(player1.playerName, player1.ships[player1ShipType-1].shipName, \"SUNK\");\n              }\n              emit LogShotResult(shotResult,currentPlayer.playerName);\n              if (checkIfWon(currentPlayer.playerName)) {\n                  gameState = GameState.GameEnded;\n                  emit LogGameWon(\"Game Won!\", currentPlayer.playerName);\n              }\n              switchCurrentPlayer();\n              return shotResult;\n          } else {\n              shotResult = 'MISS';\n              player1.boardMatrix[x][y] = MISS;\n              emit LogShotResult(shotResult,currentPlayer.playerName);\n              switchCurrentPlayer();\n              return shotResult;\n          }\n      }\n  }\n\n  function returnBoard(string playerName_) public constant returns (uint) {\n      for (uint8 i=0; i<BOARDSIZE; i++) {\n          if ( compareStrings(playerName_,player1.playerName)) {\n              return player1.boardMatrix[9][9];\n          }\n      }\n  }\n\n  function compareStrings (string a, string b) view returns (bool) {\n       return keccak256(a) == keccak256(b);\n  }\n\n\n}\n",
  "sourcePath": "/home/osboxes/Truffle-Projects/battleships/contracts/Battleship.sol",
  "compiler": {
    "name": "solc",
    "version": "0.4.24+commit.e67f0147.Emscripten.clang"
  },
  "schemaVersion": "2.0.1",
  "updatedAt": "2018-08-28T05:24:49.990Z"
}