{
  "contractName": "Battleships",
  "abi": [
    {
      "inputs": [],
      "payable": false,
      "stateMutability": "nonpayable",
      "type": "constructor"
    },
    {
      "anonymous": false,
      "inputs": [
        {
          "indexed": false,
          "name": "",
          "type": "string"
        },
        {
          "indexed": false,
          "name": "",
          "type": "string"
        }
      ],
      "name": "LogShotResult",
      "type": "event"
    },
    {
      "anonymous": false,
      "inputs": [
        {
          "indexed": false,
          "name": "",
          "type": "string"
        },
        {
          "indexed": false,
          "name": "",
          "type": "string"
        }
      ],
      "name": "LogPlaceLegality",
      "type": "event"
    },
    {
      "anonymous": false,
      "inputs": [
        {
          "indexed": false,
          "name": "",
          "type": "uint256"
        },
        {
          "indexed": false,
          "name": "",
          "type": "uint256"
        }
      ],
      "name": "LogShipStartStop",
      "type": "event"
    },
    {
      "anonymous": false,
      "inputs": [
        {
          "indexed": false,
          "name": "",
          "type": "string"
        }
      ],
      "name": "LogAllShipsPlaced",
      "type": "event"
    },
    {
      "anonymous": false,
      "inputs": [
        {
          "indexed": false,
          "name": "",
          "type": "string"
        },
        {
          "indexed": false,
          "name": "",
          "type": "uint256"
        },
        {
          "indexed": false,
          "name": "",
          "type": "uint256"
        },
        {
          "indexed": false,
          "name": "",
          "type": "uint256"
        }
      ],
      "name": "LogShipPlaced",
      "type": "event"
    },
    {
      "anonymous": false,
      "inputs": [
        {
          "indexed": false,
          "name": "",
          "type": "string"
        },
        {
          "indexed": false,
          "name": "",
          "type": "string"
        },
        {
          "indexed": false,
          "name": "",
          "type": "uint256"
        }
      ],
      "name": "LogCurrentShip",
      "type": "event"
    },
    {
      "anonymous": false,
      "inputs": [
        {
          "indexed": false,
          "name": "",
          "type": "string"
        },
        {
          "indexed": false,
          "name": "",
          "type": "string"
        },
        {
          "indexed": false,
          "name": "",
          "type": "string"
        }
      ],
      "name": "LogShipSunk",
      "type": "event"
    },
    {
      "anonymous": false,
      "inputs": [
        {
          "indexed": false,
          "name": "",
          "type": "string"
        },
        {
          "indexed": false,
          "name": "",
          "type": "string"
        }
      ],
      "name": "LogGameWon",
      "type": "event"
    },
    {
      "anonymous": false,
      "inputs": [
        {
          "indexed": false,
          "name": "",
          "type": "string"
        },
        {
          "indexed": false,
          "name": "",
          "type": "string"
        }
      ],
      "name": "LogAllShipsSunk",
      "type": "event"
    },
    {
      "anonymous": false,
      "inputs": [
        {
          "indexed": false,
          "name": "",
          "type": "string"
        },
        {
          "indexed": false,
          "name": "",
          "type": "string"
        },
        {
          "indexed": false,
          "name": "",
          "type": "uint8"
        }
      ],
      "name": "LogCheckShipStatus",
      "type": "event"
    },
    {
      "constant": true,
      "inputs": [],
      "name": "returnPlayers",
      "outputs": [
        {
          "name": "",
          "type": "string"
        }
      ],
      "payable": false,
      "stateMutability": "view",
      "type": "function"
    },
    {
      "constant": false,
      "inputs": [
        {
          "name": "playerName",
          "type": "string"
        }
      ],
      "name": "registerPlayer",
      "outputs": [],
      "payable": false,
      "stateMutability": "nonpayable",
      "type": "function"
    },
    {
      "constant": false,
      "inputs": [
        {
          "name": "x",
          "type": "uint8"
        },
        {
          "name": "y",
          "type": "uint8"
        },
        {
          "name": "shipType",
          "type": "string"
        },
        {
          "name": "playerName",
          "type": "string"
        },
        {
          "name": "direction",
          "type": "uint8"
        }
      ],
      "name": "placeShip",
      "outputs": [],
      "payable": false,
      "stateMutability": "nonpayable",
      "type": "function"
    },
    {
      "constant": false,
      "inputs": [
        {
          "name": "x",
          "type": "uint8"
        },
        {
          "name": "y",
          "type": "uint8"
        }
      ],
      "name": "fireShot",
      "outputs": [
        {
          "name": "",
          "type": "string"
        }
      ],
      "payable": false,
      "stateMutability": "nonpayable",
      "type": "function"
    },
    {
      "constant": true,
      "inputs": [
        {
          "name": "playerName_",
          "type": "string"
        }
      ],
      "name": "returnBoard",
      "outputs": [
        {
          "name": "",
          "type": "uint256"
        }
      ],
      "payable": false,
      "stateMutability": "view",
      "type": "function"
    },
    {
      "constant": false,
      "inputs": [],
      "name": "returnShipStatus",
      "outputs": [
        {
          "name": "",
          "type": "uint256"
        }
      ],
      "payable": false,
      "stateMutability": "nonpayable",
      "type": "function"
    },
    {
      "constant": true,
      "inputs": [
        {
          "name": "a",
          "type": "string"
        },
        {
          "name": "b",
          "type": "string"
        }
      ],
      "name": "compareStrings",
      "outputs": [
        {
          "name": "",
          "type": "bool"
        }
      ],
      "payable": false,
      "stateMutability": "view",
      "type": "function"
    }
  ],
  "bytecode": "0x60806040523480156200001157600080fd5b50600260d660006101000a81548160ff021916908360028111156200003257fe5b02179055506040805190810160405280600781526020017f465249474154450000000000000000000000000000000000000000000000000081525060d060000190805190602001906200008792919062000904565b50600160d060010160006101000a81548160ff021916908360ff16021790555060d060010160009054906101000a900460ff1660d060010160016101000a81548160ff021916908360ff160217905550600060d060010160026101000a81548160ff021916908360ff1602179055506040805190810160405280600981526020017f5355424d4152494e45000000000000000000000000000000000000000000000081525060d260000190805190602001906200014692919062000904565b50600260d260010160006101000a81548160ff021916908360ff16021790555060d260010160009054906101000a900460ff1660d260010160016101000a81548160ff021916908360ff160217905550600060d260010160026101000a81548160ff021916908360ff1602179055506040805190810160405280600981526020017f44455354524f594552000000000000000000000000000000000000000000000081525060d460000190805190602001906200020592919062000904565b50600360d460010160006101000a81548160ff021916908360ff16021790555060d460010160009054906101000a900460ff1660d460010160016101000a81548160ff021916908360ff160217905550600060d460010160026101000a81548160ff021916908360ff160217905550600060670160d09080600181540180825580915050906001820390600052602060002090600202016000909192909190915060008201816000019080546001816001161561010002031660029004620002cf9291906200098b565b506001820160009054906101000a900460ff168160010160006101000a81548160ff021916908360ff1602179055506001820160019054906101000a900460ff168160010160016101000a81548160ff021916908360ff1602179055506001820160029054906101000a900460ff168160010160026101000a81548160ff021916908360ff1602179055506001820160039054906101000a900460ff168160010160036101000a81548160ff021916908360ff160217905550505050600060670160d29080600181540180825580915050906001820390600052602060002090600202016000909192909190915060008201816000019080546001816001161561010002031660029004620003e69291906200098b565b506001820160009054906101000a900460ff168160010160006101000a81548160ff021916908360ff1602179055506001820160019054906101000a900460ff168160010160016101000a81548160ff021916908360ff1602179055506001820160029054906101000a900460ff168160010160026101000a81548160ff021916908360ff1602179055506001820160039054906101000a900460ff168160010160036101000a81548160ff021916908360ff160217905550505050600060670160d49080600181540180825580915050906001820390600052602060002090600202016000909192909190915060008201816000019080546001816001161561010002031660029004620004fd9291906200098b565b506001820160009054906101000a900460ff168160010160006101000a81548160ff021916908360ff1602179055506001820160019054906101000a900460ff168160010160016101000a81548160ff021916908360ff1602179055506001820160029054906101000a900460ff168160010160026101000a81548160ff021916908360ff1602179055506001820160039054906101000a900460ff168160010160036101000a81548160ff021916908360ff160217905550505050606860670160d09080600181540180825580915050906001820390600052602060002090600202016000909192909190915060008201816000019080546001816001161561010002031660029004620006149291906200098b565b506001820160009054906101000a900460ff168160010160006101000a81548160ff021916908360ff1602179055506001820160019054906101000a900460ff168160010160016101000a81548160ff021916908360ff1602179055506001820160029054906101000a900460ff168160010160026101000a81548160ff021916908360ff1602179055506001820160039054906101000a900460ff168160010160036101000a81548160ff021916908360ff160217905550505050606860670160d290806001815401808255809150509060018203906000526020600020906002020160009091929091909150600082018160000190805460018160011615610100020316600290046200072b9291906200098b565b506001820160009054906101000a900460ff168160010160006101000a81548160ff021916908360ff1602179055506001820160019054906101000a900460ff168160010160016101000a81548160ff021916908360ff1602179055506001820160029054906101000a900460ff168160010160026101000a81548160ff021916908360ff1602179055506001820160039054906101000a900460ff168160010160036101000a81548160ff021916908360ff160217905550505050606860670160d49080600181540180825580915050906001820390600052602060002090600202016000909192909190915060008201816000019080546001816001161561010002031660029004620008429291906200098b565b506001820160009054906101000a900460ff168160010160006101000a81548160ff021916908360ff1602179055506001820160019054906101000a900460ff168160010160016101000a81548160ff021916908360ff1602179055506001820160029054906101000a900460ff168160010160026101000a81548160ff021916908360ff1602179055506001820160039054906101000a900460ff168160010160036101000a81548160ff021916908360ff16021790555050505062000a41565b828054600181600116156101000203166002900490600052602060002090601f016020900481019282601f106200094757805160ff191683800117855562000978565b8280016001018555821562000978579182015b82811115620009775782518255916020019190600101906200095a565b5b50905062000987919062000a19565b5090565b828054600181600116156101000203166002900490600052602060002090601f016020900481019282601f10620009c6578054855562000a06565b8280016001018555821562000a0657600052602060002091601f016020900482015b8281111562000a05578254825591600101919060010190620009e8565b5b50905062000a15919062000a19565b5090565b62000a3e91905b8082111562000a3a57600081600090555060010162000a20565b5090565b90565b6134a98062000a516000396000f300608060405260043610610083576000357c0100000000000000000000000000000000000000000000000000000000900463ffffffff168063b3446f8514610088578063bc2d105e146100f1578063bed34bba146101c7578063cd37f3611461028e578063d472b87f146102b9578063df195d0414610349578063f6a02cec146103ff575b600080fd5b34801561009457600080fd5b506100ef600480360381019080803590602001908201803590602001908080601f016020809104026020016040519081016040528093929190818152602001838380828437820191505050505050919291929050505061047c565b005b3480156100fd57600080fd5b506101c5600480360381019080803560ff169060200190929190803560ff169060200190929190803590602001908201803590602001908080601f0160208091040260200160405190810160405280939291908181526020018383808284378201915050505050509192919290803590602001908201803590602001908080601f0160208091040260200160405190810160405280939291908181526020018383808284378201915050505050509192919290803560ff169060200190929190505050610701565b005b3480156101d357600080fd5b50610274600480360381019080803590602001908201803590602001908080601f0160208091040260200160405190810160405280939291908181526020018383808284378201915050505050509192919290803590602001908201803590602001908080601f0160208091040260200160405190810160405280939291908181526020018383808284378201915050505050509192919290505050610fa7565b604051808215151515815260200191505060405180910390f35b34801561029a57600080fd5b506102a3611080565b6040518082815260200191505060405180910390f35b3480156102c557600080fd5b506102ce6110bb565b6040518080602001828103825283818151815260200191508051906020019080838360005b8381101561030e5780820151818401526020810190506102f3565b50505050905090810190601f16801561033b5780820380516001836020036101000a031916815260200191505b509250505060405180910390f35b34801561035557600080fd5b50610384600480360381019080803560ff169060200190929190803560ff16906020019092919050505061112c565b6040518080602001828103825283818151815260200191508051906020019080838360005b838110156103c45780820151818401526020810190506103a9565b50505050905090810190601f1680156103f15780820380516001836020036101000a031916815260200191505b509250505060405180910390f35b34801561040b57600080fd5b50610466600480360381019080803590602001908201803590602001908080601f0160208091040260200160405190810160405280939291908181526020018383808284378201915050505050509192919290505050612630565b6040518082815260200191505060405180910390f35b6060600080018054600181600116156101000203166002900480601f0160208091040260200160405190810160405280929190818152602001828054600181600116156101000203166002900480156105165780601f106104eb57610100808354040283529160200191610516565b820191906000526020600020905b8154815290600101906020018083116104f957829003601f168201915b5050505050905060008151141561067a5733600060010160006101000a81548173ffffffffffffffffffffffffffffffffffffffff021916908373ffffffffffffffffffffffffffffffffffffffff16021790555081600080019080519060200190610583929190613087565b50600060d7600082018160000190805460018160011615610100020316600290046105af929190613107565b506001820160009054906101000a900473ffffffffffffffffffffffffffffffffffffffff168160010160006101000a81548173ffffffffffffffffffffffffffffffffffffffff021916908373ffffffffffffffffffffffffffffffffffffffff160217905550600282018160020190600a61062d92919061318e565b506066820160009054906101000a900460ff168160660160006101000a81548160ff02191690831515021790555060678201816067019080546106719291906131dd565b509050506106fd565b33606860010160006101000a81548173ffffffffffffffffffffffffffffffffffffffff021916908373ffffffffffffffffffffffffffffffffffffffff16021790555081606860000190805190602001906106d7929190613087565b50600160d660006101000a81548160ff021916908360028111156106f757fe5b02179055505b5050565b6000806000806000806000806001600281111561071a57fe5b60d660009054906101000a900460ff16600281111561073557fe5b14151561074157600080fd5b6107e78a600080018054600181600116156101000203166002900480601f0160208091040260200160405190810160405280929190818152602001828054600181600116156101000203166002900480156107dd5780601f106107b2576101008083540402835291602001916107dd565b820191906000526020600020905b8154815290600101906020018083116107c057829003601f168201915b5050505050610fa7565b156107f557600096506107fa565b606896505b6108a18b60d06000018054600181600116156101000203166002900480601f0160208091040260200160405190810160405280929190818152602001828054600181600116156101000203166002900480156108975780601f1061086c57610100808354040283529160200191610897565b820191906000526020600020905b81548152906001019060200180831161087a57829003601f168201915b5050505050610fa7565b156108cd578660670160008154811015156108b857fe5b90600052602060002090600202019750610a71565b6109748b60d26000018054600181600116156101000203166002900480601f01602080910402602001604051908101604052809291908181526020018280546001816001161561010002031660029004801561096a5780601f1061093f5761010080835404028352916020019161096a565b820191906000526020600020905b81548152906001019060200180831161094d57829003601f168201915b5050505050610fa7565b156109a05786606701600181548110151561098b57fe5b90600052602060002090600202019750610a70565b610a478b60d46000018054600181600116156101000203166002900480601f016020809104026020016040519081016040528092919081815260200182805460018160011615610100020316600290048015610a3d5780601f10610a1257610100808354040283529160200191610a3d565b820191906000526020600020905b815481529060010190602001808311610a2057829003601f168201915b5050505050610fa7565b15610a6f57866067016002815481101515610a5e57fe5b906000526020600020906002020197505b5b5b7f85afe4fc04986b6cead49a25b21c3e8f8d92d902967e3fdb2491123dad04fc8c886000018960010160019054906101000a900460ff166040518080602001806020018460ff1681526020018381038352600f8152602001807f43757272656e7420736869702069730000000000000000000000000000000000815250602001838103825285818154600181600116156101000203166002900481526020019150805460018160011615610100020316600290048015610b725780601f10610b4757610100808354040283529160200191610b72565b820191906000526020600020905b815481529060010190602001808311610b5557829003601f168201915b505094505050505060405180910390a18c60ff1695508760010160009054906101000a900460ff168d0160ff1694508b60ff1693508760010160009054906101000a900460ff168c0160ff16925060008d60ff1610158015610bd8575060008c60ff1610155b1515610be357600080fd5b600a60ff1685108015610bf95750600a60ff1683105b1515610c0457600080fd5b600060ff168860010160029054906101000a900460ff1660ff16141515610c2a57600080fd5b600060ff168960ff161415610d81578591505b84821015610d7c57600060d760020183600a81101515610c5957fe5b600a02018d60ff16600a81101515610c6d57fe5b0154141515610c7b57600080fd5b8760010160019054906101000a900460ff1660ff168760020183600a81101515610ca157fe5b600a02018d60ff16600a81101515610cb557fe5b018190555060018860010160026101000a81548160ff021916908360ff1602179055507f7640287f811ab1b4e37aaf4739f0b3d8f87a9e7efd4369dc5826ec5edaa8fc74828d8a60010160019054906101000a900460ff1660405180806020018581526020018460ff1681526020018360ff168152602001828103825260178152602001807f5368697020706c61636564206174206c6f636174696f6e00000000000000000081525060200194505050505060405180910390a18180600101925050610c3d565b610e2e565b8391505b82821015610e2d57600060d76002018e60ff16600a81101515610da457fe5b600a020183600a81101515610db557fe5b0154141515610dc357600080fd5b8760010160019054906101000a900460ff1660ff16876002018e60ff16600a81101515610dec57fe5b600a020183600a81101515610dfd57fe5b018190555060018860010160026101000a81548160ff021916908360ff1602179055508180600101925050610d85565b5b60019050600091505b600060670180549050821015610e9857600060ff16600060670183815481101515610e5e57fe5b906000526020600020906002020160010160029054906101000a900460ff1660ff161415610e8b57600090505b8180600101925050610e37565b600091505b606860670180549050821015610efe57600060ff16606860670183815481101515610ec457fe5b906000526020600020906002020160010160029054906101000a900460ff1660ff161415610ef157600090505b8180600101925050610e9d565b600115158115151415610f98577f9af59cc428db7b85fee9d4f846623c39c1728a0cc1259e15df1bfd974540366f6040518080602001828103825260108152602001807f416c6c20536869707320506c616365640000000000000000000000000000000081525060200191505060405180910390a1600060d660006101000a81548160ff02191690836002811115610f9257fe5b02179055505b50505050505050505050505050565b6000816040518082805190602001908083835b602083101515610fdf5780518252602082019150602081019050602083039250610fba565b6001836020036101000a038019825116818451168082178552505050505050905001915050604051809103902060001916836040518082805190602001908083835b6020831015156110465780518252602082019150602081019050602083039250611021565b6001836020036101000a03801982511681845116808217855250505050505090500191505060405180910390206000191614905092915050565b600080606701600081548110151561109457fe5b906000526020600020906002020160010160029054906101000a900460ff1660ff16905090565b6060600160028111156110ca57fe5b60d660009054906101000a900460ff1660028111156110e557fe5b1415156110f157600080fd5b6040805190810160405280600481526020017f4d696b6500000000000000000000000000000000000000000000000000000000815250905090565b60606000806000600281111561113e57fe5b60d660009054906101000a900460ff16600281111561115957fe5b14151561116557600080fd5b6112a860d76000018054600181600116156101000203166002900480601f0160208091040260200160405190810160405280929190818152602001828054600181600116156101000203166002900480156112015780601f106111d657610100808354040283529160200191611201565b820191906000526020600020905b8154815290600101906020018083116111e457829003601f168201915b5050505050600080018054600181600116156101000203166002900480601f01602080910402602001604051908101604052809291908181526020018280546001816001161561010002031660029004801561129e5780601f106112735761010080835404028352916020019161129e565b820191906000526020600020905b81548152906001019060200180831161128157829003601f168201915b5050505050610fa7565b15611c6d57600160686002018660ff16600a811015156112c457fe5b600a02018560ff16600a811015156112d857fe5b0154101580156113135750600560686002018660ff16600a811015156112fa57fe5b600a02018560ff16600a8110151561130e57fe5b015411155b156119f9576040805190810160405280600381526020017f484954000000000000000000000000000000000000000000000000000000000081525061013f9080519060200190611364929190613087565b5060686002018560ff16600a8110151561137a57fe5b600a02018460ff16600a8110151561138e57fe5b01549150600960ff1660686002018660ff16600a811015156113ac57fe5b600a02018560ff16600a811015156113c057fe5b01819055506068606701600183038154811015156113da57fe5b9060005260206000209060020201600101600381819054906101000a900460ff168092919060010191906101000a81548160ff021916908360ff160217905550508160686067016001840381548110151561143157fe5b906000526020600020906002020160010160039054906101000a900460ff1660ff16141561163f57600260686067016001840381548110151561147057fe5b906000526020600020906002020160010160026101000a81548160ff021916908360ff1602179055507fc7823d86aed598df035ea41d58540dc0caa7333d677c1a973b63b28109812e9760686000016068606701600185038154811015156114d457fe5b9060005260206000209060020201600001604051808060200180602001806020018481038452868181546001816001161561010002031660029004815260200191508054600181600116156101000203166002900480156115765780601f1061154b57610100808354040283529160200191611576565b820191906000526020600020905b81548152906001019060200180831161155957829003601f168201915b50508481038352858181546001816001161561010002031660029004815260200191508054600181600116156101000203166002900480156115f95780601f106115ce576101008083540402835291602001916115f9565b820191906000526020600020905b8154815290600101906020018083116115dc57829003601f168201915b5050848103825260048152602001807f53554e4b000000000000000000000000000000000000000000000000000000008152506020019550505050505060405180910390a15b7fc853987460a693146896537e8c75eb17519cba9e2d443a1bbd33ccd6ae602c1861013f60d76000016040518080602001806020018381038352858181546001816001161561010002031660029004815260200191508054600181600116156101000203166002900480156116f55780601f106116ca576101008083540402835291602001916116f5565b820191906000526020600020905b8154815290600101906020018083116116d857829003601f168201915b50508381038252848181546001816001161561010002031660029004815260200191508054600181600116156101000203166002900480156117785780601f1061174d57610100808354040283529160200191611778565b820191906000526020600020905b81548152906001019060200180831161175b57829003601f168201915b505094505050505060405180910390a161182e60d76000018054600181600116156101000203166002900480601f0160208091040260200160405190810160405280929190818152602001828054600181600116156101000203166002900480156118245780601f106117f957610100808354040283529160200191611824565b820191906000526020600020905b81548152906001019060200180831161180757829003601f168201915b5050505050612734565b1561194e57600260d660006101000a81548160ff0219169083600281111561185257fe5b02179055507f9bf3a3ee7743d8ce8ae78fd7450036ece624f1858a4af1b2ef0a509e14ec349360d7600001604051808060200180602001838103835260098152602001807f47616d6520576f6e21000000000000000000000000000000000000000000000081525060200183810382528481815460018160011615610100020316600290048152602001915080546001816001161561010002031660029004801561193e5780601f106119135761010080835404028352916020019161193e565b820191906000526020600020905b81548152906001019060200180831161192157829003601f168201915b5050935050505060405180910390a15b611956612d55565b61013f8054600181600116156101000203166002900480601f0160208091040260200160405190810160405280929190818152602001828054600181600116156101000203166002900480156119ed5780601f106119c2576101008083540402835291602001916119ed565b820191906000526020600020905b8154815290600101906020018083116119d057829003601f168201915b50505050509250612628565b6040805190810160405280600481526020017f4d4953530000000000000000000000000000000000000000000000000000000081525061013f9080519060200190611a45929190613087565b50600860ff1660686002018660ff16600a81101515611a6057fe5b600a02018560ff16600a81101515611a7457fe5b01819055507fc853987460a693146896537e8c75eb17519cba9e2d443a1bbd33ccd6ae602c1861013f60d7600001604051808060200180602001838103835285818154600181600116156101000203166002900481526020019150805460018160011615610100020316600290048015611b2f5780601f10611b0457610100808354040283529160200191611b2f565b820191906000526020600020905b815481529060010190602001808311611b1257829003601f168201915b5050838103825284818154600181600116156101000203166002900481526020019150805460018160011615610100020316600290048015611bb25780601f10611b8757610100808354040283529160200191611bb2565b820191906000526020600020905b815481529060010190602001808311611b9557829003601f168201915b505094505050505060405180910390a1611bca612d55565b61013f8054600181600116156101000203166002900480601f016020809104026020016040519081016040528092919081815260200182805460018160011615610100020316600290048015611c615780601f10611c3657610100808354040283529160200191611c61565b820191906000526020600020905b815481529060010190602001808311611c4457829003601f168201915b50505050509250612628565b600160006002018660ff16600a81101515611c8457fe5b600a02018560ff16600a81101515611c9857fe5b015410158015611cd35750600560006002018660ff16600a81101515611cba57fe5b600a02018560ff16600a81101515611cce57fe5b015411155b156123b8576040805190810160405280600381526020017f484954000000000000000000000000000000000000000000000000000000000081525061013f9080519060200190611d24929190613087565b5060006002018560ff16600a81101515611d3a57fe5b600a02018460ff16600a81101515611d4e57fe5b01549050600960ff1660006002018660ff16600a81101515611d6c57fe5b600a02018560ff16600a81101515611d8057fe5b0181905550600060670160018203815481101515611d9a57fe5b9060005260206000209060020201600101600381819054906101000a900460ff168092919060010191906101000a81548160ff021916908360ff1602179055505080600060670160018303815481101515611df157fe5b906000526020600020906002020160010160039054906101000a900460ff1660ff161415611ffe576002600060670160018303815481101515611e3057fe5b906000526020600020906002020160010160026101000a81548160ff021916908360ff1602179055507fc7823d86aed598df035ea41d58540dc0caa7333d677c1a973b63b28109812e9760008001600060670160018403815481101515611e9357fe5b906000526020600020906002020160000160405180806020018060200180602001848103845286818154600181600116156101000203166002900481526020019150805460018160011615610100020316600290048015611f355780601f10611f0a57610100808354040283529160200191611f35565b820191906000526020600020905b815481529060010190602001808311611f1857829003601f168201915b5050848103835285818154600181600116156101000203166002900481526020019150805460018160011615610100020316600290048015611fb85780601f10611f8d57610100808354040283529160200191611fb8565b820191906000526020600020905b815481529060010190602001808311611f9b57829003601f168201915b5050848103825260048152602001807f53554e4b000000000000000000000000000000000000000000000000000000008152506020019550505050505060405180910390a15b7fc853987460a693146896537e8c75eb17519cba9e2d443a1bbd33ccd6ae602c1861013f60d76000016040518080602001806020018381038352858181546001816001161561010002031660029004815260200191508054600181600116156101000203166002900480156120b45780601f10612089576101008083540402835291602001916120b4565b820191906000526020600020905b81548152906001019060200180831161209757829003601f168201915b50508381038252848181546001816001161561010002031660029004815260200191508054600181600116156101000203166002900480156121375780601f1061210c57610100808354040283529160200191612137565b820191906000526020600020905b81548152906001019060200180831161211a57829003601f168201915b505094505050505060405180910390a16121ed60d76000018054600181600116156101000203166002900480601f0160208091040260200160405190810160405280929190818152602001828054600181600116156101000203166002900480156121e35780601f106121b8576101008083540402835291602001916121e3565b820191906000526020600020905b8154815290600101906020018083116121c657829003601f168201915b5050505050612734565b1561230d57600260d660006101000a81548160ff0219169083600281111561221157fe5b02179055507f9bf3a3ee7743d8ce8ae78fd7450036ece624f1858a4af1b2ef0a509e14ec349360d7600001604051808060200180602001838103835260098152602001807f47616d6520576f6e2100000000000000000000000000000000000000000000008152506020018381038252848181546001816001161561010002031660029004815260200191508054600181600116156101000203166002900480156122fd5780601f106122d2576101008083540402835291602001916122fd565b820191906000526020600020905b8154815290600101906020018083116122e057829003601f168201915b5050935050505060405180910390a15b612315612d55565b61013f8054600181600116156101000203166002900480601f0160208091040260200160405190810160405280929190818152602001828054600181600116156101000203166002900480156123ac5780601f10612381576101008083540402835291602001916123ac565b820191906000526020600020905b81548152906001019060200180831161238f57829003601f168201915b50505050509250612628565b6040805190810160405280600481526020017f4d4953530000000000000000000000000000000000000000000000000000000081525061013f9080519060200190612404929190613087565b50600860ff1660006002018660ff16600a8110151561241f57fe5b600a02018560ff16600a8110151561243357fe5b01819055507fc853987460a693146896537e8c75eb17519cba9e2d443a1bbd33ccd6ae602c1861013f60d76000016040518080602001806020018381038352858181546001816001161561010002031660029004815260200191508054600181600116156101000203166002900480156124ee5780601f106124c3576101008083540402835291602001916124ee565b820191906000526020600020905b8154815290600101906020018083116124d157829003601f168201915b50508381038252848181546001816001161561010002031660029004815260200191508054600181600116156101000203166002900480156125715780601f1061254657610100808354040283529160200191612571565b820191906000526020600020905b81548152906001019060200180831161255457829003601f168201915b505094505050505060405180910390a1612589612d55565b61013f8054600181600116156101000203166002900480601f0160208091040260200160405190810160405280929190818152602001828054600181600116156101000203166002900480156126205780601f106125f557610100808354040283529160200191612620565b820191906000526020600020905b81548152906001019060200180831161260357829003601f168201915b505050505092505b505092915050565b600080600090505b600a60ff168160ff16101561272d576126ed83600080018054600181600116156101000203166002900480601f0160208091040260200160405190810160405280929190818152602001828054600181600116156101000203166002900480156126e35780601f106126b8576101008083540402835291602001916126e3565b820191906000526020600020905b8154815290600101906020018083116126c657829003601f168201915b5050505050610fa7565b156127205760006002016009600a8110151561270557fe5b600a02016009600a8110151561271757fe5b0154915061272e565b8080600101915050612638565b5b50919050565b6000806000600191506127e384600080018054600181600116156101000203166002900480601f0160208091040260200160405190810160405280929190818152602001828054600181600116156101000203166002900480156127d95780601f106127ae576101008083540402835291602001916127d9565b820191906000526020600020905b8154815290600101906020018083116127bc57829003601f168201915b5050505050610fa7565b156129d257600090505b600360ff168110156129d1577f671efc4d453d098fce8b6582a19b67882ce6c84f47a69b1df623dcd5bd7fc2518460686067018381548110151561282d57fe5b906000526020600020906002020160000160686067018481548110151561285057fe5b906000526020600020906002020160010160029054906101000a900460ff166040518080602001806020018460ff1660ff168152602001838103835286818151815260200191508051906020019080838360005b838110156128bf5780820151818401526020810190506128a4565b50505050905090810190601f1680156128ec5780820380516001836020036101000a031916815260200191505b5083810382528581815460018160011615610100020316600290048152602001915080546001816001161561010002031660029004801561296e5780601f106129435761010080835404028352916020019161296e565b820191906000526020600020905b81548152906001019060200180831161295157829003601f168201915b50509550505050505060405180910390a1600260ff1660686067018281548110151561299657fe5b906000526020600020906002020160010160029054906101000a900460ff1660ff161415156129c457600091505b80806001019150506127ed565b5b612a798460686000018054600181600116156101000203166002900480601f016020809104026020016040519081016040528092919081815260200182805460018160011615610100020316600290048015612a6f5780601f10612a4457610100808354040283529160200191612a6f565b820191906000526020600020905b815481529060010190602001808311612a5257829003601f168201915b5050505050610fa7565b15612c6857600090505b600360ff16811015612c67577f671efc4d453d098fce8b6582a19b67882ce6c84f47a69b1df623dcd5bd7fc25184600060670183815481101515612ac357fe5b9060005260206000209060020201600001600060670184815481101515612ae657fe5b906000526020600020906002020160010160029054906101000a900460ff166040518080602001806020018460ff1660ff168152602001838103835286818151815260200191508051906020019080838360005b83811015612b55578082015181840152602081019050612b3a565b50505050905090810190601f168015612b825780820380516001836020036101000a031916815260200191505b50838103825285818154600181600116156101000203166002900481526020019150805460018160011615610100020316600290048015612c045780601f10612bd957610100808354040283529160200191612c04565b820191906000526020600020905b815481529060010190602001808311612be757829003601f168201915b50509550505050505060405180910390a1600260ff16600060670182815481101515612c2c57fe5b906000526020600020906002020160010160029054906101000a900460ff1660ff16141515612c5a57600091505b8080600101915050612a83565b5b600115158215151415612d4b577f43e218a52ed7135da92840e41483c8c54d5d9ddbd14032901787304294237a7e84604051808060200180602001838103835260128152602001807f416c6c2073686970732073756e6b20666f720000000000000000000000000000815250602001838103825284818151815260200191508051906020019080838360005b83811015612d0f578082015181840152602081019050612cf4565b50505050905090810190601f168015612d3c5780820380516001836020036101000a031916815260200191505b50935050505060405180910390a15b8192505050919050565b612e9860d76000018054600181600116156101000203166002900480601f016020809104026020016040519081016040528092919081815260200182805460018160011615610100020316600290048015612df15780601f10612dc657610100808354040283529160200191612df1565b820191906000526020600020905b815481529060010190602001808311612dd457829003601f168201915b5050505050600080018054600181600116156101000203166002900480601f016020809104026020016040519081016040528092919081815260200182805460018160011615610100020316600290048015612e8e5780601f10612e6357610100808354040283529160200191612e8e565b820191906000526020600020905b815481529060010190602001808311612e7157829003601f168201915b5050505050610fa7565b15612f9357606860d760008201816000019080546001816001161561010002031660029004612ec8929190613107565b506001820160009054906101000a900473ffffffffffffffffffffffffffffffffffffffff168160010160006101000a81548173ffffffffffffffffffffffffffffffffffffffff021916908373ffffffffffffffffffffffffffffffffffffffff160217905550600282018160020190600a612f4692919061318e565b506066820160009054906101000a900460ff168160660160006101000a81548160ff0219169083151502179055506067820181606701908054612f8a9291906131dd565b50905050613085565b600060d760008201816000019080546001816001161561010002031660029004612fbe929190613107565b506001820160009054906101000a900473ffffffffffffffffffffffffffffffffffffffff168160010160006101000a81548173ffffffffffffffffffffffffffffffffffffffff021916908373ffffffffffffffffffffffffffffffffffffffff160217905550600282018160020190600a61303c92919061318e565b506066820160009054906101000a900460ff168160660160006101000a81548160ff02191690831515021790555060678201816067019080546130809291906131dd565b509050505b565b828054600181600116156101000203166002900490600052602060002090601f016020900481019282601f106130c857805160ff19168380011785556130f6565b828001600101855582156130f6579182015b828111156130f55782518255916020019190600101906130da565b5b5090506131039190613315565b5090565b828054600181600116156101000203166002900490600052602060002090601f016020900481019282601f10613140578054855561317d565b8280016001018555821561317d57600052602060002091601f016020900482015b8281111561317c578254825591600101919060010190613161565b5b50905061318a9190613315565b5090565b82600a800281019282156131cc5791600a0282015b828111156131cb57828290600a6131bb92919061333a565b5091600a019190600a01906131a3565b5b5090506131d99190613377565b5090565b8280548282559060005260206000209060020281019282156133045760005260206000209160020282015b8281111561330357828260008201816000019080546001816001161561010002031660029004613239929190613107565b506001820160009054906101000a900460ff168160010160006101000a81548160ff021916908360ff1602179055506001820160019054906101000a900460ff168160010160016101000a81548160ff021916908360ff1602179055506001820160029054906101000a900460ff168160010160026101000a81548160ff021916908360ff1602179055506001820160039054906101000a900460ff168160010160036101000a81548160ff021916908360ff160217905550505091600201919060020190613208565b5b50905061331191906133a3565b5090565b61333791905b8082111561333357600081600090555060010161331b565b5090565b90565b82600a8101928215613366579182015b8281111561336557825482559160010191906001019061334a565b5b5090506133739190613315565b5090565b6133a091905b8082111561339c57600081816133939190613422565b50600a0161337d565b5090565b90565b61341f91905b8082111561341b57600080820160006133c29190613435565b6001820160006101000a81549060ff02191690556001820160016101000a81549060ff02191690556001820160026101000a81549060ff02191690556001820160036101000a81549060ff0219169055506002016133a9565b5090565b90565b5080600a01906134329190613315565b50565b50805460018160011615610100020316600290046000825580601f1061345b575061347a565b601f0160209004906000526020600020908101906134799190613315565b5b505600a165627a7a72305820927cf50e0837bc5d8af3f559c7060c13f090a4bf3f75b763ee04cb516dc115b70029",
  "source": "pragma solidity ^0.4.23;\n\ncontract Battleships {\n\n  enum GameState {InPlay, PlacingShips, GameEnded}\n\n  uint8 constant BOARDSIZE = 10;\n struct ship {\n      string shipName;\n      uint8 shipLength;\n      uint8 shipCode;\n      uint8 shipStatus;\n      uint8 shipDamage;\n  }\n\n  struct playerState {\n      string playerName;\n      address playerAddr;\n      uint[BOARDSIZE][BOARDSIZE] boardMatrix;\n      bool isActive;\n      ship[] ships;\n  }\n\n  playerState player1;\n  playerState player2;\n\n  ship frigate;\n  ship submarine;\n  ship destroyer;\n\n  GameState gameState;\n\n  playerState currentPlayer;\n\n  string shotResult;\n\n  uint8 constant MISS = 8;\n  uint8 constant HIT = 9;\n\n  uint8 constant SHIP_FREE = 0;\n  uint8 constant SHIP_PLACED = 1;\n  uint8 constant SHIP_SUNK = 2;\n\n  uint8 constant HORIZONTAL = 0;\n  uint8 constant VERTICAL = 1;\n\n  uint8 constant NUM_OF_SHIPS = 3;\n\n   constructor() public {\n    gameState = GameState.GameEnded;\n\n    frigate.shipName = \"FRIGATE\";\n    frigate.shipLength = 1;\n    frigate.shipCode = frigate.shipLength;\n    frigate.shipStatus = SHIP_FREE;\n    submarine.shipName = \"SUBMARINE\";\n    submarine.shipLength = 2;\n    submarine.shipCode = submarine.shipLength;\n    submarine.shipStatus = SHIP_FREE;\n    destroyer.shipName = \"DESTROYER\";\n    destroyer.shipLength = 3;\n    destroyer.shipCode = destroyer.shipLength;\n    destroyer.shipStatus = SHIP_FREE;\n\n    player1.ships.push(frigate);\n    player1.ships.push(submarine);\n    player1.ships.push(destroyer);\n    player2.ships.push(frigate);\n    player2.ships.push(submarine);\n    player2.ships.push(destroyer);\n\n  }\n\n  event LogShotResult(string, string);\n  event LogPlaceLegality(string, string);\n  event LogShipStartStop(uint,uint);\n  event LogAllShipsPlaced(string);\n  event LogShipPlaced(string,uint,uint,uint);\n  event LogCurrentShip(string,string,uint);\n  event LogShipSunk(string,string,string);\n  event LogGameWon(string,string);\n  event LogAllShipsSunk(string,string);\n  event LogCheckShipStatus(string,string,uint8);\n\n\n  modifier isGameInPlay {\n    require(gameState == GameState.InPlay);\n    _;\n  }\n\n modifier hasGameEnded {\n    require(gameState == GameState.GameEnded);\n    _;\n  }\n\n  modifier playersRegistered {\n      require(gameState == GameState.PlacingShips);\n      _;\n  }\n\n  function returnPlayers() playersRegistered constant public returns (string) {\n    return \"Mike\";\n  }\n\n  function registerPlayer(string playerName) public {\n\n    bytes memory tempEmptyStringTest = bytes(player1.playerName);\n\n    if (tempEmptyStringTest.length == 0) {\n      player1.playerAddr = msg.sender;\n      player1.playerName = playerName;\n      currentPlayer = player1;\n    } else {\n      player2.playerAddr = msg.sender;\n      player2.playerName = playerName;\n      gameState = GameState.PlacingShips;\n    }\n\n  }\n\n  function placeShip(uint8 x, uint8 y, string shipType, string playerName, uint8 direction) public playersRegistered {\n\n      ship currentShip;\n\n      //player1.playerName = \"Chris\";\n\n      playerState placingPlayer;\n\n      if (compareStrings(playerName, player1.playerName)) {\n          placingPlayer = player1;\n      } else {\n          placingPlayer = player2;\n      }\n\n      if (compareStrings(shipType, frigate.shipName)) {\n          currentShip = placingPlayer.ships[0];\n      } else if (compareStrings(shipType, submarine.shipName)) {\n          currentShip = placingPlayer.ships[1];\n        } else if (compareStrings(shipType, destroyer.shipName)) {\n              currentShip = placingPlayer.ships[2];\n          }\n      emit LogCurrentShip(\"Current ship is\",currentShip.shipName, currentShip.shipCode);\n\n      uint startSquareX = x;\n      uint endSquareX = x+currentShip.shipLength;\n      uint startSquareY = y;\n      uint endSquareY = y+currentShip.shipLength;\n\n      require(x >= 0 && y >= 0);\n      require(endSquareX < BOARDSIZE && endSquareY < BOARDSIZE);\n      require(currentShip.shipStatus == SHIP_FREE);\n\n\n\n            if (direction == HORIZONTAL) {\n              for (uint i=startSquareX; i<endSquareX; i++) {\n                require(currentPlayer.boardMatrix[i][y] == 0);\n                placingPlayer.boardMatrix[i][y] = currentShip.shipCode;\n                currentShip.shipStatus = SHIP_PLACED;\n                emit LogShipPlaced(\"Ship placed at location\",i,y,currentShip.shipCode);\n              }\n            } else {\n              for (i=startSquareY; i<endSquareY; i++) {\n                require(currentPlayer.boardMatrix[x][i] == 0);\n                placingPlayer.boardMatrix[x][i] = currentShip.shipCode;\n                currentShip.shipStatus = SHIP_PLACED;\n              }\n            }\n\n\n      bool allShipsPlaced = true;\n      for (i=0; i<player1.ships.length; i++) {\n          if (player1.ships[i].shipStatus == SHIP_FREE) {\n            allShipsPlaced = false;\n          }\n      }\n      for (i=0; i<player2.ships.length; i++) {\n        if (player2.ships[i].shipStatus == SHIP_FREE) {\n          allShipsPlaced = false;\n        }\n      }\n\n      if (allShipsPlaced == true) {\n          emit LogAllShipsPlaced(\"All Ships Placed\");\n          gameState = GameState.InPlay;\n      }\n  }\n\n  function switchCurrentPlayer() internal {\n      if (compareStrings(currentPlayer.playerName, player1.playerName)) {\n          currentPlayer = player2;\n      } else {\n          currentPlayer = player1;\n      }\n  }\n\n  function checkIfWon(string playerName_) private returns (bool) {\n\n      bool allShipsSunk = true;\n\n      if (compareStrings(playerName_, player1.playerName)) {\n          for (uint i=0; i<NUM_OF_SHIPS; i++) {\n            emit LogCheckShipStatus(playerName_,player2.ships[i].shipName,player2.ships[i].shipStatus);\n            if (player2.ships[i].shipStatus != SHIP_SUNK) {\n              allShipsSunk = false;\n            }\n           }\n      }\n\n      if (compareStrings(playerName_, player2.playerName)) {\n          for (i=0; i<NUM_OF_SHIPS; i++) {\n            emit LogCheckShipStatus(playerName_,player1.ships[i].shipName,player1.ships[i].shipStatus);\n            if (player1.ships[i].shipStatus != SHIP_SUNK) {\n              allShipsSunk = false;\n            }\n           }\n      }\n\n      if (allShipsSunk == true) {\n          emit LogAllShipsSunk(\"All ships sunk for\", playerName_);\n      }\n\n      return allShipsSunk;\n  }\n\n  function fireShot(uint8 x, uint8 y) isGameInPlay public returns (string) {\n\n      if (compareStrings(currentPlayer.playerName, player1.playerName)) {\n          if (player2.boardMatrix[x][y] >= 1 && player2.boardMatrix[x][y] <= 5) {\n              shotResult = \"HIT\";\n              uint player2ShipType = player2.boardMatrix[x][y];\n\n              player2.boardMatrix[x][y] = HIT;\n              player2.ships[player2ShipType-1].shipDamage++;\n              if (player2.ships[player2ShipType-1].shipDamage == player2ShipType) {\n                  player2.ships[player2ShipType-1].shipStatus = SHIP_SUNK;\n                  emit LogShipSunk(player2.playerName, player2.ships[player2ShipType-1].shipName, \"SUNK\");\n              }\n\n              emit LogShotResult(shotResult,currentPlayer.playerName);\n              if (checkIfWon(currentPlayer.playerName)) {\n                  gameState = GameState.GameEnded;\n                  emit LogGameWon(\"Game Won!\",currentPlayer.playerName);\n              }\n              switchCurrentPlayer();\n              return (shotResult);\n          } else {\n              shotResult = \"MISS\";\n              player2.boardMatrix[x][y] = MISS;\n              emit LogShotResult(shotResult,currentPlayer.playerName);\n\n              switchCurrentPlayer();\n              return (shotResult);\n          }\n      } else {\n          if (player1.boardMatrix[x][y] >= 1 && player1.boardMatrix[x][y] <= 5) {\n              shotResult = \"HIT\";\n              uint player1ShipType = player1.boardMatrix[x][y];\n\n              player1.boardMatrix[x][y] = HIT;\n              player1.ships[player1ShipType-1].shipDamage++;\n              if (player1.ships[player1ShipType-1].shipDamage == player1ShipType) {\n                  player1.ships[player1ShipType-1].shipStatus = SHIP_SUNK;\n                  emit LogShipSunk(player1.playerName, player1.ships[player1ShipType-1].shipName, \"SUNK\");\n              }\n              emit LogShotResult(shotResult,currentPlayer.playerName);\n              if (checkIfWon(currentPlayer.playerName)) {\n                  gameState = GameState.GameEnded;\n                  emit LogGameWon(\"Game Won!\", currentPlayer.playerName);\n              }\n              switchCurrentPlayer();\n              return shotResult;\n          } else {\n              shotResult = 'MISS';\n              player1.boardMatrix[x][y] = MISS;\n              emit LogShotResult(shotResult,currentPlayer.playerName);\n              switchCurrentPlayer();\n              return shotResult;\n          }\n      }\n  }\n\n  function returnBoard(string playerName_) public constant returns (uint) {\n      for (uint8 i=0; i<BOARDSIZE; i++) {\n          if ( compareStrings(playerName_,player1.playerName)) {\n              return player1.boardMatrix[9][9];\n          }\n      }\n  }\n\n  function returnShipStatus() returns (uint) {\n      return player1.ships[0].shipStatus;\n\n  }\n\n  function compareStrings (string a, string b) view returns (bool) {\n       return keccak256(a) == keccak256(b);\n  }\n\n\n}\n",
  "sourcePath": "/Users/chrismilner/Documents/Bluemoon Consulting/projects/Battleship-Final/contracts/Battleship.sol",
  "compiler": {
    "name": "solc",
    "version": "0.4.24+commit.e67f0147.Emscripten.clang"
  },
  "schemaVersion": "2.0.0",
  "updatedAt": "2018-08-28T06:12:04.222Z"
}