{
  "contractName": "Battleship",
  "abi": [
    {
      "inputs": [],
      "payable": false,
      "stateMutability": "nonpayable",
      "type": "constructor"
    },
    {
      "anonymous": false,
      "inputs": [
        {
          "indexed": false,
          "name": "",
          "type": "string"
        },
        {
          "indexed": false,
          "name": "",
          "type": "string"
        }
      ],
      "name": "LogShotResult",
      "type": "event"
    },
    {
      "anonymous": false,
      "inputs": [
        {
          "indexed": false,
          "name": "",
          "type": "string"
        },
        {
          "indexed": false,
          "name": "",
          "type": "string"
        }
      ],
      "name": "LogPlaceLegality",
      "type": "event"
    },
    {
      "anonymous": false,
      "inputs": [
        {
          "indexed": false,
          "name": "",
          "type": "uint256"
        },
        {
          "indexed": false,
          "name": "",
          "type": "uint256"
        }
      ],
      "name": "LogShipStartStop",
      "type": "event"
    },
    {
      "anonymous": false,
      "inputs": [
        {
          "indexed": false,
          "name": "",
          "type": "string"
        }
      ],
      "name": "LogAllShipsPlaced",
      "type": "event"
    },
    {
      "anonymous": false,
      "inputs": [
        {
          "indexed": false,
          "name": "",
          "type": "string"
        },
        {
          "indexed": false,
          "name": "",
          "type": "uint256"
        },
        {
          "indexed": false,
          "name": "",
          "type": "uint256"
        },
        {
          "indexed": false,
          "name": "",
          "type": "uint256"
        }
      ],
      "name": "LogShipPlaced",
      "type": "event"
    },
    {
      "anonymous": false,
      "inputs": [
        {
          "indexed": false,
          "name": "",
          "type": "string"
        },
        {
          "indexed": false,
          "name": "",
          "type": "string"
        },
        {
          "indexed": false,
          "name": "",
          "type": "uint256"
        }
      ],
      "name": "LogCurrentShip",
      "type": "event"
    },
    {
      "anonymous": false,
      "inputs": [
        {
          "indexed": false,
          "name": "",
          "type": "string"
        },
        {
          "indexed": false,
          "name": "",
          "type": "string"
        },
        {
          "indexed": false,
          "name": "",
          "type": "string"
        }
      ],
      "name": "LogShipSunk",
      "type": "event"
    },
    {
      "anonymous": false,
      "inputs": [
        {
          "indexed": false,
          "name": "",
          "type": "string"
        },
        {
          "indexed": false,
          "name": "",
          "type": "string"
        }
      ],
      "name": "LogGameWon",
      "type": "event"
    },
    {
      "anonymous": false,
      "inputs": [
        {
          "indexed": false,
          "name": "",
          "type": "string"
        },
        {
          "indexed": false,
          "name": "",
          "type": "string"
        }
      ],
      "name": "LogAllShipsSunk",
      "type": "event"
    },
    {
      "anonymous": false,
      "inputs": [
        {
          "indexed": false,
          "name": "",
          "type": "string"
        },
        {
          "indexed": false,
          "name": "",
          "type": "string"
        },
        {
          "indexed": false,
          "name": "",
          "type": "uint256"
        }
      ],
      "name": "LogCheckShipStatus",
      "type": "event"
    },
    {
      "constant": true,
      "inputs": [],
      "name": "returnPlayers",
      "outputs": [
        {
          "name": "",
          "type": "string"
        },
        {
          "name": "",
          "type": "string"
        }
      ],
      "payable": false,
      "stateMutability": "view",
      "type": "function"
    },
    {
      "constant": false,
      "inputs": [],
      "name": "toggleContractActive",
      "outputs": [],
      "payable": false,
      "stateMutability": "nonpayable",
      "type": "function"
    },
    {
      "constant": false,
      "inputs": [
        {
          "name": "playerName",
          "type": "string"
        }
      ],
      "name": "registerPlayer",
      "outputs": [],
      "payable": false,
      "stateMutability": "nonpayable",
      "type": "function"
    },
    {
      "constant": false,
      "inputs": [
        {
          "name": "x",
          "type": "uint256"
        },
        {
          "name": "y",
          "type": "uint256"
        },
        {
          "name": "shipType",
          "type": "string"
        },
        {
          "name": "playerName",
          "type": "string"
        },
        {
          "name": "direction",
          "type": "uint256"
        }
      ],
      "name": "placeShip",
      "outputs": [],
      "payable": false,
      "stateMutability": "nonpayable",
      "type": "function"
    },
    {
      "constant": false,
      "inputs": [
        {
          "name": "x",
          "type": "uint256"
        },
        {
          "name": "y",
          "type": "uint256"
        }
      ],
      "name": "fireShot",
      "outputs": [
        {
          "name": "",
          "type": "string"
        }
      ],
      "payable": false,
      "stateMutability": "nonpayable",
      "type": "function"
    }
  ],
  "bytecode": "0x608060405260008060006101000a81548160ff0219169083151502179055503480156200002b57600080fd5b50600260e060006101000a81548160ff021916908360028111156200004c57fe5b02179055506040805190810160405280600781526020017f465249474154450000000000000000000000000000000000000000000000000081525060d16000019080519060200190620000a1929190620004e3565b50600160d16001018190555060d16001015460d160020181905550600060d1600301819055506040805190810160405280600981526020017f5355424d4152494e45000000000000000000000000000000000000000000000081525060d6600001908051906020019062000117929190620004e3565b50600260d66001018190555060d66001015460d660020181905550600060d6600301819055506040805190810160405280600981526020017f44455354524f594552000000000000000000000000000000000000000000000081525060db60000190805190602001906200018d929190620004e3565b50600360db6001018190555060db6001015460db60020181905550600060db60030181905550600160670160d190806001815401808255809150509060018203906000526020600020906005020160009091929091909150600082018160000190805460018160011615610100020316600290046200020e9291906200056a565b5060018201548160010155600282015481600201556003820154816003015560048201548160040155505050600160670160d69080600181540180825580915050906001820390600052602060002090600502016000909192909190915060008201816000019080546001816001161561010002031660029004620002959291906200056a565b5060018201548160010155600282015481600201556003820154816003015560048201548160040155505050600160670160db90806001815401808255809150509060018203906000526020600020906005020160009091929091909150600082018160000190805460018160011615610100020316600290046200031c9291906200056a565b5060018201548160010155600282015481600201556003820154816003015560048201548160040155505050606960670160d19080600181540180825580915050906001820390600052602060002090600502016000909192909190915060008201816000019080546001816001161561010002031660029004620003a39291906200056a565b5060018201548160010155600282015481600201556003820154816003015560048201548160040155505050606960670160d690806001815401808255809150509060018203906000526020600020906005020160009091929091909150600082018160000190805460018160011615610100020316600290046200042a9291906200056a565b5060018201548160010155600282015481600201556003820154816003015560048201548160040155505050606960670160db9080600181540180825580915050906001820390600052602060002090600502016000909192909190915060008201816000019080546001816001161561010002031660029004620004b19291906200056a565b506001820154816001015560028201548160020155600382015481600301556004820154816004015550505062000620565b828054600181600116156101000203166002900490600052602060002090601f016020900481019282601f106200052657805160ff191683800117855562000557565b8280016001018555821562000557579182015b828111156200055657825182559160200191906001019062000539565b5b509050620005669190620005f8565b5090565b828054600181600116156101000203166002900490600052602060002090601f016020900481019282601f10620005a55780548555620005e5565b82800160010185558215620005e557600052602060002091601f016020900482015b82811115620005e4578254825591600101919060010190620005c7565b5b509050620005f49190620005f8565b5090565b6200061d91905b8082111562000619576000816000905550600101620005ff565b5090565b90565b61381b80620006306000396000f30060806040526004361061006d576000357c0100000000000000000000000000000000000000000000000000000000900463ffffffff1680631385d24c14610072578063b3446f8514610089578063cf4be1da146100f2578063d472b87f146101bf578063d69d282d146102bb575b600080fd5b34801561007e57600080fd5b5061008761036b565b005b34801561009557600080fd5b506100f0600480360381019080803590602001908201803590602001908080601f01602080910402602001604051908101604052809392919081815260200183838082843782019150505050505091929192905050506103f1565b005b3480156100fe57600080fd5b506101bd6004803603810190808035906020019092919080359060200190929190803590602001908201803590602001908080601f0160208091040260200160405190810160405280939291908181526020018383808284378201915050505050509192919290803590602001908201803590602001908080601f016020809104026020016040519081016040528093929190818152602001838380828437820191505050505050919291929080359060200190929190505050610677565b005b3480156101cb57600080fd5b506101d461144a565b604051808060200180602001838103835285818151815260200191508051906020019080838360005b838110156102185780820151818401526020810190506101fd565b50505050905090810190601f1680156102455780820380516001836020036101000a031916815260200191505b50838103825284818151815260200191508051906020019080838360005b8381101561027e578082015181840152602081019050610263565b50505050905090810190601f1680156102ab5780820380516001836020036101000a031916815260200191505b5094505050505060405180910390f35b3480156102c757600080fd5b506102f06004803603810190808035906020019092919080359060200190929190505050611597565b6040518080602001828103825283818151815260200191508051906020019080838360005b83811015610330578082015181840152602081019050610315565b50505050905090810190601f16801561035d5780820380516001836020036101000a031916815260200191505b509250505060405180910390f35b600060019054906101000a900473ffffffffffffffffffffffffffffffffffffffff1673ffffffffffffffffffffffffffffffffffffffff163373ffffffffffffffffffffffffffffffffffffffff161415156103c757600080fd5b6000809054906101000a900460ff16156000806101000a81548160ff021916908315150217905550565b606060016000018054600181600116156101000203166002900480601f01602080910402602001604051908101604052809291908181526020018280546001816001161561010002031660029004801561048c5780601f106104615761010080835404028352916020019161048c565b820191906000526020600020905b81548152906001019060200180831161046f57829003601f168201915b505050505090506000815114156105f057336001800160006101000a81548173ffffffffffffffffffffffffffffffffffffffff021916908373ffffffffffffffffffffffffffffffffffffffff16021790555081600160000190805190602001906104f99291906133e7565b50600160e160008201816000019080546001816001161561010002031660029004610525929190613467565b506001820160009054906101000a900473ffffffffffffffffffffffffffffffffffffffff168160010160006101000a81548173ffffffffffffffffffffffffffffffffffffffff021916908373ffffffffffffffffffffffffffffffffffffffff160217905550600282018160020190600a6105a39291906134ee565b506066820160009054906101000a900460ff168160660160006101000a81548160ff02191690831515021790555060678201816067019080546105e792919061353d565b50905050610673565b33606960010160006101000a81548173ffffffffffffffffffffffffffffffffffffffff021916908373ffffffffffffffffffffffffffffffffffffffff160217905550816069600001908051906020019061064d9291906133e7565b50600160e060006101000a81548160ff0219169083600281111561066d57fe5b02179055505b5050565b61067f6135e5565b610687613615565b6000806000806000806001600281111561069d57fe5b60e060009054906101000a900460ff1660028111156106b857fe5b1415156106c457600080fd5b60a06040519081016040528060206040519081016040528060008152508152602001600081526020016000815260200160008152602001600081525097506107a98a60016000018054600181600116156101000203166002900480601f01602080910402602001604051908101604052809291908181526020018280546001816001161561010002031660029004801561079f5780601f106107745761010080835404028352916020019161079f565b820191906000526020600020905b81548152906001019060200180831161078257829003601f168201915b50505050506129d5565b15610a7d57600160a06040519081016040529081600082018054600181600116156101000203166002900480601f0160208091040260200160405190810160405280929190818152602001828054600181600116156101000203166002900480156108555780601f1061082a57610100808354040283529160200191610855565b820191906000526020600020905b81548152906001019060200180831161083857829003601f168201915b505050505081526020016001820160009054906101000a900473ffffffffffffffffffffffffffffffffffffffff1673ffffffffffffffffffffffffffffffffffffffff1673ffffffffffffffffffffffffffffffffffffffff16815260200160028201600a80602002604051908101604052809291906000905b82821015610929578382600a0201600a806020026040519081016040528092919082600a8015610915576020028201915b815481526020019060010190808311610901575b5050505050815260200190600101906108d0565b5050505081526020016066820160009054906101000a900460ff1615151515815260200160678201805480602002602001604051908101604052809291908181526020016000905b82821015610a6e578382906000526020600020906005020160a06040519081016040529081600082018054600181600116156101000203166002900480601f016020809104026020016040519081016040528092919081815260200182805460018160011615610100020316600290048015610a2e5780601f10610a0357610100808354040283529160200191610a2e565b820191906000526020600020905b815481529060010190602001808311610a1157829003601f168201915b5050505050815260200160018201548152602001600282015481526020016003820154815260200160048201548152505081526020019060010190610971565b50505050815250509650610d48565b606960a06040519081016040529081600082018054600181600116156101000203166002900480601f016020809104026020016040519081016040528092919081815260200182805460018160011615610100020316600290048015610b245780601f10610af957610100808354040283529160200191610b24565b820191906000526020600020905b815481529060010190602001808311610b0757829003601f168201915b505050505081526020016001820160009054906101000a900473ffffffffffffffffffffffffffffffffffffffff1673ffffffffffffffffffffffffffffffffffffffff1673ffffffffffffffffffffffffffffffffffffffff16815260200160028201600a80602002604051908101604052809291906000905b82821015610bf8578382600a0201600a806020026040519081016040528092919082600a8015610be4576020028201915b815481526020019060010190808311610bd0575b505050505081526020019060010190610b9f565b5050505081526020016066820160009054906101000a900460ff1615151515815260200160678201805480602002602001604051908101604052809291908181526020016000905b82821015610d3d578382906000526020600020906005020160a06040519081016040529081600082018054600181600116156101000203166002900480601f016020809104026020016040519081016040528092919081815260200182805460018160011615610100020316600290048015610cfd5780601f10610cd257610100808354040283529160200191610cfd565b820191906000526020600020905b815481529060010190602001808311610ce057829003601f168201915b5050505050815260200160018201548152602001600282015481526020016003820154815260200160048201548152505081526020019060010190610c40565b505050508152505096505b610def8b60d16000018054600181600116156101000203166002900480601f016020809104026020016040519081016040528092919081815260200182805460018160011615610100020316600290048015610de55780601f10610dba57610100808354040283529160200191610de5565b820191906000526020600020905b815481529060010190602001808311610dc857829003601f168201915b50505050506129d5565b15610e185786608001516000815181101515610e0757fe5b906020019060200201519750610fb6565b610ebf8b60d66000018054600181600116156101000203166002900480601f016020809104026020016040519081016040528092919081815260200182805460018160011615610100020316600290048015610eb55780601f10610e8a57610100808354040283529160200191610eb5565b820191906000526020600020905b815481529060010190602001808311610e9857829003601f168201915b50505050506129d5565b15610ee85786608001516001815181101515610ed757fe5b906020019060200201519750610fb5565b610f8f8b60db6000018054600181600116156101000203166002900480601f016020809104026020016040519081016040528092919081815260200182805460018160011615610100020316600290048015610f855780601f10610f5a57610100808354040283529160200191610f85565b820191906000526020600020905b815481529060010190602001808311610f6857829003601f168201915b50505050506129d5565b15610fb45786608001516002815181101515610fa757fe5b9060200190602002015197505b5b5b7f85afe4fc04986b6cead49a25b21c3e8f8d92d902967e3fdb2491123dad04fc8c886000015189604001516040518080602001806020018481526020018381038352600f8152602001807f43757272656e7420736869702069730000000000000000000000000000000000815250602001838103825285818151815260200191508051906020019080838360005b8381101561105f578082015181840152602081019050611044565b50505050905090810190601f16801561108c5780820380516001836020036101000a031916815260200191505b5094505050505060405180910390a18c95506110b588602001518e612aae90919063ffffffff16565b94508b93506110d188602001518d612aae90919063ffffffff16565b925060008d101580156110e5575060008c10155b15156110f057600080fd5b600a851080156111005750600a83105b151561110b57600080fd5b6000886060015114151561111e57600080fd5b6000891415611246578591505b8482101561124157600060e160020183600a8110151561114757fe5b600a02018d600a8110151561115857fe5b015414151561116657600080fd5b8760400151876040015183600a8110151561117d57fe5b60200201518d600a8110151561118f57fe5b60200201818152505060018860600181815250507f7640287f811ab1b4e37aaf4739f0b3d8f87a9e7efd4369dc5826ec5edaa8fc74828d8a604001516040518080602001858152602001848152602001838152602001828103825260178152602001807f5368697020706c61636564206174206c6f636174696f6e00000000000000000081525060200194505050505060405180910390a161123b600183612aae90919063ffffffff16565b5061112b565b6112dd565b8391505b828210156112dc57600060e16002018e600a8110151561126657fe5b600a020183600a8110151561127757fe5b015414151561128557600080fd5b876040015187604001518e600a8110151561129c57fe5b602002015183600a811015156112ae57fe5b60200201818152505060018860600181815250506112d6600183612aae90919063ffffffff16565b5061124a565b5b60019050600091505b60016067018054905082101561134157600060016067018381548110151561130a57fe5b906000526020600020906005020160030154141561132757600090505b61133b600183612aae90919063ffffffff16565b506112e6565b600091505b6069606701805490508210156113a157600060696067018381548110151561136a57fe5b906000526020600020906005020160030154141561138757600090505b61139b600183612aae90919063ffffffff16565b50611346565b60011515811515141561143b577f9af59cc428db7b85fee9d4f846623c39c1728a0cc1259e15df1bfd974540366f6040518080602001828103825260108152602001807f416c6c20536869707320506c616365640000000000000000000000000000000081525060200191505060405180910390a1600060e060006101000a81548160ff0219169083600281111561143557fe5b02179055505b50505050505050505050505050565b60608060016000016069600001818054600181600116156101000203166002900480601f0160208091040260200160405190810160405280929190818152602001828054600181600116156101000203166002900480156114ec5780601f106114c1576101008083540402835291602001916114ec565b820191906000526020600020905b8154815290600101906020018083116114cf57829003601f168201915b50505050509150808054600181600116156101000203166002900480601f0160208091040260200160405190810160405280929190818152602001828054600181600116156101000203166002900480156115885780601f1061155d57610100808354040283529160200191611588565b820191906000526020600020905b81548152906001019060200180831161156b57829003601f168201915b50505050509050915091509091565b6060600080600060028111156115a957fe5b60e060009054906101000a900460ff1660028111156115c457fe5b1415156115d057600080fd5b61171460e16000018054600181600116156101000203166002900480601f01602080910402602001604051908101604052809291908181526020018280546001816001161561010002031660029004801561166c5780601f106116415761010080835404028352916020019161166c565b820191906000526020600020905b81548152906001019060200180831161164f57829003601f168201915b505050505060016000018054600181600116156101000203166002900480601f01602080910402602001604051908101604052809291908181526020018280546001816001161561010002031660029004801561170a5780601f106116df5761010080835404028352916020019161170a565b820191906000526020600020905b8154815290600101906020018083116116ed57829003601f168201915b50505050506129d5565b15612076576001606960020186600a8110151561172d57fe5b600a020185600a8110151561173e57fe5b01541015801561177357506005606960020186600a8110151561175d57fe5b600a020185600a8110151561176e57fe5b015411155b15611e0b576040805190810160405280600381526020017f484954000000000000000000000000000000000000000000000000000000000081525061014990805190602001906117c49291906133e7565b50606960020185600a811015156117d757fe5b600a020184600a811015156117e857fe5b015491506009606960020186600a8110151561180057fe5b600a020185600a8110151561181157fe5b0181905550611850600160696067016001850381548110151561183057fe5b906000526020600020906005020160040154612aae90919063ffffffff16565b508160696067016001840381548110151561186757fe5b9060005260206000209060050201600401541415611a5157600260696067016001840381548110151561189657fe5b9060005260206000209060050201600301819055507fc7823d86aed598df035ea41d58540dc0caa7333d677c1a973b63b28109812e9760696000016069606701600185038154811015156118e657fe5b9060005260206000209060050201600001604051808060200180602001806020018481038452868181546001816001161561010002031660029004815260200191508054600181600116156101000203166002900480156119885780601f1061195d57610100808354040283529160200191611988565b820191906000526020600020905b81548152906001019060200180831161196b57829003601f168201915b5050848103835285818154600181600116156101000203166002900481526020019150805460018160011615610100020316600290048015611a0b5780601f106119e057610100808354040283529160200191611a0b565b820191906000526020600020905b8154815290600101906020018083116119ee57829003601f168201915b5050848103825260048152602001807f53554e4b000000000000000000000000000000000000000000000000000000008152506020019550505050505060405180910390a15b7fc853987460a693146896537e8c75eb17519cba9e2d443a1bbd33ccd6ae602c1861014960e1600001604051808060200180602001838103835285818154600181600116156101000203166002900481526020019150805460018160011615610100020316600290048015611b075780601f10611adc57610100808354040283529160200191611b07565b820191906000526020600020905b815481529060010190602001808311611aea57829003601f168201915b5050838103825284818154600181600116156101000203166002900481526020019150805460018160011615610100020316600290048015611b8a5780601f10611b5f57610100808354040283529160200191611b8a565b820191906000526020600020905b815481529060010190602001808311611b6d57829003601f168201915b505094505050505060405180910390a1611c4060e16000018054600181600116156101000203166002900480601f016020809104026020016040519081016040528092919081815260200182805460018160011615610100020316600290048015611c365780601f10611c0b57610100808354040283529160200191611c36565b820191906000526020600020905b815481529060010190602001808311611c1957829003601f168201915b5050505050612aca565b15611d6057600260e060006101000a81548160ff02191690836002811115611c6457fe5b02179055507f9bf3a3ee7743d8ce8ae78fd7450036ece624f1858a4af1b2ef0a509e14ec349360e1600001604051808060200180602001838103835260098152602001807f47616d6520576f6e210000000000000000000000000000000000000000000000815250602001838103825284818154600181600116156101000203166002900481526020019150805460018160011615610100020316600290048015611d505780601f10611d2557610100808354040283529160200191611d50565b820191906000526020600020905b815481529060010190602001808311611d3357829003601f168201915b5050935050505060405180910390a15b611d686130b4565b6101498054600181600116156101000203166002900480601f016020809104026020016040519081016040528092919081815260200182805460018160011615610100020316600290048015611dff5780601f10611dd457610100808354040283529160200191611dff565b820191906000526020600020905b815481529060010190602001808311611de257829003601f168201915b505050505092506129cd565b6040805190810160405280600481526020017f4d495353000000000000000000000000000000000000000000000000000000008152506101499080519060200190611e579291906133e7565b506008606960020186600a81101515611e6c57fe5b600a020185600a81101515611e7d57fe5b01819055507fc853987460a693146896537e8c75eb17519cba9e2d443a1bbd33ccd6ae602c1861014960e1600001604051808060200180602001838103835285818154600181600116156101000203166002900481526020019150805460018160011615610100020316600290048015611f385780601f10611f0d57610100808354040283529160200191611f38565b820191906000526020600020905b815481529060010190602001808311611f1b57829003601f168201915b5050838103825284818154600181600116156101000203166002900481526020019150805460018160011615610100020316600290048015611fbb5780601f10611f9057610100808354040283529160200191611fbb565b820191906000526020600020905b815481529060010190602001808311611f9e57829003601f168201915b505094505050505060405180910390a1611fd36130b4565b6101498054600181600116156101000203166002900480601f01602080910402602001604051908101604052809291908181526020018280546001816001161561010002031660029004801561206a5780601f1061203f5761010080835404028352916020019161206a565b820191906000526020600020905b81548152906001019060200180831161204d57829003601f168201915b505050505092506129cd565b60018060020186600a8110151561208957fe5b600a020185600a8110151561209a57fe5b0154101580156120cf57506005600160020186600a811015156120b957fe5b600a020185600a811015156120ca57fe5b015411155b15612766576040805190810160405280600381526020017f484954000000000000000000000000000000000000000000000000000000000081525061014990805190602001906121209291906133e7565b50600160020185600a8110151561213357fe5b600a020184600a8110151561214457fe5b015490506009600160020186600a8110151561215c57fe5b600a020185600a8110151561216d57fe5b01819055506121ab6001806067016001840381548110151561218b57fe5b906000526020600020906005020160040154612aae90919063ffffffff16565b50806001606701600183038154811015156121c257fe5b90600052602060002090600502016004015414156123ac5760026001606701600183038154811015156121f157fe5b9060005260206000209060050201600301819055507fc7823d86aed598df035ea41d58540dc0caa7333d677c1a973b63b28109812e97600160000160016067016001840381548110151561224157fe5b9060005260206000209060050201600001604051808060200180602001806020018481038452868181546001816001161561010002031660029004815260200191508054600181600116156101000203166002900480156122e35780601f106122b8576101008083540402835291602001916122e3565b820191906000526020600020905b8154815290600101906020018083116122c657829003601f168201915b50508481038352858181546001816001161561010002031660029004815260200191508054600181600116156101000203166002900480156123665780601f1061233b57610100808354040283529160200191612366565b820191906000526020600020905b81548152906001019060200180831161234957829003601f168201915b5050848103825260048152602001807f53554e4b000000000000000000000000000000000000000000000000000000008152506020019550505050505060405180910390a15b7fc853987460a693146896537e8c75eb17519cba9e2d443a1bbd33ccd6ae602c1861014960e16000016040518080602001806020018381038352858181546001816001161561010002031660029004815260200191508054600181600116156101000203166002900480156124625780601f1061243757610100808354040283529160200191612462565b820191906000526020600020905b81548152906001019060200180831161244557829003601f168201915b50508381038252848181546001816001161561010002031660029004815260200191508054600181600116156101000203166002900480156124e55780601f106124ba576101008083540402835291602001916124e5565b820191906000526020600020905b8154815290600101906020018083116124c857829003601f168201915b505094505050505060405180910390a161259b60e16000018054600181600116156101000203166002900480601f0160208091040260200160405190810160405280929190818152602001828054600181600116156101000203166002900480156125915780601f1061256657610100808354040283529160200191612591565b820191906000526020600020905b81548152906001019060200180831161257457829003601f168201915b5050505050612aca565b156126bb57600260e060006101000a81548160ff021916908360028111156125bf57fe5b02179055507f9bf3a3ee7743d8ce8ae78fd7450036ece624f1858a4af1b2ef0a509e14ec349360e1600001604051808060200180602001838103835260098152602001807f47616d6520576f6e2100000000000000000000000000000000000000000000008152506020018381038252848181546001816001161561010002031660029004815260200191508054600181600116156101000203166002900480156126ab5780601f10612680576101008083540402835291602001916126ab565b820191906000526020600020905b81548152906001019060200180831161268e57829003601f168201915b5050935050505060405180910390a15b6126c36130b4565b6101498054600181600116156101000203166002900480601f01602080910402602001604051908101604052809291908181526020018280546001816001161561010002031660029004801561275a5780601f1061272f5761010080835404028352916020019161275a565b820191906000526020600020905b81548152906001019060200180831161273d57829003601f168201915b505050505092506129cd565b6040805190810160405280600481526020017f4d4953530000000000000000000000000000000000000000000000000000000081525061014990805190602001906127b29291906133e7565b506008600160020186600a811015156127c757fe5b600a020185600a811015156127d857fe5b01819055507fc853987460a693146896537e8c75eb17519cba9e2d443a1bbd33ccd6ae602c1861014960e16000016040518080602001806020018381038352858181546001816001161561010002031660029004815260200191508054600181600116156101000203166002900480156128935780601f1061286857610100808354040283529160200191612893565b820191906000526020600020905b81548152906001019060200180831161287657829003601f168201915b50508381038252848181546001816001161561010002031660029004815260200191508054600181600116156101000203166002900480156129165780601f106128eb57610100808354040283529160200191612916565b820191906000526020600020905b8154815290600101906020018083116128f957829003601f168201915b505094505050505060405180910390a161292e6130b4565b6101498054600181600116156101000203166002900480601f0160208091040260200160405190810160405280929190818152602001828054600181600116156101000203166002900480156129c55780601f1061299a576101008083540402835291602001916129c5565b820191906000526020600020905b8154815290600101906020018083116129a857829003601f168201915b505050505092505b505092915050565b6000816040518082805190602001908083835b602083101515612a0d57805182526020820191506020810190506020830392506129e8565b6001836020036101000a038019825116818451168082178552505050505050905001915050604051809103902060001916836040518082805190602001908083835b602083101515612a745780518252602082019150602081019050602083039250612a4f565b6001836020036101000a03801982511681845116808217855250505050505090500191505060405180910390206000191614905092915050565b60008183019050828110151515612ac157fe5b80905092915050565b600080600060019150612b7a8460016000018054600181600116156101000203166002900480601f016020809104026020016040519081016040528092919081815260200182805460018160011615610100020316600290048015612b705780601f10612b4557610100808354040283529160200191612b70565b820191906000526020600020905b815481529060010190602001808311612b5357829003601f168201915b50505050506129d5565b15612d4d57600090505b6003811015612d4c577fc3da6c647812f051d53aec42e018703dfb4a3947c4f7fa6554fe2a07e0539b6984606960670183815481101515612bc157fe5b9060005260206000209060050201600001606960670184815481101515612be457fe5b906000526020600020906005020160030154604051808060200180602001848152602001838103835286818151815260200191508051906020019080838360005b83811015612c40578082015181840152602081019050612c25565b50505050905090810190601f168015612c6d5780820380516001836020036101000a031916815260200191505b50838103825285818154600181600116156101000203166002900481526020019150805460018160011615610100020316600290048015612cef5780601f10612cc457610100808354040283529160200191612cef565b820191906000526020600020905b815481529060010190602001808311612cd257829003601f168201915b50509550505050505060405180910390a16002606960670182815481101515612d1457fe5b906000526020600020906005020160030154141515612d3257600091505b612d46600182612aae90919063ffffffff16565b50612b84565b5b612df48460696000018054600181600116156101000203166002900480601f016020809104026020016040519081016040528092919081815260200182805460018160011615610100020316600290048015612dea5780601f10612dbf57610100808354040283529160200191612dea565b820191906000526020600020905b815481529060010190602001808311612dcd57829003601f168201915b50505050506129d5565b15612fc757600090505b6003811015612fc6577fc3da6c647812f051d53aec42e018703dfb4a3947c4f7fa6554fe2a07e0539b6984600160670183815481101515612e3b57fe5b9060005260206000209060050201600001600160670184815481101515612e5e57fe5b906000526020600020906005020160030154604051808060200180602001848152602001838103835286818151815260200191508051906020019080838360005b83811015612eba578082015181840152602081019050612e9f565b50505050905090810190601f168015612ee75780820380516001836020036101000a031916815260200191505b50838103825285818154600181600116156101000203166002900481526020019150805460018160011615610100020316600290048015612f695780601f10612f3e57610100808354040283529160200191612f69565b820191906000526020600020905b815481529060010190602001808311612f4c57829003601f168201915b50509550505050505060405180910390a16002600160670182815481101515612f8e57fe5b906000526020600020906005020160030154141515612fac57600091505b612fc0600182612aae90919063ffffffff16565b50612dfe565b5b6001151582151514156130aa577f43e218a52ed7135da92840e41483c8c54d5d9ddbd14032901787304294237a7e84604051808060200180602001838103835260128152602001807f416c6c2073686970732073756e6b20666f720000000000000000000000000000815250602001838103825284818151815260200191508051906020019080838360005b8381101561306e578082015181840152602081019050613053565b50505050905090810190601f16801561309b5780820380516001836020036101000a031916815260200191505b50935050505060405180910390a15b8192505050919050565b6131f860e16000018054600181600116156101000203166002900480601f0160208091040260200160405190810160405280929190818152602001828054600181600116156101000203166002900480156131505780601f1061312557610100808354040283529160200191613150565b820191906000526020600020905b81548152906001019060200180831161313357829003601f168201915b505050505060016000018054600181600116156101000203166002900480601f0160208091040260200160405190810160405280929190818152602001828054600181600116156101000203166002900480156131ee5780601f106131c3576101008083540402835291602001916131ee565b820191906000526020600020905b8154815290600101906020018083116131d157829003601f168201915b50505050506129d5565b156132f357606960e160008201816000019080546001816001161561010002031660029004613228929190613467565b506001820160009054906101000a900473ffffffffffffffffffffffffffffffffffffffff168160010160006101000a81548173ffffffffffffffffffffffffffffffffffffffff021916908373ffffffffffffffffffffffffffffffffffffffff160217905550600282018160020190600a6132a69291906134ee565b506066820160009054906101000a900460ff168160660160006101000a81548160ff02191690831515021790555060678201816067019080546132ea92919061353d565b509050506133e5565b600160e16000820181600001908054600181600116156101000203166002900461331e929190613467565b506001820160009054906101000a900473ffffffffffffffffffffffffffffffffffffffff168160010160006101000a81548173ffffffffffffffffffffffffffffffffffffffff021916908373ffffffffffffffffffffffffffffffffffffffff160217905550600282018160020190600a61339c9291906134ee565b506066820160009054906101000a900460ff168160660160006101000a81548160ff02191690831515021790555060678201816067019080546133e092919061353d565b509050505b565b828054600181600116156101000203166002900490600052602060002090601f016020900481019282601f1061342857805160ff1916838001178555613456565b82800160010185558215613456579182015b8281111561345557825182559160200191906001019061343a565b5b5090506134639190613664565b5090565b828054600181600116156101000203166002900490600052602060002090601f016020900481019282601f106134a057805485556134dd565b828001600101855582156134dd57600052602060002091601f016020900482015b828111156134dc5782548255916001019190600101906134c1565b5b5090506134ea9190613664565b5090565b82600a8002810192821561352c5791600a0282015b8281111561352b57828290600a61351b929190613689565b5091600a019190600a0190613503565b5b50905061353991906136c6565b5090565b8280548282559060005260206000209060050281019282156135d45760005260206000209160050282015b828111156135d357828260008201816000019080546001816001161561010002031660029004613599929190613467565b5060018201548160010155600282015481600201556003820154816003015560048201548160040155505091600501919060050190613568565b5b5090506135e191906136f2565b5090565b60a06040519081016040528060608152602001600081526020016000815260200160008152602001600081525090565b610d006040519081016040528060608152602001600073ffffffffffffffffffffffffffffffffffffffff16815260200161364e613741565b8152602001600015158152602001606081525090565b61368691905b8082111561368257600081600090555060010161366a565b5090565b90565b82600a81019282156136b5579182015b828111156136b4578254825591600101919060010190613699565b5b5090506136c29190613664565b5090565b6136ef91905b808211156136eb57600081816136e29190613770565b50600a016136cc565b5090565b90565b61373e91905b8082111561373a57600080820160006137119190613783565b6001820160009055600282016000905560038201600090556004820160009055506005016136f8565b5090565b90565b610c8060405190810160405280600a905b61375a6137cb565b8152602001906001900390816137525790505090565b5080600a01906137809190613664565b50565b50805460018160011615610100020316600290046000825580601f106137a957506137c8565b601f0160209004906000526020600020908101906137c79190613664565b5b50565b61014060405190810160405280600a906020820280388339808201915050905050905600a165627a7a72305820b76b24eadb974f5cf06aba062ecac09a86d44253f0998064990bc2480dea1b710029",
  "source": "pragma solidity ^0.4.24;\n\nimport \"./SafeMath.sol\";\n\n/// @title Battleship game\n/// @author Chris Milner\ncontract Battleship {\n  using SafeMath for uint256;\n\n  enum GameState {InPlay, PlacingShips, GameEnded}\n\n  uint constant BOARDSIZE = 10;\n\n  bool private stopped = false;\n  address private owner;\n\n struct ship {\n      string shipName;\n      uint shipLength;\n      uint shipCode;\n      uint shipStatus;\n      uint shipDamage;\n  }\n\n  struct playerState {\n      string playerName;\n      address playerAddr;\n      uint[BOARDSIZE][BOARDSIZE] boardMatrix;\n      bool isActive;\n      ship[] ships;\n  }\n\n  playerState player1;\n  playerState player2;\n\n  ship frigate;\n  ship submarine;\n  ship destroyer;\n\n  GameState gameState;\n\n  playerState currentPlayer;\n\n  string shotResult;\n\n  uint constant MISS = 8;\n  uint constant HIT = 9;\n\n  uint constant SHIP_FREE = 0;\n  uint constant SHIP_PLACED = 1;\n  uint constant SHIP_SUNK = 2;\n\n  uint constant HORIZONTAL = 0;\n  uint constant VERTICAL = 1;\n\n  uint constant NUM_OF_SHIPS = 3;\n\n   constructor() public {\n    gameState = GameState.GameEnded;\n\n    frigate.shipName = \"FRIGATE\";\n    frigate.shipLength = 1;\n    frigate.shipCode = frigate.shipLength;\n    frigate.shipStatus = SHIP_FREE;\n    submarine.shipName = \"SUBMARINE\";\n    submarine.shipLength = 2;\n    submarine.shipCode = submarine.shipLength;\n    submarine.shipStatus = SHIP_FREE;\n    destroyer.shipName = \"DESTROYER\";\n    destroyer.shipLength = 3;\n    destroyer.shipCode = destroyer.shipLength;\n    destroyer.shipStatus = SHIP_FREE;\n\n    player1.ships.push(frigate);\n    player1.ships.push(submarine);\n    player1.ships.push(destroyer);\n    player2.ships.push(frigate);\n    player2.ships.push(submarine);\n    player2.ships.push(destroyer);\n\n  }\n\n  event LogShotResult(string, string);\n  event LogPlaceLegality(string, string);\n  event LogShipStartStop(uint,uint);\n  event LogAllShipsPlaced(string);\n  event LogShipPlaced(string,uint,uint,uint);\n  event LogCurrentShip(string,string,uint);\n  event LogShipSunk(string,string,string);\n  event LogGameWon(string,string);\n  event LogAllShipsSunk(string,string);\n  event LogCheckShipStatus(string,string,uint);\n\n  modifier isAdmin() {\n    if(msg.sender != owner) {\n        revert();\n    }\n    _;\n  }\n\n  modifier stopInEmergency { if (!stopped) _; }\n\n  modifier onlyInEmergency { if (stopped) _; }\n\n  modifier isGameInPlay {\n    require(gameState == GameState.InPlay);\n    _;\n  }\n\n modifier hasGameEnded {\n    require(gameState == GameState.GameEnded);\n    _;\n  }\n\n  modifier playersRegistered {\n      require(gameState == GameState.PlacingShips);\n      _;\n  }\n\n  /// @notice Returns the names of the players registered\n  /// @dev This is more for testing purposes but would have been used in the\n  /// complete version of the game.\n  /// @return Returns two strings holding each player name.\n  function returnPlayers() constant public returns (string,string) {\n    return (player1.playerName, player2.playerName);\n  }\n\n  /// @notice Toggles our circuit breaker boolean\n  function toggleContractActive() isAdmin public\n  {\n    stopped = !stopped;\n  }\n\n  /// @notice Registers the players name and addresses\n  /// @dev The address was captured but not used in this limited form\n  /// of the game. Future use would be to have the address listed in the\n  /// lobby which has yet to be implemented.\n  /// @param playerName the name of the player.\n  function registerPlayer(string playerName) public {\n\n    bytes memory tempEmptyStringTest = bytes(player1.playerName);\n\n    if (tempEmptyStringTest.length == 0) {\n      player1.playerAddr = msg.sender;\n      player1.playerName = playerName;\n      currentPlayer = player1;\n    } else {\n      player2.playerAddr = msg.sender;\n      player2.playerName = playerName;\n      gameState = GameState.PlacingShips;\n    }\n  }\n\n  /// @notice Places a ship during the set up of the game\n  /// @dev Players must have registered before they can place a ship\n  /// @param x is x coordindate, y is the y coordinate to start the placement, shipType is\n  /// the type of ship being placed, playerName is the name of the player\n  /// placing and direction is 0 or 1 (horizontal or vertical)\n  function placeShip(uint x, uint y, string shipType, string playerName, uint direction) public playersRegistered {\n\n      ship memory currentShip = ship(\"\", 0, 0, 0, 0);\n\n      playerState memory placingPlayer;\n\n      if (compareStrings(playerName, player1.playerName)) {\n          placingPlayer = player1;\n      } else {\n          placingPlayer = player2;\n      }\n\n      if (compareStrings(shipType, frigate.shipName)) {\n          currentShip = placingPlayer.ships[0];\n      } else if (compareStrings(shipType, submarine.shipName)) {\n          currentShip = placingPlayer.ships[1];\n        } else if (compareStrings(shipType, destroyer.shipName)) {\n              currentShip = placingPlayer.ships[2];\n          }\n\n      emit LogCurrentShip(\"Current ship is\",currentShip.shipName, currentShip.shipCode);\n\n      uint startSquareX = x;\n      uint endSquareX = x.add(currentShip.shipLength);\n      uint startSquareY = y;\n      uint endSquareY = y.add(currentShip.shipLength);\n\n      require(x >= 0 && y >= 0);\n      require(endSquareX < BOARDSIZE && endSquareY < BOARDSIZE);\n      require(currentShip.shipStatus == SHIP_FREE);\n\n      if (direction == HORIZONTAL) {\n          for (uint i=startSquareX; i<endSquareX; i.add(1)) {\n              require(currentPlayer.boardMatrix[i][y] == 0);\n              placingPlayer.boardMatrix[i][y] = currentShip.shipCode;\n              currentShip.shipStatus = SHIP_PLACED;\n              emit LogShipPlaced(\"Ship placed at location\",i,y,currentShip.shipCode);\n            }\n          } else {\n            for (i=startSquareY; i<endSquareY; i.add(1)) {\n              require(currentPlayer.boardMatrix[x][i] == 0);\n              placingPlayer.boardMatrix[x][i] = currentShip.shipCode;\n              currentShip.shipStatus = SHIP_PLACED;\n            }\n      }\n\n      bool allShipsPlaced = true;\n\n      for (i=0; i<player1.ships.length; i.add(1)) {\n          if (player1.ships[i].shipStatus == SHIP_FREE) {\n            allShipsPlaced = false;\n          }\n      }\n      for (i=0; i<player2.ships.length; i.add(1)) {\n        if (player2.ships[i].shipStatus == SHIP_FREE) {\n          allShipsPlaced = false;\n        }\n      }\n      if (allShipsPlaced == true) {\n          emit LogAllShipsPlaced(\"All Ships Placed\");\n          gameState = GameState.InPlay;\n      }\n  }\n\n  /// @notice Sets the state variable currentPlayer to the player\n  /// whos turn it is\n  /// @dev This should be reviewed in future as it may be unsafe to assign\n  /// temporary state variables in this way (by copy). The code works so\n  /// keeping with this for now.\n  function switchCurrentPlayer() internal {\n      if (compareStrings(currentPlayer.playerName, player1.playerName)) {\n          currentPlayer = player2;\n      } else {\n          currentPlayer = player1;\n      }\n  }\n\n  /// @notice Called from fireShot and checks if a player has sunk all\n  /// opponents ships.\n  /// @dev Loops through the opponents ships array and checks for each\n  /// shipStatus\n  /// @param playerName_ holds the name of the player we are checking\n  /// @return true if all ships are SHIP_SUNK\n  function checkIfWon(string playerName_) private returns (bool) {\n\n      bool allShipsSunk = true;\n\n      if (compareStrings(playerName_, player1.playerName)) {\n          for (uint i=0; i<NUM_OF_SHIPS; i.add(1)) {\n            emit LogCheckShipStatus(playerName_,player2.ships[i].shipName,player2.ships[i].shipStatus);\n            if (player2.ships[i].shipStatus != SHIP_SUNK) {\n              allShipsSunk = false;\n            }\n           }\n      }\n      if (compareStrings(playerName_, player2.playerName)) {\n          for (i=0; i<NUM_OF_SHIPS; i.add(1)) {\n            emit LogCheckShipStatus(playerName_,player1.ships[i].shipName,player1.ships[i].shipStatus);\n            if (player1.ships[i].shipStatus != SHIP_SUNK) {\n              allShipsSunk = false;\n            }\n           }\n      }\n      if (allShipsSunk == true) {\n          emit LogAllShipsSunk(\"All ships sunk for\", playerName_);\n      }\n      return allShipsSunk;\n  }\n\n  /// @notice Fires a shot\n  /// @dev We use currentPlayer to automatically get the current player\n  /// who's turn it is and after a shot is fired, switchCurrentPlayer is called.\n  /// @param x is the x coordinate of the guess, y is the y coordinate of the guess\n  /// @return shotResult, HIT or MISS string\n  function fireShot(uint x, uint y) isGameInPlay public returns (string) {\n      if (compareStrings(currentPlayer.playerName, player1.playerName)) {\n          if (player2.boardMatrix[x][y] >= 1 && player2.boardMatrix[x][y] <= 5) {\n              shotResult = \"HIT\";\n              uint player2ShipType = player2.boardMatrix[x][y];\n\n              player2.boardMatrix[x][y] = HIT;\n              player2.ships[player2ShipType-1].shipDamage.add(1);\n              if (player2.ships[player2ShipType-1].shipDamage == player2ShipType) {\n                  player2.ships[player2ShipType-1].shipStatus = SHIP_SUNK;\n                  emit LogShipSunk(player2.playerName, player2.ships[player2ShipType-1].shipName, \"SUNK\");\n              }\n\n              emit LogShotResult(shotResult,currentPlayer.playerName);\n              if (checkIfWon(currentPlayer.playerName)) {\n                  gameState = GameState.GameEnded;\n                  emit LogGameWon(\"Game Won!\",currentPlayer.playerName);\n              }\n              switchCurrentPlayer();\n              return (shotResult);\n          } else {\n              shotResult = \"MISS\";\n              player2.boardMatrix[x][y] = MISS;\n              emit LogShotResult(shotResult,currentPlayer.playerName);\n\n              switchCurrentPlayer();\n              return (shotResult);\n          }\n      } else {\n          if (player1.boardMatrix[x][y] >= 1 && player1.boardMatrix[x][y] <= 5) {\n              shotResult = \"HIT\";\n              uint player1ShipType = player1.boardMatrix[x][y];\n\n              player1.boardMatrix[x][y] = HIT;\n              player1.ships[player1ShipType-1].shipDamage.add(1);\n              if (player1.ships[player1ShipType-1].shipDamage == player1ShipType) {\n                  player1.ships[player1ShipType-1].shipStatus = SHIP_SUNK;\n                  emit LogShipSunk(player1.playerName, player1.ships[player1ShipType-1].shipName, \"SUNK\");\n              }\n              emit LogShotResult(shotResult,currentPlayer.playerName);\n              if (checkIfWon(currentPlayer.playerName)) {\n                  gameState = GameState.GameEnded;\n                  emit LogGameWon(\"Game Won!\", currentPlayer.playerName);\n              }\n              switchCurrentPlayer();\n              return shotResult;\n          } else {\n              shotResult = 'MISS';\n              player1.boardMatrix[x][y] = MISS;\n              emit LogShotResult(shotResult,currentPlayer.playerName);\n              switchCurrentPlayer();\n              return shotResult;\n          }\n      }\n  }\n\n  /// @notice Function to compare two strings\n  /// @dev This was copied from a source on the internet as no built-in\n  /// functions currently exist to compare strings\n  /// @param a first string, b second string\n  /// @return true is strings are identical\n  function compareStrings (string a, string b) private pure returns (bool) {\n       return keccak256(a) == keccak256(b);\n  }\n\n}\n",
  "sourcePath": "/Users/chrismilner/Documents/Bluemoon Consulting/projects/Battleship-Final/contracts/Battleship.sol",
  "compiler": {
    "name": "solc",
    "version": "0.4.24+commit.e67f0147.Emscripten.clang"
  },
  "schemaVersion": "2.0.0",
  "updatedAt": "2018-08-28T09:47:36.382Z"
}