{
  "contractName": "Battleships",
  "abi": [
    {
      "inputs": [],
      "payable": false,
      "stateMutability": "nonpayable",
      "type": "constructor"
    },
    {
      "anonymous": false,
      "inputs": [
        {
          "indexed": false,
          "name": "",
          "type": "string"
        },
        {
          "indexed": false,
          "name": "",
          "type": "string"
        }
      ],
      "name": "LogShotResult",
      "type": "event"
    },
    {
      "anonymous": false,
      "inputs": [
        {
          "indexed": false,
          "name": "",
          "type": "string"
        },
        {
          "indexed": false,
          "name": "",
          "type": "string"
        }
      ],
      "name": "LogPlaceLegality",
      "type": "event"
    },
    {
      "anonymous": false,
      "inputs": [
        {
          "indexed": false,
          "name": "",
          "type": "uint256"
        },
        {
          "indexed": false,
          "name": "",
          "type": "uint256"
        }
      ],
      "name": "LogShipStartStop",
      "type": "event"
    },
    {
      "anonymous": false,
      "inputs": [
        {
          "indexed": false,
          "name": "",
          "type": "string"
        }
      ],
      "name": "LogAllShipsPlaced",
      "type": "event"
    },
    {
      "anonymous": false,
      "inputs": [
        {
          "indexed": false,
          "name": "",
          "type": "string"
        },
        {
          "indexed": false,
          "name": "",
          "type": "uint256"
        },
        {
          "indexed": false,
          "name": "",
          "type": "uint256"
        },
        {
          "indexed": false,
          "name": "",
          "type": "uint256"
        }
      ],
      "name": "LogShipPlaced",
      "type": "event"
    },
    {
      "anonymous": false,
      "inputs": [
        {
          "indexed": false,
          "name": "",
          "type": "string"
        },
        {
          "indexed": false,
          "name": "",
          "type": "string"
        },
        {
          "indexed": false,
          "name": "",
          "type": "uint256"
        }
      ],
      "name": "LogCurrentShip",
      "type": "event"
    },
    {
      "anonymous": false,
      "inputs": [
        {
          "indexed": false,
          "name": "",
          "type": "string"
        },
        {
          "indexed": false,
          "name": "",
          "type": "string"
        },
        {
          "indexed": false,
          "name": "",
          "type": "string"
        }
      ],
      "name": "LogShipSunk",
      "type": "event"
    },
    {
      "anonymous": false,
      "inputs": [
        {
          "indexed": false,
          "name": "",
          "type": "string"
        },
        {
          "indexed": false,
          "name": "",
          "type": "string"
        }
      ],
      "name": "LogGameWon",
      "type": "event"
    },
    {
      "anonymous": false,
      "inputs": [
        {
          "indexed": false,
          "name": "",
          "type": "string"
        },
        {
          "indexed": false,
          "name": "",
          "type": "string"
        }
      ],
      "name": "LogAllShipsSunk",
      "type": "event"
    },
    {
      "anonymous": false,
      "inputs": [
        {
          "indexed": false,
          "name": "",
          "type": "string"
        },
        {
          "indexed": false,
          "name": "",
          "type": "string"
        },
        {
          "indexed": false,
          "name": "",
          "type": "uint8"
        }
      ],
      "name": "LogCheckShipStatus",
      "type": "event"
    },
    {
      "constant": true,
      "inputs": [],
      "name": "returnPlayer",
      "outputs": [
        {
          "name": "",
          "type": "string"
        }
      ],
      "payable": false,
      "stateMutability": "view",
      "type": "function"
    },
    {
      "constant": false,
      "inputs": [],
      "name": "toggleContractActive",
      "outputs": [],
      "payable": false,
      "stateMutability": "nonpayable",
      "type": "function"
    },
    {
      "constant": false,
      "inputs": [
        {
          "name": "playerName",
          "type": "string"
        }
      ],
      "name": "registerPlayer",
      "outputs": [],
      "payable": false,
      "stateMutability": "nonpayable",
      "type": "function"
    },
    {
      "constant": false,
      "inputs": [
        {
          "name": "x",
          "type": "uint8"
        },
        {
          "name": "y",
          "type": "uint8"
        },
        {
          "name": "shipType",
          "type": "string"
        },
        {
          "name": "playerName",
          "type": "string"
        },
        {
          "name": "direction",
          "type": "uint8"
        }
      ],
      "name": "placeShip",
      "outputs": [],
      "payable": false,
      "stateMutability": "nonpayable",
      "type": "function"
    },
    {
      "constant": false,
      "inputs": [
        {
          "name": "x",
          "type": "uint8"
        },
        {
          "name": "y",
          "type": "uint8"
        }
      ],
      "name": "fireShot",
      "outputs": [
        {
          "name": "",
          "type": "string"
        }
      ],
      "payable": false,
      "stateMutability": "nonpayable",
      "type": "function"
    },
    {
      "constant": true,
      "inputs": [
        {
          "name": "a",
          "type": "string"
        },
        {
          "name": "b",
          "type": "string"
        }
      ],
      "name": "compareStrings",
      "outputs": [
        {
          "name": "",
          "type": "bool"
        }
      ],
      "payable": false,
      "stateMutability": "view",
      "type": "function"
    }
  ],
  "bytecode": "0x608060405260008060006101000a81548160ff0219169083151502179055503480156200002b57600080fd5b50600260d760006101000a81548160ff021916908360028111156200004c57fe5b02179055506040805190810160405280600781526020017f465249474154450000000000000000000000000000000000000000000000000081525060d16000019080519060200190620000a19291906200091e565b50600160d160010160006101000a81548160ff021916908360ff16021790555060d160010160009054906101000a900460ff1660d160010160016101000a81548160ff021916908360ff160217905550600060d160010160026101000a81548160ff021916908360ff1602179055506040805190810160405280600981526020017f5355424d4152494e45000000000000000000000000000000000000000000000081525060d36000019080519060200190620001609291906200091e565b50600260d360010160006101000a81548160ff021916908360ff16021790555060d360010160009054906101000a900460ff1660d360010160016101000a81548160ff021916908360ff160217905550600060d360010160026101000a81548160ff021916908360ff1602179055506040805190810160405280600981526020017f44455354524f594552000000000000000000000000000000000000000000000081525060d560000190805190602001906200021f9291906200091e565b50600360d560010160006101000a81548160ff021916908360ff16021790555060d560010160009054906101000a900460ff1660d560010160016101000a81548160ff021916908360ff160217905550600060d560010160026101000a81548160ff021916908360ff160217905550600160670160d19080600181540180825580915050906001820390600052602060002090600202016000909192909190915060008201816000019080546001816001161561010002031660029004620002e9929190620009a5565b506001820160009054906101000a900460ff168160010160006101000a81548160ff021916908360ff1602179055506001820160019054906101000a900460ff168160010160016101000a81548160ff021916908360ff1602179055506001820160029054906101000a900460ff168160010160026101000a81548160ff021916908360ff1602179055506001820160039054906101000a900460ff168160010160036101000a81548160ff021916908360ff160217905550505050600160670160d3908060018154018082558091505090600182039060005260206000209060020201600090919290919091506000820181600001908054600181600116156101000203166002900462000400929190620009a5565b506001820160009054906101000a900460ff168160010160006101000a81548160ff021916908360ff1602179055506001820160019054906101000a900460ff168160010160016101000a81548160ff021916908360ff1602179055506001820160029054906101000a900460ff168160010160026101000a81548160ff021916908360ff1602179055506001820160039054906101000a900460ff168160010160036101000a81548160ff021916908360ff160217905550505050600160670160d5908060018154018082558091505090600182039060005260206000209060020201600090919290919091506000820181600001908054600181600116156101000203166002900462000517929190620009a5565b506001820160009054906101000a900460ff168160010160006101000a81548160ff021916908360ff1602179055506001820160019054906101000a900460ff168160010160016101000a81548160ff021916908360ff1602179055506001820160029054906101000a900460ff168160010160026101000a81548160ff021916908360ff1602179055506001820160039054906101000a900460ff168160010160036101000a81548160ff021916908360ff160217905550505050606960670160d190806001815401808255809150509060018203906000526020600020906002020160009091929091909150600082018160000190805460018160011615610100020316600290046200062e929190620009a5565b506001820160009054906101000a900460ff168160010160006101000a81548160ff021916908360ff1602179055506001820160019054906101000a900460ff168160010160016101000a81548160ff021916908360ff1602179055506001820160029054906101000a900460ff168160010160026101000a81548160ff021916908360ff1602179055506001820160039054906101000a900460ff168160010160036101000a81548160ff021916908360ff160217905550505050606960670160d3908060018154018082558091505090600182039060005260206000209060020201600090919290919091506000820181600001908054600181600116156101000203166002900462000745929190620009a5565b506001820160009054906101000a900460ff168160010160006101000a81548160ff021916908360ff1602179055506001820160019054906101000a900460ff168160010160016101000a81548160ff021916908360ff1602179055506001820160029054906101000a900460ff168160010160026101000a81548160ff021916908360ff1602179055506001820160039054906101000a900460ff168160010160036101000a81548160ff021916908360ff160217905550505050606960670160d590806001815401808255809150509060018203906000526020600020906002020160009091929091909150600082018160000190805460018160011615610100020316600290046200085c929190620009a5565b506001820160009054906101000a900460ff168160010160006101000a81548160ff021916908360ff1602179055506001820160019054906101000a900460ff168160010160016101000a81548160ff021916908360ff1602179055506001820160029054906101000a900460ff168160010160026101000a81548160ff021916908360ff1602179055506001820160039054906101000a900460ff168160010160036101000a81548160ff021916908360ff16021790555050505062000a5b565b828054600181600116156101000203166002900490600052602060002090601f016020900481019282601f106200096157805160ff191683800117855562000992565b8280016001018555821562000992579182015b828111156200099157825182559160200191906001019062000974565b5b509050620009a1919062000a33565b5090565b828054600181600116156101000203166002900490600052602060002090601f016020900481019282601f10620009e0578054855562000a20565b8280016001018555821562000a2057600052602060002091601f016020900482015b8281111562000a1f57825482559160010191906001019062000a02565b5b50905062000a2f919062000a33565b5090565b62000a5891905b8082111562000a5457600081600090555060010162000a3a565b5090565b90565b6133258062000a6b6000396000f300608060405260043610610078576000357c0100000000000000000000000000000000000000000000000000000000900463ffffffff1680631385d24c1461007d578063619ce65314610094578063b3446f8514610124578063bc2d105e1461018d578063bed34bba14610263578063df195d041461032a575b600080fd5b34801561008957600080fd5b506100926103e0565b005b3480156100a057600080fd5b506100a9610466565b6040518080602001828103825283818151815260200191508051906020019080838360005b838110156100e95780820151818401526020810190506100ce565b50505050905090810190601f1680156101165780820380516001836020036101000a031916815260200191505b509250505060405180910390f35b34801561013057600080fd5b5061018b600480360381019080803590602001908201803590602001908080601f01602080910402602001604051908101604052809392919081815260200183838082843782019150505050505091929192905050506104a3565b005b34801561019957600080fd5b50610261600480360381019080803560ff169060200190929190803560ff169060200190929190803590602001908201803590602001908080601f0160208091040260200160405190810160405280939291908181526020018383808284378201915050505050509192919290803590602001908201803590602001908080601f0160208091040260200160405190810160405280939291908181526020018383808284378201915050505050509192919290803560ff169060200190929190505050610729565b005b34801561026f57600080fd5b50610310600480360381019080803590602001908201803590602001908080601f0160208091040260200160405190810160405280939291908181526020018383808284378201915050505050509192919290803590602001908201803590602001908080601f0160208091040260200160405190810160405280939291908181526020018383808284378201915050505050509192919290505050610fd0565b604051808215151515815260200191505060405180910390f35b34801561033657600080fd5b50610365600480360381019080803560ff169060200190929190803560ff1690602001909291905050506110a9565b6040518080602001828103825283818151815260200191508051906020019080838360005b838110156103a557808201518184015260208101905061038a565b50505050905090810190601f1680156103d25780820380516001836020036101000a031916815260200191505b509250505060405180910390f35b600060019054906101000a900473ffffffffffffffffffffffffffffffffffffffff1673ffffffffffffffffffffffffffffffffffffffff163373ffffffffffffffffffffffffffffffffffffffff1614151561043c57600080fd5b6000809054906101000a900460ff16156000806101000a81548160ff021916908315150217905550565b60606040805190810160405280600481526020017f4d696b6500000000000000000000000000000000000000000000000000000000815250905090565b606060016000018054600181600116156101000203166002900480601f01602080910402602001604051908101604052809291908181526020018280546001816001161561010002031660029004801561053e5780601f106105135761010080835404028352916020019161053e565b820191906000526020600020905b81548152906001019060200180831161052157829003601f168201915b505050505090506000815114156106a257336001800160006101000a81548173ffffffffffffffffffffffffffffffffffffffff021916908373ffffffffffffffffffffffffffffffffffffffff16021790555081600160000190805190602001906105ab929190612f03565b50600160d8600082018160000190805460018160011615610100020316600290046105d7929190612f83565b506001820160009054906101000a900473ffffffffffffffffffffffffffffffffffffffff168160010160006101000a81548173ffffffffffffffffffffffffffffffffffffffff021916908373ffffffffffffffffffffffffffffffffffffffff160217905550600282018160020190600a61065592919061300a565b506066820160009054906101000a900460ff168160660160006101000a81548160ff0219169083151502179055506067820181606701908054610699929190613059565b50905050610725565b33606960010160006101000a81548173ffffffffffffffffffffffffffffffffffffffff021916908373ffffffffffffffffffffffffffffffffffffffff16021790555081606960000190805190602001906106ff929190612f03565b50600160d760006101000a81548160ff0219169083600281111561071f57fe5b02179055505b5050565b6000806000806000806000806001600281111561074257fe5b60d760009054906101000a900460ff16600281111561075d57fe5b14151561076957600080fd5b6108108a60016000018054600181600116156101000203166002900480601f0160208091040260200160405190810160405280929190818152602001828054600181600116156101000203166002900480156108065780601f106107db57610100808354040283529160200191610806565b820191906000526020600020905b8154815290600101906020018083116107e957829003601f168201915b5050505050610fd0565b1561081e5760019650610823565b606996505b6108ca8b60d16000018054600181600116156101000203166002900480601f0160208091040260200160405190810160405280929190818152602001828054600181600116156101000203166002900480156108c05780601f10610895576101008083540402835291602001916108c0565b820191906000526020600020905b8154815290600101906020018083116108a357829003601f168201915b5050505050610fd0565b156108f6578660670160008154811015156108e157fe5b90600052602060002090600202019750610a9a565b61099d8b60d36000018054600181600116156101000203166002900480601f0160208091040260200160405190810160405280929190818152602001828054600181600116156101000203166002900480156109935780601f1061096857610100808354040283529160200191610993565b820191906000526020600020905b81548152906001019060200180831161097657829003601f168201915b5050505050610fd0565b156109c9578660670160018154811015156109b457fe5b90600052602060002090600202019750610a99565b610a708b60d56000018054600181600116156101000203166002900480601f016020809104026020016040519081016040528092919081815260200182805460018160011615610100020316600290048015610a665780601f10610a3b57610100808354040283529160200191610a66565b820191906000526020600020905b815481529060010190602001808311610a4957829003601f168201915b5050505050610fd0565b15610a9857866067016002815481101515610a8757fe5b906000526020600020906002020197505b5b5b7f85afe4fc04986b6cead49a25b21c3e8f8d92d902967e3fdb2491123dad04fc8c886000018960010160019054906101000a900460ff166040518080602001806020018460ff1681526020018381038352600f8152602001807f43757272656e7420736869702069730000000000000000000000000000000000815250602001838103825285818154600181600116156101000203166002900481526020019150805460018160011615610100020316600290048015610b9b5780601f10610b7057610100808354040283529160200191610b9b565b820191906000526020600020905b815481529060010190602001808311610b7e57829003601f168201915b505094505050505060405180910390a18c60ff1695508760010160009054906101000a900460ff168d0160ff1694508b60ff1693508760010160009054906101000a900460ff168c0160ff16925060008d60ff1610158015610c01575060008c60ff1610155b1515610c0c57600080fd5b600a60ff1685108015610c225750600a60ff1683105b1515610c2d57600080fd5b600060ff168860010160029054906101000a900460ff1660ff16141515610c5357600080fd5b600060ff168960ff161415610daa578591505b84821015610da557600060d860020183600a81101515610c8257fe5b600a02018d60ff16600a81101515610c9657fe5b0154141515610ca457600080fd5b8760010160019054906101000a900460ff1660ff168760020183600a81101515610cca57fe5b600a02018d60ff16600a81101515610cde57fe5b018190555060018860010160026101000a81548160ff021916908360ff1602179055507f7640287f811ab1b4e37aaf4739f0b3d8f87a9e7efd4369dc5826ec5edaa8fc74828d8a60010160019054906101000a900460ff1660405180806020018581526020018460ff1681526020018360ff168152602001828103825260178152602001807f5368697020706c61636564206174206c6f636174696f6e00000000000000000081525060200194505050505060405180910390a18180600101925050610c66565b610e57565b8391505b82821015610e5657600060d86002018e60ff16600a81101515610dcd57fe5b600a020183600a81101515610dde57fe5b0154141515610dec57600080fd5b8760010160019054906101000a900460ff1660ff16876002018e60ff16600a81101515610e1557fe5b600a020183600a81101515610e2657fe5b018190555060018860010160026101000a81548160ff021916908360ff1602179055508180600101925050610dae565b5b60019050600091505b600160670180549050821015610ec157600060ff16600160670183815481101515610e8757fe5b906000526020600020906002020160010160029054906101000a900460ff1660ff161415610eb457600090505b8180600101925050610e60565b600091505b606960670180549050821015610f2757600060ff16606960670183815481101515610eed57fe5b906000526020600020906002020160010160029054906101000a900460ff1660ff161415610f1a57600090505b8180600101925050610ec6565b600115158115151415610fc1577f9af59cc428db7b85fee9d4f846623c39c1728a0cc1259e15df1bfd974540366f6040518080602001828103825260108152602001807f416c6c20536869707320506c616365640000000000000000000000000000000081525060200191505060405180910390a1600060d760006101000a81548160ff02191690836002811115610fbb57fe5b02179055505b50505050505050505050505050565b6000816040518082805190602001908083835b6020831015156110085780518252602082019150602081019050602083039250610fe3565b6001836020036101000a038019825116818451168082178552505050505050905001915050604051809103902060001916836040518082805190602001908083835b60208310151561106f578051825260208201915060208101905060208303925061104a565b6001836020036101000a03801982511681845116808217855250505050505090500191505060405180910390206000191614905092915050565b6060600080600060028111156110bb57fe5b60d760009054906101000a900460ff1660028111156110d657fe5b1415156110e257600080fd5b61122660d86000018054600181600116156101000203166002900480601f01602080910402602001604051908101604052809291908181526020018280546001816001161561010002031660029004801561117e5780601f106111535761010080835404028352916020019161117e565b820191906000526020600020905b81548152906001019060200180831161116157829003601f168201915b505050505060016000018054600181600116156101000203166002900480601f01602080910402602001604051908101604052809291908181526020018280546001816001161561010002031660029004801561121c5780601f106111f15761010080835404028352916020019161121c565b820191906000526020600020905b8154815290600101906020018083116111ff57829003601f168201915b5050505050610fd0565b15611beb57600160696002018660ff16600a8110151561124257fe5b600a02018560ff16600a8110151561125657fe5b0154101580156112915750600560696002018660ff16600a8110151561127857fe5b600a02018560ff16600a8110151561128c57fe5b015411155b15611977576040805190810160405280600381526020017f484954000000000000000000000000000000000000000000000000000000000081525061014090805190602001906112e2929190612f03565b5060696002018560ff16600a811015156112f857fe5b600a02018460ff16600a8110151561130c57fe5b01549150600960ff1660696002018660ff16600a8110151561132a57fe5b600a02018560ff16600a8110151561133e57fe5b018190555060696067016001830381548110151561135857fe5b9060005260206000209060020201600101600381819054906101000a900460ff168092919060010191906101000a81548160ff021916908360ff16021790555050816069606701600184038154811015156113af57fe5b906000526020600020906002020160010160039054906101000a900460ff1660ff1614156115bd5760026069606701600184038154811015156113ee57fe5b906000526020600020906002020160010160026101000a81548160ff021916908360ff1602179055507fc7823d86aed598df035ea41d58540dc0caa7333d677c1a973b63b28109812e97606960000160696067016001850381548110151561145257fe5b9060005260206000209060020201600001604051808060200180602001806020018481038452868181546001816001161561010002031660029004815260200191508054600181600116156101000203166002900480156114f45780601f106114c9576101008083540402835291602001916114f4565b820191906000526020600020905b8154815290600101906020018083116114d757829003601f168201915b50508481038352858181546001816001161561010002031660029004815260200191508054600181600116156101000203166002900480156115775780601f1061154c57610100808354040283529160200191611577565b820191906000526020600020905b81548152906001019060200180831161155a57829003601f168201915b5050848103825260048152602001807f53554e4b000000000000000000000000000000000000000000000000000000008152506020019550505050505060405180910390a15b7fc853987460a693146896537e8c75eb17519cba9e2d443a1bbd33ccd6ae602c1861014060d86000016040518080602001806020018381038352858181546001816001161561010002031660029004815260200191508054600181600116156101000203166002900480156116735780601f1061164857610100808354040283529160200191611673565b820191906000526020600020905b81548152906001019060200180831161165657829003601f168201915b50508381038252848181546001816001161561010002031660029004815260200191508054600181600116156101000203166002900480156116f65780601f106116cb576101008083540402835291602001916116f6565b820191906000526020600020905b8154815290600101906020018083116116d957829003601f168201915b505094505050505060405180910390a16117ac60d86000018054600181600116156101000203166002900480601f0160208091040260200160405190810160405280929190818152602001828054600181600116156101000203166002900480156117a25780601f10611777576101008083540402835291602001916117a2565b820191906000526020600020905b81548152906001019060200180831161178557829003601f168201915b50505050506125ae565b156118cc57600260d760006101000a81548160ff021916908360028111156117d057fe5b02179055507f9bf3a3ee7743d8ce8ae78fd7450036ece624f1858a4af1b2ef0a509e14ec349360d8600001604051808060200180602001838103835260098152602001807f47616d6520576f6e2100000000000000000000000000000000000000000000008152506020018381038252848181546001816001161561010002031660029004815260200191508054600181600116156101000203166002900480156118bc5780601f10611891576101008083540402835291602001916118bc565b820191906000526020600020905b81548152906001019060200180831161189f57829003601f168201915b5050935050505060405180910390a15b6118d4612bd0565b6101408054600181600116156101000203166002900480601f01602080910402602001604051908101604052809291908181526020018280546001816001161561010002031660029004801561196b5780601f106119405761010080835404028352916020019161196b565b820191906000526020600020905b81548152906001019060200180831161194e57829003601f168201915b505050505092506125a6565b6040805190810160405280600481526020017f4d4953530000000000000000000000000000000000000000000000000000000081525061014090805190602001906119c3929190612f03565b50600860ff1660696002018660ff16600a811015156119de57fe5b600a02018560ff16600a811015156119f257fe5b01819055507fc853987460a693146896537e8c75eb17519cba9e2d443a1bbd33ccd6ae602c1861014060d8600001604051808060200180602001838103835285818154600181600116156101000203166002900481526020019150805460018160011615610100020316600290048015611aad5780601f10611a8257610100808354040283529160200191611aad565b820191906000526020600020905b815481529060010190602001808311611a9057829003601f168201915b5050838103825284818154600181600116156101000203166002900481526020019150805460018160011615610100020316600290048015611b305780601f10611b0557610100808354040283529160200191611b30565b820191906000526020600020905b815481529060010190602001808311611b1357829003601f168201915b505094505050505060405180910390a1611b48612bd0565b6101408054600181600116156101000203166002900480601f016020809104026020016040519081016040528092919081815260200182805460018160011615610100020316600290048015611bdf5780601f10611bb457610100808354040283529160200191611bdf565b820191906000526020600020905b815481529060010190602001808311611bc257829003601f168201915b505050505092506125a6565b6001806002018660ff16600a81101515611c0157fe5b600a02018560ff16600a81101515611c1557fe5b015410158015611c505750600560016002018660ff16600a81101515611c3757fe5b600a02018560ff16600a81101515611c4b57fe5b015411155b15612336576040805190810160405280600381526020017f48495400000000000000000000000000000000000000000000000000000000008152506101409080519060200190611ca1929190612f03565b5060016002018560ff16600a81101515611cb757fe5b600a02018460ff16600a81101515611ccb57fe5b01549050600960ff1660016002018660ff16600a81101515611ce957fe5b600a02018560ff16600a81101515611cfd57fe5b0181905550600160670160018203815481101515611d1757fe5b9060005260206000209060020201600101600381819054906101000a900460ff168092919060010191906101000a81548160ff021916908360ff1602179055505080600160670160018303815481101515611d6e57fe5b906000526020600020906002020160010160039054906101000a900460ff1660ff161415611f7c576002600160670160018303815481101515611dad57fe5b906000526020600020906002020160010160026101000a81548160ff021916908360ff1602179055507fc7823d86aed598df035ea41d58540dc0caa7333d677c1a973b63b28109812e976001600001600160670160018403815481101515611e1157fe5b906000526020600020906002020160000160405180806020018060200180602001848103845286818154600181600116156101000203166002900481526020019150805460018160011615610100020316600290048015611eb35780601f10611e8857610100808354040283529160200191611eb3565b820191906000526020600020905b815481529060010190602001808311611e9657829003601f168201915b5050848103835285818154600181600116156101000203166002900481526020019150805460018160011615610100020316600290048015611f365780601f10611f0b57610100808354040283529160200191611f36565b820191906000526020600020905b815481529060010190602001808311611f1957829003601f168201915b5050848103825260048152602001807f53554e4b000000000000000000000000000000000000000000000000000000008152506020019550505050505060405180910390a15b7fc853987460a693146896537e8c75eb17519cba9e2d443a1bbd33ccd6ae602c1861014060d86000016040518080602001806020018381038352858181546001816001161561010002031660029004815260200191508054600181600116156101000203166002900480156120325780601f1061200757610100808354040283529160200191612032565b820191906000526020600020905b81548152906001019060200180831161201557829003601f168201915b50508381038252848181546001816001161561010002031660029004815260200191508054600181600116156101000203166002900480156120b55780601f1061208a576101008083540402835291602001916120b5565b820191906000526020600020905b81548152906001019060200180831161209857829003601f168201915b505094505050505060405180910390a161216b60d86000018054600181600116156101000203166002900480601f0160208091040260200160405190810160405280929190818152602001828054600181600116156101000203166002900480156121615780601f1061213657610100808354040283529160200191612161565b820191906000526020600020905b81548152906001019060200180831161214457829003601f168201915b50505050506125ae565b1561228b57600260d760006101000a81548160ff0219169083600281111561218f57fe5b02179055507f9bf3a3ee7743d8ce8ae78fd7450036ece624f1858a4af1b2ef0a509e14ec349360d8600001604051808060200180602001838103835260098152602001807f47616d6520576f6e21000000000000000000000000000000000000000000000081525060200183810382528481815460018160011615610100020316600290048152602001915080546001816001161561010002031660029004801561227b5780601f106122505761010080835404028352916020019161227b565b820191906000526020600020905b81548152906001019060200180831161225e57829003601f168201915b5050935050505060405180910390a15b612293612bd0565b6101408054600181600116156101000203166002900480601f01602080910402602001604051908101604052809291908181526020018280546001816001161561010002031660029004801561232a5780601f106122ff5761010080835404028352916020019161232a565b820191906000526020600020905b81548152906001019060200180831161230d57829003601f168201915b505050505092506125a6565b6040805190810160405280600481526020017f4d495353000000000000000000000000000000000000000000000000000000008152506101409080519060200190612382929190612f03565b50600860ff1660016002018660ff16600a8110151561239d57fe5b600a02018560ff16600a811015156123b157fe5b01819055507fc853987460a693146896537e8c75eb17519cba9e2d443a1bbd33ccd6ae602c1861014060d860000160405180806020018060200183810383528581815460018160011615610100020316600290048152602001915080546001816001161561010002031660029004801561246c5780601f106124415761010080835404028352916020019161246c565b820191906000526020600020905b81548152906001019060200180831161244f57829003601f168201915b50508381038252848181546001816001161561010002031660029004815260200191508054600181600116156101000203166002900480156124ef5780601f106124c4576101008083540402835291602001916124ef565b820191906000526020600020905b8154815290600101906020018083116124d257829003601f168201915b505094505050505060405180910390a1612507612bd0565b6101408054600181600116156101000203166002900480601f01602080910402602001604051908101604052809291908181526020018280546001816001161561010002031660029004801561259e5780601f106125735761010080835404028352916020019161259e565b820191906000526020600020905b81548152906001019060200180831161258157829003601f168201915b505050505092505b505092915050565b60008060006001915061265e8460016000018054600181600116156101000203166002900480601f0160208091040260200160405190810160405280929190818152602001828054600181600116156101000203166002900480156126545780601f1061262957610100808354040283529160200191612654565b820191906000526020600020905b81548152906001019060200180831161263757829003601f168201915b5050505050610fd0565b1561284d57600090505b600360ff1681101561284c577f671efc4d453d098fce8b6582a19b67882ce6c84f47a69b1df623dcd5bd7fc251846069606701838154811015156126a857fe5b90600052602060002090600202016000016069606701848154811015156126cb57fe5b906000526020600020906002020160010160029054906101000a900460ff166040518080602001806020018460ff1660ff168152602001838103835286818151815260200191508051906020019080838360005b8381101561273a57808201518184015260208101905061271f565b50505050905090810190601f1680156127675780820380516001836020036101000a031916815260200191505b508381038252858181546001816001161561010002031660029004815260200191508054600181600116156101000203166002900480156127e95780601f106127be576101008083540402835291602001916127e9565b820191906000526020600020905b8154815290600101906020018083116127cc57829003601f168201915b50509550505050505060405180910390a1600260ff1660696067018281548110151561281157fe5b906000526020600020906002020160010160029054906101000a900460ff1660ff1614151561283f57600091505b8080600101915050612668565b5b6128f48460696000018054600181600116156101000203166002900480601f0160208091040260200160405190810160405280929190818152602001828054600181600116156101000203166002900480156128ea5780601f106128bf576101008083540402835291602001916128ea565b820191906000526020600020905b8154815290600101906020018083116128cd57829003601f168201915b5050505050610fd0565b15612ae357600090505b600360ff16811015612ae2577f671efc4d453d098fce8b6582a19b67882ce6c84f47a69b1df623dcd5bd7fc2518460016067018381548110151561293e57fe5b906000526020600020906002020160000160016067018481548110151561296157fe5b906000526020600020906002020160010160029054906101000a900460ff166040518080602001806020018460ff1660ff168152602001838103835286818151815260200191508051906020019080838360005b838110156129d05780820151818401526020810190506129b5565b50505050905090810190601f1680156129fd5780820380516001836020036101000a031916815260200191505b50838103825285818154600181600116156101000203166002900481526020019150805460018160011615610100020316600290048015612a7f5780601f10612a5457610100808354040283529160200191612a7f565b820191906000526020600020905b815481529060010190602001808311612a6257829003601f168201915b50509550505050505060405180910390a1600260ff16600160670182815481101515612aa757fe5b906000526020600020906002020160010160029054906101000a900460ff1660ff16141515612ad557600091505b80806001019150506128fe565b5b600115158215151415612bc6577f43e218a52ed7135da92840e41483c8c54d5d9ddbd14032901787304294237a7e84604051808060200180602001838103835260128152602001807f416c6c2073686970732073756e6b20666f720000000000000000000000000000815250602001838103825284818151815260200191508051906020019080838360005b83811015612b8a578082015181840152602081019050612b6f565b50505050905090810190601f168015612bb75780820380516001836020036101000a031916815260200191505b50935050505060405180910390a15b8192505050919050565b612d1460d86000018054600181600116156101000203166002900480601f016020809104026020016040519081016040528092919081815260200182805460018160011615610100020316600290048015612c6c5780601f10612c4157610100808354040283529160200191612c6c565b820191906000526020600020905b815481529060010190602001808311612c4f57829003601f168201915b505050505060016000018054600181600116156101000203166002900480601f016020809104026020016040519081016040528092919081815260200182805460018160011615610100020316600290048015612d0a5780601f10612cdf57610100808354040283529160200191612d0a565b820191906000526020600020905b815481529060010190602001808311612ced57829003601f168201915b5050505050610fd0565b15612e0f57606960d860008201816000019080546001816001161561010002031660029004612d44929190612f83565b506001820160009054906101000a900473ffffffffffffffffffffffffffffffffffffffff168160010160006101000a81548173ffffffffffffffffffffffffffffffffffffffff021916908373ffffffffffffffffffffffffffffffffffffffff160217905550600282018160020190600a612dc292919061300a565b506066820160009054906101000a900460ff168160660160006101000a81548160ff0219169083151502179055506067820181606701908054612e06929190613059565b50905050612f01565b600160d860008201816000019080546001816001161561010002031660029004612e3a929190612f83565b506001820160009054906101000a900473ffffffffffffffffffffffffffffffffffffffff168160010160006101000a81548173ffffffffffffffffffffffffffffffffffffffff021916908373ffffffffffffffffffffffffffffffffffffffff160217905550600282018160020190600a612eb892919061300a565b506066820160009054906101000a900460ff168160660160006101000a81548160ff0219169083151502179055506067820181606701908054612efc929190613059565b509050505b565b828054600181600116156101000203166002900490600052602060002090601f016020900481019282601f10612f4457805160ff1916838001178555612f72565b82800160010185558215612f72579182015b82811115612f71578251825591602001919060010190612f56565b5b509050612f7f9190613191565b5090565b828054600181600116156101000203166002900490600052602060002090601f016020900481019282601f10612fbc5780548555612ff9565b82800160010185558215612ff957600052602060002091601f016020900482015b82811115612ff8578254825591600101919060010190612fdd565b5b5090506130069190613191565b5090565b82600a800281019282156130485791600a0282015b8281111561304757828290600a6130379291906131b6565b5091600a019190600a019061301f565b5b50905061305591906131f3565b5090565b8280548282559060005260206000209060020281019282156131805760005260206000209160020282015b8281111561317f578282600082018160000190805460018160011615610100020316600290046130b5929190612f83565b506001820160009054906101000a900460ff168160010160006101000a81548160ff021916908360ff1602179055506001820160019054906101000a900460ff168160010160016101000a81548160ff021916908360ff1602179055506001820160029054906101000a900460ff168160010160026101000a81548160ff021916908360ff1602179055506001820160039054906101000a900460ff168160010160036101000a81548160ff021916908360ff160217905550505091600201919060020190613084565b5b50905061318d919061321f565b5090565b6131b391905b808211156131af576000816000905550600101613197565b5090565b90565b82600a81019282156131e2579182015b828111156131e15782548255916001019190600101906131c6565b5b5090506131ef9190613191565b5090565b61321c91905b80821115613218576000818161320f919061329e565b50600a016131f9565b5090565b90565b61329b91905b80821115613297576000808201600061323e91906132b1565b6001820160006101000a81549060ff02191690556001820160016101000a81549060ff02191690556001820160026101000a81549060ff02191690556001820160036101000a81549060ff021916905550600201613225565b5090565b90565b5080600a01906132ae9190613191565b50565b50805460018160011615610100020316600290046000825580601f106132d757506132f6565b601f0160209004906000526020600020908101906132f59190613191565b5b505600a165627a7a72305820fda6da7a1c7697b51bbc6c428b8a64c0bbe5bb2e090bde2ca3637fcb830702420029",
  "source": "pragma solidity ^0.4.23;\n\ncontract Battleships {\n\n  enum GameState {InPlay, PlacingShips, GameEnded}\n\n  uint8 constant BOARDSIZE = 10;\n\n  bool private stopped = false;\n  address private owner;\n\n struct ship {\n      string shipName;\n      uint8 shipLength;\n      uint8 shipCode;\n      uint8 shipStatus;\n      uint8 shipDamage;\n  }\n\n  struct playerState {\n      string playerName;\n      address playerAddr;\n      uint[BOARDSIZE][BOARDSIZE] boardMatrix;\n      bool isActive;\n      ship[] ships;\n  }\n\n  playerState player1;\n  playerState player2;\n\n  ship frigate;\n  ship submarine;\n  ship destroyer;\n\n  GameState gameState;\n\n  playerState currentPlayer;\n\n  string shotResult;\n\n  uint8 constant MISS = 8;\n  uint8 constant HIT = 9;\n\n  uint8 constant SHIP_FREE = 0;\n  uint8 constant SHIP_PLACED = 1;\n  uint8 constant SHIP_SUNK = 2;\n\n  uint8 constant HORIZONTAL = 0;\n  uint8 constant VERTICAL = 1;\n\n  uint8 constant NUM_OF_SHIPS = 3;\n\n   constructor() public {\n    gameState = GameState.GameEnded;\n\n    frigate.shipName = \"FRIGATE\";\n    frigate.shipLength = 1;\n    frigate.shipCode = frigate.shipLength;\n    frigate.shipStatus = SHIP_FREE;\n    submarine.shipName = \"SUBMARINE\";\n    submarine.shipLength = 2;\n    submarine.shipCode = submarine.shipLength;\n    submarine.shipStatus = SHIP_FREE;\n    destroyer.shipName = \"DESTROYER\";\n    destroyer.shipLength = 3;\n    destroyer.shipCode = destroyer.shipLength;\n    destroyer.shipStatus = SHIP_FREE;\n\n    player1.ships.push(frigate);\n    player1.ships.push(submarine);\n    player1.ships.push(destroyer);\n    player2.ships.push(frigate);\n    player2.ships.push(submarine);\n    player2.ships.push(destroyer);\n\n  }\n\n  event LogShotResult(string, string);\n  event LogPlaceLegality(string, string);\n  event LogShipStartStop(uint,uint);\n  event LogAllShipsPlaced(string);\n  event LogShipPlaced(string,uint,uint,uint);\n  event LogCurrentShip(string,string,uint);\n  event LogShipSunk(string,string,string);\n  event LogGameWon(string,string);\n  event LogAllShipsSunk(string,string);\n  event LogCheckShipStatus(string,string,uint8);\n\n  modifier isAdmin() {\n    if(msg.sender != owner) {\n        throw;\n    }\n    _;\n  }\n\n  modifier stopInEmergency { if (!stopped) _; }\n\n  modifier onlyInEmergency { if (stopped) _; }\n\n  modifier isGameInPlay {\n    require(gameState == GameState.InPlay);\n    _;\n  }\n\n modifier hasGameEnded {\n    require(gameState == GameState.GameEnded);\n    _;\n  }\n\n  modifier playersRegistered {\n      require(gameState == GameState.PlacingShips);\n      _;\n  }\n\n  function returnPlayer() constant public returns (string) {\n    return \"Mike\";\n  }\n\n  function toggleContractActive() isAdmin public\n  {\n    stopped = !stopped;\n  }\n\n  function registerPlayer(string playerName) public {\n\n    bytes memory tempEmptyStringTest = bytes(player1.playerName);\n\n    if (tempEmptyStringTest.length == 0) {\n      player1.playerAddr = msg.sender;\n      player1.playerName = playerName;\n      currentPlayer = player1;\n    } else {\n      player2.playerAddr = msg.sender;\n      player2.playerName = playerName;\n      gameState = GameState.PlacingShips;\n    }\n\n  }\n\n  function placeShip(uint8 x, uint8 y, string shipType, string playerName, uint8 direction) public playersRegistered {\n\n      ship currentShip;\n\n      //player1.playerName = \"Chris\";\n\n      playerState placingPlayer;\n\n      if (compareStrings(playerName, player1.playerName)) {\n          placingPlayer = player1;\n      } else {\n          placingPlayer = player2;\n      }\n\n      if (compareStrings(shipType, frigate.shipName)) {\n          currentShip = placingPlayer.ships[0];\n      } else if (compareStrings(shipType, submarine.shipName)) {\n          currentShip = placingPlayer.ships[1];\n        } else if (compareStrings(shipType, destroyer.shipName)) {\n              currentShip = placingPlayer.ships[2];\n          }\n      emit LogCurrentShip(\"Current ship is\",currentShip.shipName, currentShip.shipCode);\n\n      uint startSquareX = x;\n      uint endSquareX = x+currentShip.shipLength;\n      uint startSquareY = y;\n      uint endSquareY = y+currentShip.shipLength;\n\n      require(x >= 0 && y >= 0);\n      require(endSquareX < BOARDSIZE && endSquareY < BOARDSIZE);\n      require(currentShip.shipStatus == SHIP_FREE);\n\n\n\n            if (direction == HORIZONTAL) {\n              for (uint i=startSquareX; i<endSquareX; i++) {\n                require(currentPlayer.boardMatrix[i][y] == 0);\n                placingPlayer.boardMatrix[i][y] = currentShip.shipCode;\n                currentShip.shipStatus = SHIP_PLACED;\n                emit LogShipPlaced(\"Ship placed at location\",i,y,currentShip.shipCode);\n              }\n            } else {\n              for (i=startSquareY; i<endSquareY; i++) {\n                require(currentPlayer.boardMatrix[x][i] == 0);\n                placingPlayer.boardMatrix[x][i] = currentShip.shipCode;\n                currentShip.shipStatus = SHIP_PLACED;\n              }\n            }\n\n      bool allShipsPlaced = true;\n      for (i=0; i<player1.ships.length; i++) {\n          if (player1.ships[i].shipStatus == SHIP_FREE) {\n            allShipsPlaced = false;\n          }\n      }\n      for (i=0; i<player2.ships.length; i++) {\n        if (player2.ships[i].shipStatus == SHIP_FREE) {\n          allShipsPlaced = false;\n        }\n      }\n\n      if (allShipsPlaced == true) {\n          emit LogAllShipsPlaced(\"All Ships Placed\");\n          gameState = GameState.InPlay;\n      }\n  }\n\n  function switchCurrentPlayer() internal {\n      if (compareStrings(currentPlayer.playerName, player1.playerName)) {\n          currentPlayer = player2;\n      } else {\n          currentPlayer = player1;\n      }\n  }\n\n  function checkIfWon(string playerName_) private returns (bool) {\n\n      bool allShipsSunk = true;\n\n      if (compareStrings(playerName_, player1.playerName)) {\n          for (uint i=0; i<NUM_OF_SHIPS; i++) {\n            emit LogCheckShipStatus(playerName_,player2.ships[i].shipName,player2.ships[i].shipStatus);\n            if (player2.ships[i].shipStatus != SHIP_SUNK) {\n              allShipsSunk = false;\n            }\n           }\n      }\n\n      if (compareStrings(playerName_, player2.playerName)) {\n          for (i=0; i<NUM_OF_SHIPS; i++) {\n            emit LogCheckShipStatus(playerName_,player1.ships[i].shipName,player1.ships[i].shipStatus);\n            if (player1.ships[i].shipStatus != SHIP_SUNK) {\n              allShipsSunk = false;\n            }\n           }\n      }\n\n      if (allShipsSunk == true) {\n          emit LogAllShipsSunk(\"All ships sunk for\", playerName_);\n      }\n\n      return allShipsSunk;\n  }\n\n  function fireShot(uint8 x, uint8 y) isGameInPlay public returns (string) {\n\n      if (compareStrings(currentPlayer.playerName, player1.playerName)) {\n          if (player2.boardMatrix[x][y] >= 1 && player2.boardMatrix[x][y] <= 5) {\n              shotResult = \"HIT\";\n              uint player2ShipType = player2.boardMatrix[x][y];\n\n              player2.boardMatrix[x][y] = HIT;\n              player2.ships[player2ShipType-1].shipDamage++;\n              if (player2.ships[player2ShipType-1].shipDamage == player2ShipType) {\n                  player2.ships[player2ShipType-1].shipStatus = SHIP_SUNK;\n                  emit LogShipSunk(player2.playerName, player2.ships[player2ShipType-1].shipName, \"SUNK\");\n              }\n\n              emit LogShotResult(shotResult,currentPlayer.playerName);\n              if (checkIfWon(currentPlayer.playerName)) {\n                  gameState = GameState.GameEnded;\n                  emit LogGameWon(\"Game Won!\",currentPlayer.playerName);\n              }\n              switchCurrentPlayer();\n              return (shotResult);\n          } else {\n              shotResult = \"MISS\";\n              player2.boardMatrix[x][y] = MISS;\n              emit LogShotResult(shotResult,currentPlayer.playerName);\n\n              switchCurrentPlayer();\n              return (shotResult);\n          }\n      } else {\n          if (player1.boardMatrix[x][y] >= 1 && player1.boardMatrix[x][y] <= 5) {\n              shotResult = \"HIT\";\n              uint player1ShipType = player1.boardMatrix[x][y];\n\n              player1.boardMatrix[x][y] = HIT;\n              player1.ships[player1ShipType-1].shipDamage++;\n              if (player1.ships[player1ShipType-1].shipDamage == player1ShipType) {\n                  player1.ships[player1ShipType-1].shipStatus = SHIP_SUNK;\n                  emit LogShipSunk(player1.playerName, player1.ships[player1ShipType-1].shipName, \"SUNK\");\n              }\n              emit LogShotResult(shotResult,currentPlayer.playerName);\n              if (checkIfWon(currentPlayer.playerName)) {\n                  gameState = GameState.GameEnded;\n                  emit LogGameWon(\"Game Won!\", currentPlayer.playerName);\n              }\n              switchCurrentPlayer();\n              return shotResult;\n          } else {\n              shotResult = 'MISS';\n              player1.boardMatrix[x][y] = MISS;\n              emit LogShotResult(shotResult,currentPlayer.playerName);\n              switchCurrentPlayer();\n              return shotResult;\n          }\n      }\n  }\n\n  function compareStrings (string a, string b) view returns (bool) {\n       return keccak256(a) == keccak256(b);\n  }\n\n\n}\n",
  "sourcePath": "/Users/chrismilner/Documents/Bluemoon Consulting/projects/Battleship-Final/contracts/Battleship.sol",
  "compiler": {
    "name": "solc",
    "version": "0.4.24+commit.e67f0147.Emscripten.clang"
  },
  "schemaVersion": "2.0.0",
  "updatedAt": "2018-08-28T07:35:00.509Z"
}